:020000021000EC
:10B0000000400020614E0200A14E0200A34E02004B
:10B010000000000000000000000000000000000030
:10B02000000000000000000000000000A54E02002B
:10B030000000000000000000A74E0200A94E020020
:10B04000AB4E0200AB4E0200B5D80100AB4E020081
:10B05000F5DF01000000000011CB0100AB4E020043
:10B06000AB4E0200AB4E0200AB4E0200AB4E0200F4
:10B07000AB4E0200AB4E0200AB4E0200AB4E0200E4
:10B08000AB4E020005C20100AB4E0200AB4E020007
:10B0900051C20100314702006D4D0200AB4E02006B
:10B0A000AB4E0200AB4E02000000000000000000AA
:10B0B0000000000000000000000000000000000090
:10B0C00010B5064C2378002B07D1054B002B02D07E
:10B0D000044800E000BF0123237010BD2C1F002096
:10B0E00000000000646A020008B5084B002B03D082
:10B0F0000748084900E000BF07480368002B00D15B
:10B1000008BD064B002BFBD09847F9E70000000074
:10B11000646A0200301F0020281F00200000000089
:10B12000164B002B00D1144B9D46402292029A1AD6
:10B13000924600218B460F461348144A121A00F01B
:10B1400067F80F4B002B00D098470E4B002B00D018
:10B1500098470020002104000D000D48002802D06F
:10B160000C4800E000BF00F02DF82000290006F098
:10B170006BF900F011F8C046000008000040002004
:10B1800000000000000000002C1F002020330020E1
:10B190000000000000000000084B10B5041C002B4C
:10B1A00002D0002100E000BF054B1868836A002B25
:10B1B00000D09847201C00F033F8C0460000000083
:10B1C000306402000E4B70B500251E1C0D4CE41AB5
:10B1D000A410A54204D0AB00F35898470135F8E716
:10B1E0000BF018F9084B00251E1C084CE41AA4109B
:10B1F000A54204D0AB00F35898470135F8E770BD7D
:10B20000201F0020201F0020201F0020241F0020BE
:10B21000031C8218934202D019700133FAE7704779
:10B22000FEE7C04680B586B000AF78600C23FB18FF
:10B2300000221A800C23FB1800225A600C23FB18F2
:10B240007A689A600C23FB18044A101C00211A1C0F
:10B2500000F016F8BD4606B080BDC04601400000B3
:10B2600080B500AFBFF34F8F034B044ADA60BFF3E2
:10B270004F8FC046FDE7C04600ED00E00400FA0530
:10B2800080B584B000AFF860B9607A60FFF7E8FF7E
:10B29000BD4604B080BDC04680B584B000AF7860C4
:10B2A0007B689B68FB607B68DA68FB68D31A181CB4
:10B2B000BD4604B080BDC04680B582B000AF7860A6
:10B2C0000A1CFB1C1A707B681A687B68DB6879684B
:10B2D00089880B40D318FA1C12781A707B68DB68D7
:10B2E0005A1C7B68DA60BD4602B080BD80B584B070
:10B2F00000AFF8607A600A23FB180A1C1A80FB680A
:10B300001A68FB6899680A23FB181B88CB18F96830
:10B3100089880B40D3181A787B681A70BD4604B030
:10B3200080BDC04680B582B000AF786039607A6871
:10B330003B68101C00211A1CFFF7D8FF7B689B6834
:10B340005A1C7B689A60BD4602B080BD80B584B04F
:10B3500000AFF860B960BB1D1A80BB68002B01D13B
:10B360000E231CE0BB1D1B88002B06D0BB1D1B88B9
:10B37000013BBA1D1288134001D009230FE0FB687E
:10B38000BA681A60BB1D1B88013B9AB2FB689A80A1
:10B39000FB6800229A60FB680022DA600023181C18
:10B3A000BD4604B080BDC04680B582B000AF7860B5
:10B3B0000A1CFB1C1A707B68181CFFF76DFF021C2F
:10B3C0007B689B889A4208D87A68FB1C1B78101C03
:10B3D000191CFFF771FF002300E00423181CBD4671
:10B3E00002B080BD80B582B000AF786039607B6804
:10B3F000181CFFF751FF031E07D07A683B68101C2A
:10B40000191CFFF78FFF002300E00523181CBD4621
:10B4100002B080BD80B584B000AFF8607A600A23C6
:10B42000FB180A1C1A80FB68181CFFF735FF021C6A
:10B430000A23FB181B889A420BD9F9680A23FB18C8
:10B440001A887B68081C111C1A1CFFF74FFF002389
:10B4500000E00523181CBD4604B080BD80B582B055
:10B4600000AF78607B68DA687B689A600023181CFC
:10B47000BD4602B080BDC04680B588B000AFF86060
:10B48000B9607A60FB68002B01D10E2335E07B6840
:10B49000002B01D10E2330E0FB68181CFFF7FCFEE7
:10B4A000031CBB617B681B687B610023FB617A69BD
:10B4B000BB69934200D9131C3B617B68BA691A606F
:10B4C000BB69002B01D1052317E0BB68002B01D11C
:10B4D000002312E009E0FB695A1CFA61BA68D3182C
:10B4E000FA68101C191CFFF71DFFFA693B699A42A4
:10B4F000F1D37B683A691A600023181CBD4608B076
:10B5000080BDC04690B589B000AFF860B9607A6080
:10B51000FB68002B01D10E233BE07B68002B01D19F
:10B520000E2336E0FB689B881C1CFB68181CFFF789
:10B53000B3FE031CE31A0133BB617B681B687B61AC
:10B540000023FB617A69BB69934200D9131C3B61FC
:10B550007B68BA691A60BB69002B01D1042318E02B
:10B56000BB68002B01D1002313E00AE0FB695A1CE1
:10B57000FA61BA68D3181B78FA68101C191CFFF717
:10B580009BFEFA693B699A42F0D37B683A691A607C
:10B590000023181CBD4609B090BDC04680B582B0DE
:10B5A00000AF021CFB1D1A70064BFA1D1278111C0D
:10B5B0001F220A40012191400A1C1A60BD4602B0B8
:10B5C00080BDC04600E100E080B582B000AF021C43
:10B5D000FB1D1A700649FB1D1B781A1C1F23134004
:10B5E00001229A40131C80228B50BD4602B080BDC0
:10B5F00000E100E080B582B000AF021CFB1D1A70B4
:10B600000649FB1D1B781A1C1F23134001229A4078
:10B6100080235B00CA50BD4602B080BD00E100E05F
:10B6200080B582B000AF021CFB1D1A700649FB1DDD
:10B630001B781A1C1F23134001229A40C0235B0071
:10B64000CA50BD4602B080BD00E100E0B0B582B096
:10B6500000AF021C3960FB1D1A70FB1D1B787F2B8D
:10B660002FD92D4CFB1D1B781A1C0F231340083BB0
:10B670009908294AFB1D1B78181C0F230340083B1F
:10B680009B0806339B00D3185B68FA1D1278101CC8
:10B6900003220240D200101CFF228240D2431A40F3
:10B6A0003B689B01FF200340F81D0078051C032028
:10B6B0002840C00083401A438B1D9B00E3185A604A
:10B6C00026E0164CFB1D1B785BB29B081349FA1D44
:10B6D000127852B29208C03292005258F91D09787D
:10B6E000081C03210140C900081CFF218140C943F7
:10B6F00011403A689201FF200240F81D0078051CB5
:10B7000003202840C00082400A43C0339B001A51E6
:10B71000BD4602B0B0BDC04600ED00E000E100E073
:10B7200080B582B000AF021CFB1D1A70FB1D1B7898
:10B730007F2B16D9164AFB1D1B78191C0F230B40B3
:10B74000083B9B0806339B00D3185B68FA1D1278F0
:10B75000111C03220A40D200D340FF2213409B0950
:10B7600011E00C4AFB1D1B785BB29B08C0339B00A9
:10B770009B58FA1D1278111C03220A40D200D340B4
:10B78000FF2213409B09181CBD4602B080BDC04675
:10B7900000ED00E000E100E080B582B000AF78602D
:10B7A0007B68032213405A425341DBB2181CBD464A
:10B7B00002B080BD80B584B000AFEFF305837B603D
:10B7C0007B68DB05DB0DFB60FB68002B0BD0FB68A7
:10B7D000103BBB60BB68DBB25BB2181CFFF7A0FF7D
:10B7E000031CDBB200E00423181CBD4604B080BD7E
:10B7F00080B582B000AF78600549A123DB007A688C
:10B80000CA5011200321FFF721FFBD4602B080BDC1
:10B810000010014080B582B000AF1649D1239B00D3
:10B8200080225202CA501349C1239B008022520237
:10B83000CA501120FFF7F4FE1120FFF7AFFE0D4BA9
:10B8400001221A602F237B607B68181C0138C046D8
:10B85000C046C046C046C046C046C046C046C046B8
:10B86000C046C046C046F1D1034B01221A70BD4606
:10B8700002B080BD00100140681F002080B582B07A
:10B8800000AF1120FFF7A0FE1F49D2239B008022AA
:10B890005202CA501C49C2239B0080225202CA5045
:10B8A000194B01225A602F233B603B68181C01385A
:10B8B000C046C046C046C046C046C046C046C04658
:10B8C000C046C046C046C046F1D10F4B01229A6027
:10B8D0000E4B00221A602F237B607B68181C0138F6
:10B8E000C046C046C046C046C046C046C046C04628
:10B8F000C046C046C046C046F1D1054B00221A7072
:10B90000BD4602B080BDC04600100140541F00205B
:10B91000681F002080B500AF024A034BD358181CA3
:10B92000BD4680BD001001400405000080B582B016
:10B9300000AF786039607A683B68D31A1B021B0A33
:10B94000181CBD4602B080BD80B582B000AF7860E3
:10B950000349A823DB007A68CA50BD4602B080BD07
:10B960000010014080B586B000AF7860284B1B689E
:10B97000002B03D1264B7A681A6045E07B681A6871
:10B98000234B1B681B689A4210D8214B1B68204A26
:10B99000126811687A6812688A1A1A601C4B1A6851
:10B9A0007B68DA611A4B7A681A602DE07B681B6845
:10B9B000FB60174B1B687B61154B1B683B6109E003
:10B9C0003B691B68FA68D31AFB603B697B613B6982
:10B9D000DB693B613B69002B04D03B691A68FB685B
:10B9E0009A42EDD33B69002B05D03B691A68FB688E
:10B9F000D21A3B691A607B68FA681A607B683A69F8
:10BA0000DA617B697A68DA61BD4606B080BDC046FE
:10BA1000501F002080B586B000AF7860214B1B68B6
:10BA20007B617B693B6109E03A697B689A4200D19E
:10BA300007E03B697B613B69DB693B613B69002B4C
:10BA4000F2D13B69002B00D128E07A693B699A4228
:10BA500011D1144B1B68DA69124B1A60114B1B6829
:10BA6000002B08D1104B01229A60104B00221A6063
:10BA70000F4B01221A703B691B68FB603B69DA6956
:10BA80007B69DA617B69DB693B613B69002B05D02F
:10BA90003B691A68FB68D2183B691A60BD4606B05C
:10BAA00080BDC046501F002000100140541F0020E0
:10BAB000691F002080B500AF1120FFF79BFDBD4638
:10BAC00080BDC04680B500AF1420FFF793FDBD4692
:10BAD00080BDC04680B584B000AF7860114B1B6854
:10BAE000002B15D00F4B1A687B6859697B689B69DE
:10BAF000081C191C9047031CFB60FB68BB60BB68FB
:10BB0000002B04D0BB68181CFFF78CFB06E005E097
:10BB10007B685A697B689B69181C9047BD4604B0D6
:10BB200080BDC046641F002080B584B000AF2B4BA1
:10BB30001B68002B4FD000237B60FFF7EBFE021C3D
:10BB4000274B1B68101C191CFFF7F0FE031CBB6081
:10BB5000224B1B68FB601FE0FB681A68BB689A42B7
:10BB600000D91CE0FB681B68BA68D31ABB60FB688D
:10BB70001B687A68D3187B60FB683B60FB68DB69F5
:10BB8000FB603B681B7C002B06D03B6800221A74CC
:10BB90003B68181CFFF79EFFFB68002BDCD1114BA4
:10BBA0001A78114B1B789A420CD10F4B1B7801333A
:10BBB000DAB20D4B1A700C4B1B78022B02D10A4BD8
:10BBC00000221A70084B1B781A1C084B92007968E7
:10BBD000D150FFF777FFBD4604B080BD501F002055
:10BBE000541F0020601F0020611F0020581F0020EC
:10BBF00080B582B000AF7860184B1A78184B1B786C
:10BC00009A4223D0154B1B780133DAB2134B1A70CA
:10BC1000124B1B78022B02D1104B00221A700F4BD3
:10BC20001B781A1C0F4B9200D2587B681A607B68F5
:10BC30001A680D4B1B68D2180B4B1A600A4B1B6815
:10BC40001B021A0A084B1A60012303E07B680022DA
:10BC50001A600023181CBD4602B080BD601F002082
:10BC6000611F0020581F0020541F002080B586B09F
:10BC700000AF364B1B683B611723FB18344A127820
:10BC80001A704EE0334B1A681723FB181B78DB0041
:10BC9000D318FB601623FB18FA6812781A7039E083
:10BCA000FB6859681623FB181A78131C5B009B1855
:10BCB000DB00CB18BB601623FB181A781623FB1881
:10BCC00001321A70FB689B781622BA1812789A42D1
:10BCD00003D11623FB1800221A70BB681B78022BB5
:10BCE00002D0032B10D014E0BB685B68181CFFF770
:10BCF00091FE0FE0154B1B687B607B6800221A7475
:10BD00007B68DA69114B1A60104B1B68002BF1D16C
:10BD100000E0C046FB685B781622BA1812789A4297
:10BD2000BED11723FB181B781722BA18591E1170A1
:10BD3000002BA7D1054B1A683B69D31A5A1E9341B1
:10BD4000DBB2181CBD4606B080BDC046501F0020A7
:10BD5000481F00204C1F002080B588B000AFF8605D
:10BD6000B9607A600023FB6138E0204B1B68BB613F
:10BD7000BB691A68FB689A4206D9BB691A68FB68F6
:10BD8000D21ABB691A602DE0BB691B68FA68D31A26
:10BD9000FB60BB691B68FA69D318FB61BB690022B1
:10BDA0001A60124B1B687B61BB69DA690F4B1A6022
:10BDB000BB69DB68002B11D0BA68FB69D3181B0282
:10BDC0001A0ABB695A60BB69DA68BB699A607B680A
:10BDD0001A68BB69DA617B687A691A60034B1B6871
:10BDE000002BC2D1BD4608B080BDC046501F002008
:10BDF00080B588B000AF78605C4B1B687B611F2307
:10BE0000FB185B4A12781A709BE05A4B1A681F2382
:10BE1000FB181B78DB00D3183B6187E07B68002BA5
:10BE200005D07B68BB61BB69DB697B603CE03B693B
:10BE30005A683B691B78191C0B1C5B005B18DB0004
:10BE4000D318FB603B691B780133DAB23B691A7087
:10BE50003B691A783B699B789A4202D13B69002280
:10BE60001A70FB685B68BB61FB681B78012B03D110
:10BE7000BB691B7C002B00D058E0FB689A68BB694B
:10BE80005A60FB68DA68BB699A60FB681A69BB692B
:10BE9000DA60FB685A69BB699A61374B1B78002BE3
:10BEA00002D0BB6900225A60BB695A68334B1B68D9
:10BEB000D31A1B021B0A324A93420ED8BB695A6836
:10BEC0002E4B1B68101C191CFFF730FD021CBB69B0
:10BED0009B68D218BB691A6018E0284B1A68BB69C6
:10BEE0005B68101C191CFFF721FD031CBB60BB69BC
:10BEF0009A68BB689A4206D9BB699A68BB68D21A2D
:10BF0000BB691A6002E0BB6900221A60BB690022AB
:10BF10005A60BB6900229A60BB6901221A74BB692E
:10BF20000022DA61BB69181CFFF71CFD7B68002B3F
:10BF300000D073E73B691A783B695B789A4200D07E
:10BF40006CE71F23FB181B781F22BA18591E1170AB
:10BF5000002B00D059E7054B1A687B69D31A5A1E8B
:10BF60009341DBB2181CBD4608B080BD501F0020B5
:10BF7000481F00204C1F0020691F0020541F002074
:10BF8000FEFF7F0090B589B000AF7860334B1B682F
:10BF9000002B5DD0314B1B681B68FB61FFF7BAFCBF
:10BFA000031CBB612E4B1B687B61BA697B69101C4B
:10BFB000191CFFF7BBFC031C03333B61294B1B78A7
:10BFC00001225340DBB2002B01D0FFF723FCFA69BA
:10BFD0003B69934200D2131C7A69D3187B617B6959
:10BFE0001B021B0A7B617B69181CFFF7ADFCFFF786
:10BFF00091FC031CFB60FA68BB69101C191CFFF75D
:10C0000095FC031CDC1C7A69BB69101C191CFFF72A
:10C010008DFC031C9C421AD9FFF77CFC031C181CE6
:10C02000FFF792FC2F23BB60BB68181C0138C04689
:10C03000C046C046C046C046C046C046C046C046D0
:10C04000C046C046C046F1D1FFF734FD02E001E032
:10C05000FFF714FCBD4609B090BDC046501F00203C
:10C06000541F0020681F002090B587B000AF002348
:10C070007B601F4B1B683B611E4B1B68FB600B23E7
:10C08000FC183B1C181CFFF7B3FD031C237017237F
:10C09000FC18FFF7EBFD031C23700B23FB181B7828
:10C0A000002B0BD039683A693B1D081C111C1A1C67
:10C0B000FFF752FE1723FB1801221A707B68181C29
:10C0C000FFF796FE031E03D01723FB1801221A70F8
:10C0D0001723FB181B78002B03D0FB68181CFFF7F5
:10C0E00051FF054B00221A70BD4607B090BDC046F7
:10C0F000541F0020501F0020691F002080B582B00F
:10C1000000AF78600A1CFB1C1A707B68FA1C12785E
:10C110005A70BD4602B080BD80B584B000AF786073
:10C1200039607B685A780F23FB1801321A707B68DC
:10C130009B780F22BA1812789A4203D10F23FB186A
:10C1400000221A707B681B780F22BA1812789A4264
:10C1500001D1002310E03B680F22BA1812781A7040
:10C160007B685A687B685B78191C0B1C5B005B184A
:10C17000DB00D318BB60BB68181CBD4604B080BD93
:10C1800080B586B000AFF860B9607A603B601C4B48
:10C190001A68FB68DB00D2181323FB18101C191C4B
:10C1A000FFF7BAFF031C7B617B69002B01D10423DD
:10C1B00022E07B6901221A707B69BA685A60FFF736
:10C1C000A9FB021C7B699A607B697A68DA607B69EB
:10C1D0003A681A617B693A6A5A61094B1A68FB68C6
:10C1E000DB00D2181323FB181B78101C191CFFF757
:10C1F00085FFFFF767FC0023181CBD4606B080BD15
:10C200004C1F002080B500AF104AA0235B00002126
:10C21000D1500E4AA2235B000021D1500B4AA42327
:10C220005B000021D150094AA6235B000021D150B8
:10C23000064A80235B000021D150044A82235B0020
:10C240000021D150FFF770FCBD4680BD00100140B9
:10C2500080B500AFFFF708FFBD4680BD80B586B052
:10C2600000AFF8607A603B600B23FB180A1C1A7061
:10C270007B68181CFFF790FA031C1A1C012353401B
:10C28000DBB2002B01D007235AE07B68002B04D1DE
:10C290002D4B00221A60072352E0FFF7EFFA2B4BD9
:10C2A0003A681A602A4B03221A70274B7A681A6080
:10C2B0007B6818337B6000237B6121E0224B1A6886
:10C2C0007B69DB00D3183B613B6900221A703B6934
:10C2D00000225A703B690B22BA1812789A703B6997
:10C2E0007A685A600B23FB181A78131C5B009B18A2
:10C2F000DB001A1C7B689B187B607B6901337B61C8
:10C300007B69022BDADD134B00221A60124B0022EC
:10C310001A70124B00221A701420FFF781F91420B2
:10C320000321FFF793F91420FFF738F9FB68181C75
:10C33000FFF75EFAFFF7EEFA021C094B1A600023C2
:10C34000181CBD4606B080BD4C1F0020641F002095
:10C35000481F0020501F0020601F0020611F002088
:10C36000541F002080B586B000AFF8607A600B23C0
:10C37000FB180A1C1A70154B1B68002B01D10823EF
:10C380001FE07B68002B01D107231AE0FB68002B1C
:10C3900001D1072315E0FB681B681B7C002B01D033
:10C3A00008230EE0FB681B687B617B6900221A741E
:10C3B0007B690B22BA1812785A747B697A685A61C1
:10C3C0000023181CBD4606B080BDC0464C1F00208F
:10C3D00080B582B000AFFFF7EDF9031E012B02D04C
:10C3E000032B03D005E000237B6005E001237B6085
:10C3F00002E002237B60C0467B68181CBD4602B089
:10C4000080BDC04690B589B002AFF860B9607A606F
:10C41000FB687B61164B1B68002B01D1082322E0CF
:10C42000FB68002B01D108231DE0BB68042B01D859
:10C43000072318E07B695B69002B01D1082312E018
:10C440007B695B7C012B01D1BB6800E000233B6171
:10C45000FFF7BEFF7969BA683C697B680093231CCB
:10C46000FFF78EFE031C181CBD4607B090BDC046EA
:10C470004C1F002080B584B000AF78607B689B685B
:10C48000FB607B68DA68FB68D31A181CBD4604B0F1
:10C4900080BDC04680B586B000AF786039607B68EB
:10C4A0001B78012B3CD17B685B681B783B4A101CD6
:10C4B000191CFEF779FF031C7B617B69002B0ED0F2
:10C4C0000C23FB1801221A700C23FB187A695A609E
:10C4D000334B1B680C22BA18101C984710E02F4BE6
:10C4E000181CFFF7C7FF031E012B09D10C23FB18F3
:10C4F00000221A702A4B1B680C22BA18101C98478D
:10C50000264B181CFFF7B6FF021C244B9B889A424F
:10C5100005D8244B181C012101F012F83AE039E04B
:10C520007B681B78022B14D10C23FB1802221A7093
:10C530007B68DA680C23FB185A601A4B181C01211F
:10C5400000F0FEFF164B1B680C22BA18101C98470F
:10C5500020E07B681B78002B1CD1134A134B101C66
:10C56000191CFEF73FFF031E04D1104B181C0121BC
:10C5700000F0C8FE0C4B181CFFF77CFF031E09D10E
:10C580000C23FB1803221A70054B1B680C22BA18E7
:10C59000101C9847BD4606B080BDC046781F0020DD
:10C5A0006C1F0020741F0020881F0020701F0020B7
:10C5B00090B58FB000AFF860B9607A601A1CFB1CB0
:10C5C0001A70424B7A681A60BB68002B01D10723AE
:10C5D00077E0BB681A68BB685B689BB23C49081C83
:10C5E000111C1A1CFEF7B2FE031C7B637B6B002B35
:10C5F00001D07B6B65E0BB689A68BB68DB689BB267
:10C600003449081C111C1A1CFEF7A0FE031C7B6396
:10C610007B6B002B01D07B6B53E01423FB182E4A5D
:10C6200013CA13C313CA13C303CA03C3FB689A68AC
:10C630001423FB189A61FB681B795A1E9341DBB2E5
:10C640001A1C1423FB181A751423FB18FA1C1278F1
:10C650001A77FB685B79002B01D00E2200E00022E4
:10C660001423FB185A75FB68DB781A1C1423FB187B
:10C670009A60FB689B781A1C1423FB18DA60FB682D
:10C680001B781A1C1423FB185A60FB685B781A1C71
:10C690001423FB181A601423FA18104B101C191CD1
:10C6A00000F060FD031C7B637B6B002B01D07B6B78
:10C6B00007E000F0A5FF0A4B181C012100F040FF25
:10C6C000031C181CBD460FB090BDC0466C1F002057
:10C6D000781F0020881F00203464020095C40100E8
:10C6E000741F002080B582B000AF0D4B181CFEF700
:10C6F000B5FE031C7B607B68002B01D07B680BE0E0
:10C70000084B181CFEF7AAFE031C7B607B68002BFD
:10C7100001D07B6800E00023181CBD4602B080BD3C
:10C72000781F0020881F002080B584B000AF78609B
:10C730000F4B181CFFF79EFE021C0D4B9B889A4264
:10C740000BD10C4B181C012100F0FAFE031CFB60FE
:10C75000FB68002B01D0052306E0054A7B68101C0E
:10C76000191CFEF73FFE031C181CBD4604B080BD1B
:10C77000781F0020741F002080B584B000AF021C19
:10C78000FB1D1A70144AFB1D1B78101C191CFEF7A8
:10C790000BFE031CFB60FB68002B17D100F0D2FDE1
:10C7A000031C1A1C01235340DBB2002B0ED00A4A93
:10C7B0000A4B101C191CFEF715FE031E06D1074B71
:10C7C000181C012100F09EFD031CFB60FB68181C77
:10C7D000BD4604B080BDC046881F0020701F0020E9
:10C7E00080B582B000AF021CFB1D1A70064BFA1D0B
:10C7F0001278111C1F220A40012191400A1C1A6064
:10C80000BD4602B080BDC04600E100E080B582B008
:10C8100000AF021CFB1D1A700649FB1D1B781A1C79
:10C820001F23134001229A40C0235B00CA50BD461B
:10C8300002B080BD00E100E0B0B582B000AF021CE4
:10C840003960FB1D1A70FB1D1B787F2B2FD92D4CD7
:10C85000FB1D1B781A1C0F231340083B9908294A1B
:10C86000FB1D1B78181C0F230340083B9B08063355
:10C870009B00D3185B68FA1D1278101C032202403B
:10C88000D200101CFF228240D2431A403B689B0119
:10C89000FF200340F81D0078051C03202840C0003D
:10C8A00083401A438B1D9B00E3185A6026E0164C08
:10C8B000FB1D1B785BB29B081349FA1D127852B21C
:10C8C0009208C03292005258F91D0978081C0321C1
:10C8D0000140C900081CFF218140C94311403A684A
:10C8E0009201FF200240F81D0078051C032028401B
:10C8F000C00082400A43C0339B001A51BD4602B0BB
:10C90000B0BDC04600ED00E000E100E080B582B0BF
:10C9100000AF021CFB1D1A70BB1D0A1C1A70BB1D48
:10C920001A78FB1D1B785BB2181C111CFFF784FFE3
:10C93000FB1D1B785BB2181CFFF768FFFB1D1B7803
:10C940005BB2181CFFF74CFFBD4602B080BDC0466D
:10C9500080B582B000AF021CBB1D1A80BB1D1B88B6
:10C96000181C00F01DF8031C1B68013B5A42534180
:10C97000DBB2181CBD4602B080BDC04680B582B097
:10C9800000AF021CBB1D1A80BB1D1B88181C00F0C9
:10C9900007F8031C00221A60BD4602B080BDC046E5
:10C9A00080B582B000AF021CBB1D1A80BB1D1B8866
:10C9B000034A94466344181CBD4602B080BDC0467D
:10C9C0000060004080B582B000AF7860044AC123A7
:10C9D0009B00D3587A681340181CBD4602B080BD36
:10C9E0000060004080B582B000AF7860064A7B6886
:10C9F0004533FF339B009A58F8235B0113401B0A11
:10CA0000181CBD4602B080BD0060004080B582B0F9
:10CA100000AF7860074A7B684533FF339B009A5824
:10CA2000C0239B0213401B0CDBB2181CBD4602B096
:10CA300080BDC0460060004080B582B000AF786025
:10CA40000A1CFB1C1A70A023DB05A022D205796802
:10CA5000C131FF3189008A580D4911407A68C132CD
:10CA6000FF329200D150A023DB05A022D2057968C5
:10CA7000C131FF3189008A58F91C09780904114332
:10CA80007A68C132FF329200D150BD4602B080BDFB
:10CA9000FFFFFCFF80B500AFA023DA05A223DB0077
:10CAA000D358181CBD4680BD80B582B000AF7860F9
:10CAB000A023DB057A68C132FF329200D258C0232E
:10CAC0009B0213401B0CDBB2181CBD4602B080BD9C
:10CAD00080B582B000AF7860054A20217B68D3180A
:10CAE0005B181B785BB2181CBD4602B080BDC04607
:10CAF000981F002080B582B000AF7860034B7A6841
:10CB00009200D358181CBD4602B080BD981F00206B
:10CB100090B593B000AF00237B6400233B643A23BD
:10CB2000FB18802252001A8001237B630023FB63E1
:10CB300024E03A23FB181B88181CFFF709FF031E8B
:10CB40000FD07B6B181CFFF73DFF031E09D03A2363
:10CB5000FB181B88181CFFF711FF7A6C7B6B1343C3
:10CB60007B647B6B5B007B633A23FB183A22BA1829
:10CB7000128804321A80FB6B0133FB63FB6B032BBF
:10CB8000D7D9BE235B00181CFFF7E2FE031E0DD0B1
:10CB9000BE235B00181CFFF7F1FE7B6C802212069F
:10CBA00013437B64FFF776FF031C3B647B6C0F220F
:10CBB00013402DD001237B630023FB6325E07B6BB7
:10CBC0007A6C13401BD0FB6B181CFFF70BFF031C88
:10CBD0007B622323FC18FB6B181CFFF717FF031C59
:10CBE0002370FB6B181CFFF785FF031CFB61796A40
:10CBF0002323FB181A78FB69081C111C98477B6BD0
:10CC00005B007B63FB6B0133FB63FB6B032BD6D9B0
:10CC10007B6C002B00DBBEE03323FB1800221A7074
:10CC20000023FB6201235B42BB623323FB1800221B
:10CC30001A700023FB638EE0584A4021FB6BD31827
:10CC40005B181A781B23FB181A701B23FB181B7820
:10CC5000C02293437B61514A4021FB6BD3185B1880
:10CC60001B785BB2013300D172E07B69BA6ADA40AB
:10CC7000131C0122134000D16AE01323FB181B226E
:10CC8000BA18127892091A707B69181CFFF720FFF6
:10CC9000031C181CFFF72EFF031CFB60FB68002B16
:10CCA00004D11323FB181B78032B51D17B6901227C
:10CCB0009A40131C7B631323FB181B78032B03D1AF
:10CCC000FA6A7B6B1343FB620B23FC187B69181C0D
:10CCD000FFF7EAFE031C23707B6B3A6C134004D011
:10CCE0000B23FB181B78022B08D07B6B3A6C13408C
:10CCF0002ED10B23FB181B78032B29D11323FB18F0
:10CD00001B78032B19D10B23FB181B78022B01D1A5
:10CD1000032200E002220A23FB181A707A690A2310
:10CD2000FB181B78101C191CFFF786FE3323FB1819
:10CD30003322BA18127801321A70FB68002B07D020
:10CD400079691323FB181A78FB68081C111C984793
:10CD5000FB6B0133FB63FB6B032B00D86CE73323C6
:10CD6000FB181B78002B10D0FFF794FE031C7B6090
:10CD70007A683B6C9A4204D13323FB1800221A7064
:10CD800003E07B683B64FB6ABB623323FB181B78C0
:10CD9000002B00D049E7BD4613B090BD981F00207E
:10CDA00080B582B000AF78600A1CBB1C1A80BB1C27
:10CDB0001B887A68D31800221A60BD4602B080BD75
:10CDC00080B582B000AF78600A1CBB1C1A80BB1C07
:10CDD0001B887A68D3181B685A1E9341DBB2181C53
:10CDE000BD4602B080BDC04680B582B000AF78605D
:10CDF00039607A68C1239B003968D150BD4602B0C2
:10CE000080BDC04680B582B000AF786039607A6876
:10CE1000C1239B00D3583A6813405A1E9341DBB29A
:10CE2000181CBD4602B080BD80B582B000AF7860EE
:10CE300039607A68C2239B003968D150BD4602B080
:10CE400080BDC04680B584B000AF78607A6890231A
:10CE5000DB00D358FB607A689023DB00F968D1507F
:10CE6000FB68181CBD4604B080BDC04680B582B0CA
:10CE700000AF78607A68A023DB000421D150BD4662
:10CE800002B080BD80B584B000AFF860B9607A6050
:10CE9000FB680549BA685A50FB6804497A685A50D9
:10CEA000BD4604B080BDC0460C050000140500005E
:10CEB00080B584B000AFF860B9607A60FA68A123E9
:10CEC000DB00B968D150FA68A223DB007968D15041
:10CED000BD4604B080BDC04680B582B000AF78606A
:10CEE0007A68A323DB00D358DBB2181CBD4602B01E
:10CEF00080BDC04680B582B000AF78600A1CFB1CC4
:10CF00001A70FB1C1A787B6802495A50BD4602B061
:10CF100080BDC0461C05000080B582B000AF7860BF
:10CF20000A1CFB1C1A70FB1C1B787A68D3180122A0
:10CF30001A60BD4602B080BD80B582B000AF786097
:10CF4000081C111CFB1C021C1A70BB1C0A1C1A704A
:10CF5000FA1CBB1C12781B781343DBB2191C7B68CC
:10CF6000024A9950BD4602B080BDC0466C05000023
:10CF700080B582B000AF786039607B6802493A685A
:10CF80005A50BD4602B080BD2405000090B583B064
:10CF900000AF78600C1C101C191CFB1C221C1A70A2
:10CFA000BB1C021C1A707B1C0A1C1A70A023DB0518
:10CFB000FA1C1178BA1C1278520011437A1C1278AC
:10CFC000920011431822BA181278120211431C223F
:10CFD000BA181278120411437A68C132FF329200F3
:10CFE000D150BD4603B090BD80B584B002AF78602B
:10CFF0007A680023009300230193101C0121012271
:10D000000023FFF7C3FFBD4602B080BD90B585B0D9
:10D0100002AF78600A1CFB1C1A707A68FB1C1C7833
:10D020000023009300230193101C00210022231CE5
:10D03000FFF7ACFFBD4603B090BDC04680B582B0DF
:10D0400000AF7860A023DA057B6801219940A12315
:10D05000DB00D150BD4602B080BDC04680B582B075
:10D0600000AF78607B681B68181CFFF7E7FF7B68E0
:10D070001B68181CFFF7B8FF7B685B68181C002151
:10D08000FFF7C4FF7B689B691C4A101C191CFFF743
:10D090006FFF7B685A7D7B681B7D1849081C111C3B
:10D0A0001A1CFFF749FF7B681A687B685B681349A5
:10D0B000081C111C1A1CFFF7E5FE7B681B7D012B69
:10D0C00019D17B689B68181C0021FFF79FFF7B68C4
:10D0D000DB68181CFFF7B2FF7B68DB68181CFFF7E2
:10D0E00083FF7B68DA687B689B680449081C111C15
:10D0F0001A1CFFF7DDFEBD4602B080BD00200040D7
:10D1000080B582B000AF021CFB1D1A700E4A8E2340
:10D110005B00101C191CFFF743FE0B4AA2235B00A7
:10D12000101C191CFFF73CFE074A084B101C191C69
:10D13000FFF75AFEFB1D1B780220191CFFF7E6FBC8
:10D14000BD4602B080BDC046002000408000020005
:10D1500080B500AF024B181CFFF788FEBD4680BDAE
:10D160000020004080B582B000AF786039601A4B73
:10D17000DB7E002B01D008232AE07B68002B01D145
:10D18000164B7B607B68181CFFF768FF124B3A68F0
:10D190005A607B681A69104B1A600F4B5B68002B52
:10D1A00004D07B681B7F181CFFF7AAFFFFF7D0FF96
:10D1B000094B0022DA75084B00221A76064B002232
:10D1C0009A75054B0122DA76034B00229A760023EA
:10D1D000181CBD4602B080BDE01F00205464020050
:10D1E00080B582B000AF104A8E235B00101C191C62
:10D1F000FFF7D6FD0D4B9B680C4A928A92B29A18A3
:10D20000FB1D12781A70094B9B8A9BB201339AB2AC
:10D21000064B9A82044AFB1D1B78101C191CFFF751
:10D2200069FEBD4602B080BD00200040E01F002026
:10D2300080B582B000AF00237B60304A8E235B0054
:10D24000101C191CFFF7ACFD2C4B181C0821FFF714
:10D2500063FEFFF7C5FF2A4B5B68002B48D11EE039
:10D26000C046264A8E235B00101C191CFFF7A8FD40
:10D27000031C1A1C01235340DBB2002B06D0204BA9
:10D280009B8A9AB280235B009A42EAD11C4B9B8A0C
:10D290009AB280235B009A4201D0FFF7A1FF184B9E
:10D2A0009B8A9AB2164B9B7D9BB29A42D8D3144B61
:10D2B0009B8A9AB280235B009A4202D10F237B6043
:10D2C00013E0C0460D4A8E235B00101C191CFFF7AB
:10D2D00077FD031C1A1C01235340DBB2002BF1D154
:10D2E000064B181C0C21FFF717FE054B00229A7500
:10D2F0007B68181CBD4602B080BDC04600200040BF
:10D30000E01F002080B582B000AF78600A1CFB1CD3
:10D310001A7000F017F8031E01D011230CE0084B1F
:10D32000FA1C12789A75064B7A689A60044B0022B0
:10D330009A82FFF77DFF031C181CBD4602B080BD1A
:10D34000E01F002080B500AF034B9B7D5A1E934128
:10D35000DBB2181CBD4680BDE01F002080B500AFC9
:10D360000A4A92235B00101C191CFFF719FD074A9B
:10D3700084235B00101C191CFFF712FD034B181CC3
:10D380000021FFF7C9FDBD4680BDC046002000401A
:10D3900098B500AF154BDB7D002B0BD1144A8423CD
:10D3A0005B00101C191CFFF7FBFC114B181CFFF74E
:10D3B00093FD19E00E4A84235B00101C191CFFF733
:10D3C000EFFC0A4BDB68094A527ED2B29C18084B2C
:10D3D000181CFFF781FD031C2370044B5B7EDBB23E
:10D3E0000133DAB2014B5A76BD4698BDE01F0020EA
:10D3F0000020004090B585B000AF7860081C111C7B
:10D40000FB1C021C1A70BB1C0A1C1A704A4B9B7E28
:10D4100001225340DBB2002B08D0BB1C1B78012239
:10D420005340DBB2002B01D0FFF798FF424B5B6803
:10D43000002B00D073E0414AA2235B00101C191C92
:10D44000FFF7AEFC0F23FC183C4A92235B00101C34
:10D45000191CFFF7B5FC031C23700E23FC18374A78
:10D4600084235B00101C191CFFF7AAFC031C23700B
:10D470000D23FC18314AA2235B00101C191CFFF776
:10D480009FFC031C23700E23FB181B7801225340C2
:10D49000DBB2002B0FD00D23FB181B780122534069
:10D4A000DBB2002B07D00F23FB181B78012253405F
:10D4B000DBB2002BC6D10F23FB181B78002B0DD13C
:10D4C0000D23FB181B78002B08D1FFF761FF1A4BC7
:10D4D000DA7D194B5B7EDBB29A42B3D8164B002241
:10D4E000DA750F23FB181B78002B01D003231EE0F5
:10D4F0000D23FB181B78002B01D00F2317E00E4BD8
:10D500009B7E002B05D00D4B181C0021FFF704FD5E
:10D510000CE00A4B181C0421FFF7FEFC06E0074A4A
:10D5200081239B00101C191CFFF75EFC0023181CB4
:10D53000BD4605B090BDC046E01F00200020004061
:10D5400080B584B000AF78600A1CFB1C1A700F23F2
:10D55000FB1800221A70284B5B68002B06D0274A64
:10D5600081239B00101C191CFFF75EFC224BDB7D06
:10D57000002B14D0204B1B7E002B0CD01E4B5B6865
:10D58000002B06D01D4A81239B00101C191CFFF79D
:10D590002BFC11232CE00F23FB1801221A700F2300
:10D5A000FB181B7801225340DBB2002B0DD0124B2D
:10D5B000FA1C1278DA75104B7A68DA600E4B00228A
:10D5C0005A760D4B00221A7606E00B4B7A681A61E8
:10D5D000094BFA1C12781A767968FB1C1A780F230B
:10D5E000FB181B78081C111C1A1CFFF703FF031CF7
:10D5F000181CBD4604B080BDE01F00200020004084
:10D6000080B500AF064B9B7E01225340DBB2002B5E
:10D6100004D0FFF7A3FE024B01229A76BD4680BDDF
:10D62000E01F002080B586B000AF021C3960FB1DF2
:10D630001A700823FB1801221A700823FB18FA1D20
:10D6400012781A720823FB183A685A60054B5A6818
:10D65000044B1B6808217918081C191C9047BD460B
:10D6600006B080BDE01F002080B586B000AF021C70
:10D67000FB1D1A700823FB1800221A700823FB18E0
:10D68000FA1D12781A720A4B9A680823FB185A601E
:10D69000074B00229A75064B5A68054B1B680821F8
:10D6A0007918081C191C9047BD4606B080BDC046BD
:10D6B000E01F002080B586B000AF7C4A80239B002D
:10D6C000101C191CFFF79EFB031E43D0774A9223C0
:10D6D0005B00101C191CFFF773FB031E3AD0734A42
:10D6E00092235B00101C191CFFF75AFB6F4A812321
:10D6F0009B00101C191CFFF797FB6D4B9B7E0122B2
:10D700005340DBB2002B04D0684B181C0421FFF7F8
:10D7100003FC3B1C02221A70644B181CFFF792FB9F
:10D72000021C3B1CDA60624BDA7D3B1C1A72604BB8
:10D73000DA683B1C5A605E4B0022DA755C4B0022B3
:10D740001A765B4B5A685A4B1B68391C081C191C0B
:10D7500090475AE0554B181C0421FFF753FB031E5A
:10D7600053D0524A84235B00101C191CFFF728FB7E
:10D77000031E4AD0FFF70CFE4D4BDA7D4C4B5B7E0F
:10D78000DBB29A4241D14A4B1B7E002B1ED0484B44
:10D79000DB687B611323FB18454A527E1A70444BA9
:10D7A0001A7E434BDA75424B1A69414BDA60404BA3
:10D7B00000221A763E4B00225A761323FB181A7861
:10D7C0007B69101C191CFFF72DFF1EE0384B9B7E58
:10D7D00001225340DBB2002B04D0344B181C04212F
:10D7E000FFF79AFB314A81239B00101C191CFFF79D
:10D7F0001BFB2F4B0022DA752D4B5B7EDAB22C4BD4
:10D80000DB68101C191CFFF70DFF284A8E235B00F4
:10D81000101C191CFFF7D4FA031E1AD0244B9B8A44
:10D820009AB2234B9B7D9BB29A4202D2FFF7D8FC5F
:10D830000FE01E4A8E235B00101C191CFFF7B0FA84
:10D840001B4B9B7D002B04D0194B9B7D181CFFF7B5
:10D850000BFF164AA2235B00101C191CFFF7B0FA3D
:10D86000031E1FD0114AA2235B00101C191CFFF7D6
:10D8700097FA0F4B9B7E002B04D00C4B181C0021F9
:10D88000FFF74AFB0A4BDB7D002B0BD0084B002235
:10D89000DA75074B5B7EDAB2054BDB68101C191C8E
:10D8A000FFF7C0FEBD4606B080BDC0460020004068
:10D8B000E01F002080B500AFFFF7FCFEBD4680BD35
:10D8C00080B582B000AF78600A1CFB1C1A70FB1C8C
:10D8D0001B787A68D31801221A60BD4602B080BD59
:10D8E00080B582B000AF78600A1CBB1C1A80BB1CDC
:10D8F0001B887A68D31800221A60BD4602B080BD2A
:10D9000080B582B000AF78600A1CBB1C1A80BB1CBB
:10D910001B887A68D3181B685A1E9341DBB2181C07
:10D92000BD4602B080BDC04680B582B000AF786011
:10D9300039607A6880239B00D2583B681A43111CD7
:10D940007A6880239B00D150BD4602B080BDC0469E
:10D9500080B582B000AF786039607A68C1239B00DF
:10D960003968D150BD4602B080BDC04680B582B096
:10D9700000AF78607A68A023DB000221D150BD4659
:10D9800002B080BD80B584B000AFF860B9607A6045
:10D990003B60FA68A123DB00B968D150FA68A22382
:10D9A000DB007968D150FB6804493A685A50FB683B
:10D9B0000349BA695A50BD4604B080BD0C05000049
:10D9C0001405000080B584B000AFF860B960FB1D9D
:10D9D0001A70BA68FB6805495A50FB1D1978FA6835
:10D9E000A923DB00D150BD4604B080BD4405000032
:10D9F00080B584B000AFF860B960FB1D1A70BA68DA
:10DA0000FB6805495A50FB1D1978FA68A723DB000B
:10DA1000D150BD4604B080BD3405000080B582B051
:10DA200000AF78607B68034A9B58DBB2181CBD4688
:10DA300002B080BD3C05000080B582B000AF7860C8
:10DA40007B68034A9B58DBB2181CBD4602B080BD00
:10DA50004C05000080B584B000AF7860081C111C34
:10DA6000FB1C021C1A70BB1C0A1C1A70BB1C1B7806
:10DA70005A1E9341DBB2FB60FB1C1B78022B09D0C2
:10DA8000032B0CD0012B00D00EE0FB6802221343C5
:10DA9000FB6009E0FB6804221343FB6004E0FB68C1
:10DAA00006221343FB60C0467B680349FA685A505C
:10DAB000BD4604B080BDC0465405000080B582B0AC
:10DAC00000AF78600A1CFB1C1A70FB1C19787A687E
:10DAD000B823DB00D150BD4602B080BD80B582B016
:10DAE00000AF78600A1CFB1C1A70FB1C1A787B685C
:10DAF00002495A50BD4602B080BDC0465C050000D8
:10DB000090B583B000AF78600C1C101C191CFB1C76
:10DB1000221C1A70BB1C021C1A707B1C0A1C1A7077
:10DB2000A023DB05FA1C1178BA1C127852001143AD
:10DB30007A1C1278920011431822BA181278120235
:10DB400011431C22BA181278120411437A68C132A8
:10DB5000FF329200D150BD4603B090BD80B582B077
:10DB600000AF78607B685B0F5B07E022120694468B
:10DB700063445A425341DBB2181CBD4602B080BD1B
:10DB800090B58BB002AFF860B9607A60FB681B7922
:10DB90001A1C131C5B009B18DB00714A9B187B61ED
:10DBA000FB681B683B617B691B7D002B01D0082350
:10DBB000D1E0BB68002B09D1FB681B791A1C131C30
:10DBC0005B009B18DB00674A9B18BB60BB681B7C33
:10DBD000032B01D90723BEE07B68002B01D10E2364
:10DBE000B9E0BB681B68FF2B10D0BB681A68BB6824
:10DBF000DB7C009300230193101C002100220023F2
:10DC0000FFF77EFFBB681B68BB6102E001235B423C
:10DC1000BB61BB685B68FF2B0FD0BB685A680023F1
:10DC2000009300230193101C002100220023FFF722
:10DC300067FFBB685B68FB6102E001235B42FB613D
:10DC4000BB68DA68BB689C7C0023009300230193C7
:10DC5000101C00210022231CFFF752FFBB689A68AA
:10DC60000023009300230193101C002100220023B5
:10DC7000FFF746FFBB689968BB68DB683869FA69DB
:10DC8000BC690093231CFFF77DFE3B69181C002133
:10DC90000022FFF7ADFE3B69181C00210022FFF7B0
:10DCA00091FEBB681A7CBB685B7C3969081C111C3F
:10DCB0001A1CFFF7CFFEBB681B7D3A69101C191CAC
:10DCC000FFF70CFFBB685B7D3A69101C191CFFF75E
:10DCD000F5FE3A6982235B00101C191CFFF700FE59
:10DCE0003A6994235B00101C191CFFF7F9FD3B698E
:10DCF000181C0421FFF718FEFB681B79191C184A31
:10DD00000B1C5B005B18DB00D318103300225A7128
:10DD1000FB681B79191C124A0B1C5B005B18DB00AB
:10DD2000D31808337A681A603B690F4A181C111C13
:10DD3000FFF70EFEFB685A79BB689B7D52B2101C40
:10DD4000191CFEF7E3FD7B6901221A753B69181C5B
:10DD5000FFF70CFE0023181CBD4609B090BDC0465D
:10DD6000FC1F0020746402000204000090B589B01A
:10DD700000AF786039603B685B7DDBB2022B0AD074
:10DD8000032B29D0012B00D051E07B68181C2421E3
:10DD9000FFF796FD4BE00C23FB1800221A700C23B2
:10DDA000FB1800225A600C23FB1800229A603B6883
:10DDB0009B685A1E9341DBB2FB61FB69002B02D1C9
:10DDC0000020FDF72FFA3B689C680C23FB181868AD
:10DDD00059689A68A0472AE00C23FB1801221A70A0
:10DDE0007B68181CFFF728FE031C1A1C0C23FB1869
:10DDF0005A607B68181CFFF711FE031C1A1C0C23C9
:10DE0000FB189A603B689B685A1E9341DBB2BB616A
:10DE1000BB69002B02D10020FDF704FA3B689C6827
:10DE20000C23FB18186859689A68A047C046BD467D
:10DE300009B090BD80B584B000AFF860B960FB1D3B
:10DE40001A70BB68FA1D12785A75FA68BB68101C04
:10DE5000191CFFF78BFFBD4604B080BD80B586B0AE
:10DE600000AFF860B9603B60FB1D1A70FB681B795E
:10DE70001A1C131C5B009B18DB002D4A9B183B618E
:10DE80003B68002B01D10E234EE0BB68002B01D173
:10DE90000E2349E0BB68002B0AD0BB68181CFFF7B3
:10DEA0005DFE031C1A1C01235340DBB2002B0DD175
:10DEB0003B68002B0CD03B68181CFFF74FFE031C7F
:10DEC0001A1C01235340DBB2002B01D010232BE09E
:10DED0003B695B7DDBB2012B1FD002DC002B02D043
:10DEE0001EE0032B1CDC3B69BA68DA603B693A68C8
:10DEF0001A61FB1D1A783B691A602023FB181A78F7
:10DF00003B695A6000237B61FB681A683B69101CFF
:10DF1000191C0122FFF78EFF05E008237B6102E058
:10DF200003237B61C0467B69181CBD4606B080BDDB
:10DF3000FC1F002080B582B000AF786039607A683D
:10DF400094235B00101C191CFFF7DAFC031E2FD072
:10DF50007A6894235B00101C191CFFF7C1FC3B6816
:10DF60005B7DDBB2012B00D022E03B68DA683B68C6
:10DF70001B68DBB27968081C111C1A1CFFF722FD14
:10DF80003B681A693B685B68DBB27968081C111C46
:10DF90001A1CFFF72DFD7B68181C2821FFF790FC49
:10DFA0007A683B68101C191C0222FFF743FFC04629
:10DFB0007A6882235B00101C191CFFF7A1FC031E6A
:10DFC00014D07A6882235B00101C191CFFF788FCB0
:10DFD0003B685B7DDBB2022B00D007E07A683B68D0
:10DFE000101C191C0322FFF725FFC046BD4602B0D6
:10DFF00080BDC04680B500AF034A044B101C191CFD
:10E00000FFF798FFBD4680BD00400040FC1F002088
:10E0100080B500AF80235B051B699BB2181CBD4611
:10E0200080BDC04680B582B000AF0B4B5B697B60A2
:10E030007B68013308D0FFF7EBFF031C7868191CDD
:10E0400006F034FF031C02E080235B055B69181CAB
:10E05000BD4602B080BDC0460010001080B582B041
:10E0600000AF78607B68032213405A425341DBB211
:10E07000181CBD4602B080BD29DF7047181CC04681
:10E0800028DF7047181CC04680B500AF0C4B1B78CA
:10E09000181C00F069FA0A4B5B78013BDAB2084BB6
:10E0A0005A70074B1B780133DAB2054B1A70044BD8
:10E0B0001B780A2B02D1024B00221A70BD4680BD8C
:10E0C0001420002080B500AF0A4B1B781A1C131CCB
:10E0D0009B009B189B00074A9B1804330020191CC7
:10E0E00000F01EFBFFF7D0FF002000F05DF9BD46F9
:10E0F00080BDC0461420002080B500AF044B002234
:10E100001A60044B00221A6000F0FEFABD4680BD82
:10E11000F82000200821002080B582B000AF786090
:10E120000A4B1B781A1C131C9B009B189B00074A68
:10E130009B1804337A68101C191C00F0F1FA0420B3
:10E1400000F032F9BD4602B080BDC0461420002068
:10E1500080B582B000AF78607B68002B0ED0112BA9
:10E1600006D1084B1B6808221A43064B1A6006E0CA
:10E170007B68181CFFF7D0FFC04600E0C046BD46D4
:10E1800002B080BD1021002080B584B000AFF860DF
:10E19000B9607A60F968BA687B68081C111C1A1C9F
:10E1A000FFF76AFF031C181CFFF7D2FFBD4604B03F
:10E1B00080BDC046B0B582B000AF284B1B781A1C9A
:10E1C000131C9B009B189B00244A9B1804337B6004
:10E1D0007B685C88FFF71CFF031C9C4224D97B688A
:10E1E0005B881C1CFFF714FF031CE31A3B607B6871
:10E1F000DB687A6892889A183B68D3181D1C7B6884
:10E200001A693B68D418FFF703FF031C9B089BB2F5
:10E21000281C211C1A1CFFF7B7FFFFF7F9FE031C8F
:10E220001A1C0F4B1A6015E07B68DB687A689288CD
:10E230009B18191C7B681A697B685B889B089BB2DA
:10E24000081C111C1A1CFFF79FFF7B685B881A1CB7
:10E25000034B1A60BD4602B0B0BDC046142000207A
:10E260000821002080B500AFFFF7A4FFBD4680BDA8
:10E2700090B585B000AF2A4B1B68012293431A1C4E
:10E28000274B1A60274B1B781A1C131C9B009B18EA
:10E290009B00244A9B180433FB60FB68DB68BB606F
:10E2A000FFF7B6FE031CB868191C06F0FFFD031C3F
:10E2B0007B601D4B7A681A60FB685B881A1CBB6820
:10E2C000D3185C1EFFF7A4FE031C201C191C06F0CB
:10E2D000EDFD031C3B607A683B689A4206D1104B07
:10E2E0001B6802221A430E4B1A6006E00C4B1B6897
:10E2F000022293431A1C0A4B1A600C4B1B68002B1A
:10E3000008D1074B1B680222134003D1022000F002
:10E3100019F902E0002000F015F9BD4605B090BDE6
:10E320001021002014200020F4200020EC200020E8
:10E3300080B582B000AF78607B68181CFFF7A0FE44
:10E34000031C181CFFF704FFBD4602B080BDC04689
:10E3500080B500AF034B1B68181CFFF7E9FFBD46F3
:10E3600080BDC046F420002080B500AF0D4B1B7867
:10E37000012B0BD002DC002B05D010E0022B08D0C3
:10E38000032B09D00BE0FFF7B7FE08E0FFF76AFFA9
:10E3900005E0FFF76DFF02E0FFF7DAFFC046BD467C
:10E3A00080BDC046E820002080B582B000AF021CCE
:10E3B000FB1D1A70044BFA1D12781A70FFF7D4FF78
:10E3C000BD4602B080BDC046E820002098B500AF31
:10E3D000FFF728FE031C5C1EFFF71AFE031C5C43BC
:10E3E000FFF716FE031C201C191C06F05FFD031C22
:10E3F000181CFFF79DFFBD4698BDC046B0B500AFE5
:10E40000FFF710FE031C5C1EFFF702FE031C6343B4
:10E410001D1CFFF7FDFD031C1A1C084B1B68534312
:10E420001C1CFFF7F5FD031C9B089BB2281C211C3C
:10E430001A1CFFF7A9FEBD46B0BDC046F42000205F
:10E4400080B500AF034B1B68181CFFF771FFBD467A
:10E4500080BDC046F4200020B0B584B000AF1F4B93
:10E460001B781A1C131C9B009B189B001B4A9B18B3
:10E470000433FB60FB68DB68BB60FB685B881A1CCD
:10E48000BB68D318FA6892889C18FFF7C1FD031C7B
:10E49000201C191C06F090FD0B1C7B60FB685B8840
:10E4A0001A1CBB68D318FA6892889B181D1CFFF7CA
:10E4B000B9FD031C5C1EFFF7ABFD031C63431A1C74
:10E4C0007B68D3181A1C064B1B68281C111C1A1CCD
:10E4D000FFF75AFEBD4604B0B0BDC0461420002070
:10E4E000F0200020B0B500AF0C4B1B685C1EFFF79E
:10E4F0008FFD031C63431D1CFFF794FD031C5C1E72
:10E50000FFF786FD031C63431A1C054B1B68281C80
:10E51000111C1A1CFFF738FEBD46B0BDF4200020C8
:10E52000EC20002080B500AF044B1B781A1C044B74
:10E530009200D3589847BD4680BDC046E9200020D0
:10E540008C64020080B582B000AF021CFB1D1A7003
:10E55000044BFA1D12781A70FFF7E4FFBD4602B0B3
:10E5600080BDC046E920002080B582B000AF786051
:10E570001D497A68131C9B009B189B00CB18002236
:10E580001A7119497A68131C9B009B189B00CB18C1
:10E590000022DA8014497A68131C9B009B189B00A8
:10E5A000CB18083301225A600F497A68131C9B006C
:10E5B0009B189B00CB18083300229A600A497A689E
:10E5C000131C9B009B189B00CB18103300225A6031
:10E5D00005497A68131C9B009B189B00CB180022EE
:10E5E0001A81BD4602B080BD1420002080B582B0E3
:10E5F00000AF0B4B00221A70094B00225A70002307
:10E600007B6006E07B68181CFFF7AEFF7B68013378
:10E610007B607B68092BF5D9BD4602B080BDC04642
:10E620001420002080B586B000AFB9607A60191C54
:10E630000F23FB18021C1A700C23FB180A1C1A80EB
:10E640002F4B5B780A2B53D02D4B1B781A1C2C4B6D
:10E650005B78D3183B613B69092B02D93B690A3BC4
:10E660003B6127493A69131C9B009B189B000F22B2
:10E67000BA18CB1812781A7121493A69131C9B00F9
:10E680009B189B00CB1810337A685A601C493A6972
:10E690000820131C9B009B189B00CB181B18BA6802
:10E6A000043303CA03C316493A69131C9B009B1821
:10E6B0009B000C22BA18CB181288DA8010493A69EC
:10E6C000131C9B009B189B002022BA18CB181288A1
:10E6D0001A810B4B5B780133DAB2094B5A70094B44
:10E6E0001B78002B01D100F0C3FB00237B6101E00C
:10E6F00004237B617B69181CBD4606B080BDC04603
:10E7000014200020E820002080B500AF034B5B7888
:10E71000002B01D000F0ACFBBD4680BD14200020D2
:10E72000B0B586B002AF786039600F23FB183A6845
:10E7300012781A703B689A680C49131C5B009B188E
:10E740009B005B58BB603B680833181C3B681D6925
:10E75000074B1B680F22BA1811787A680093BC68BF
:10E760002B1CA047BD4604B0B0BDC046FC20002015
:10E770000C21002090B585B000AF1C4B1B781A1CF3
:10E78000131C9B009B189B00184A9B180433BB600A
:10E79000BB68DB687B60BB685B881A1C7B68D3182E
:10E7A000BA6892889B185C1EFFF732FC031C201C81
:10E7B000191C06F07BFB031C3B600D4B1B68002BF8
:10E7C00009D00C4B1A683B689A4204D10F23FB18FE
:10E7D00001221A7003E00F23FB1800221A700F2386
:10E7E000FB181B78181CBD4605B090BD14200020F6
:10E7F000F0200020F420002080B582B000AF0B4B49
:10E800001B781A1C131C9B009B189B00074A9B1823
:10E8100004337B607B681B78042B02D0FFF752FC2B
:10E8200001E000F017FBBD4602B080BD14200020BF
:10E8300080B500AFFFF7E0FFBD4680BD90B585B065
:10E8400000AF1F4B1B781A1C131C9B009B189B00CE
:10E850001B4A9B180433BB60BB68DB687B60BB68EA
:10E860005B881A1C7B68D318BA6892889B185C1E58
:10E87000FFF7CEFB031C201C191C06F017FB031C22
:10E880003B60104B1A683B689A4208D30D4B1A68DC
:10E890003B689A4208D10C4B1B68002B04D10F2314
:10E8A000FB1801221A7003E00F23FB1800221A70D4
:10E8B0000F23FB181B78181CBD4605B090BDC04641
:10E8C00014200020F4200020F020002080B500AFAC
:10E8D000064B1B68082293431A1C044B1A60044B16
:10E8E0001B78181CFFF72EFEBD4680BD10210020AE
:10E8F000E920002080B500AF174B1B6808221340A9
:10E9000026D1FFF737FF031E0CD0144B00221A60EC
:10E91000114B1B6801221A430F4B1A600020FFF7AE
:10E9200011FE17E0FFF78AFF031E06D00B4B0022F3
:10E930001A600220FFF706FE0CE0094B1B68002B53
:10E9400003D00320FFF7FEFD04E0FFF771FF01E0B5
:10E95000FFF7BCFFBD4680BD10210020EC20002049
:10E96000F020002080B500AF054B1B680822134043
:10E9700002D1FFF75DFF01E0FFF7A8FFBD4680BDB4
:10E980001021002080B500AF1B4B1B6808221340EC
:10E990002ED11A4B1B685A1C184B1A60184B1B6857
:10E9A000002B03D00420FFF7CDFD23E0FFF746FF47
:10E9B000031E03D00220FFF7C5FD1BE0114B1B68AF
:10E9C000002B12D00C4B1B680122134009D10A4BBB
:10E9D0001B6801221A43084B1A600020FFF7B2FDA2
:10E9E00008E00320FFF7AEFD04E0FFF721FF01E0A0
:10E9F000FFF76CFFBD4680BD10210020F4200020F1
:10EA0000EC200020F020002080B500AF0B4B1B68ED
:10EA1000082213400ED1094B1B680222134005D077
:10EA2000064B1B6801221A43044B1A600220FFF7B1
:10EA300089FD01E0FFF74AFFBD4680BD102100209F
:10EA400080B500AF064B1B680822134003D101209C
:10EA5000FFF778FD01E0FFF739FFBD4680BDC046F6
:10EA60001021002080B500AF044B1B781A1C044B0A
:10EA70009200D3589847BD4680BDC046E92000208B
:10EA8000A064020080B500AF064B1B6808229343C8
:10EA90001A1C044B1A60044B1B78181CFFF784FCEB
:10EAA000BD4680BD10210020E820002080B500AFC9
:10EAB0000F4B1B680822134016D10E4B1B685A1CC3
:10EAC0000C4B1A60FFF7BAFE031C1A1C01235340BB
:10EAD000DBB2002B02D0FFF78FFE07E0064B1B785E
:10EAE000181CFFF761FC01E0FFF7CCFFBD4680BDBD
:10EAF00010210020F4200020E820002080B582B002
:10EB000000AF144B1B68082213401DD1124B1B7819
:10EB10001A1C131C9B009B189B000F4A9B18043364
:10EB20007B607B685A880D4B1B689BB2D31A9AB2E4
:10EB30007B685A807B685B88002B02D1FFF7C2FAA2
:10EB400004E0FFF737FB01E0FFF79CFFBD4602B092
:10EB500080BDC04610210020142000200821002084
:10EB600080B500AF094B1B78022B0AD0032B05D0D0
:10EB7000012B00D008E0FFF7C1FF05E0FFF796FF8B
:10EB800002E0FFF76FFFC046BD4680BDE8200020D1
:10EB900080B500AF0E4B1B685A1C0D4B1A600C4B16
:10EBA0001B68032B0FD00B4B1B78022B05D0094B96
:10EBB0001B78181CFFF7F8FB08E0074B1B78181CA4
:10EBC000FFF7C0FC02E00D20FFF7A6FABD4680BDAE
:10EBD000F8200020E8200020E920002080B582B045
:10EBE00000AF78600F4B1B78002B17D00D4B1B78B4
:10EBF000042B13D07B68022B02D0032B03D00DE033
:10EC0000FFF7AEFF0AE0084B1B680822134002D151
:10EC1000FFF7BEFF01E0FFF7A3FFC046BD4602B00D
:10EC200080BDC046E82000201021002090B585B0AE
:10EC300000AF021CBB1D1A803B1D0A1C1A80FFF787
:10EC4000E7F9031C1A1C3B1D1B88181C111C06F03D
:10EC50002DF9031C9BB2FB60FFF7DAF9031C1A1CA9
:10EC6000BB1D1B88181C111C06F020F9031C9BB24D
:10EC7000BB60FA68BB689A4208D13B1D1A88BB1D6D
:10EC80001B88D31A9A080D4B1A6013E0FFF7C0F9DE
:10EC9000031C1C1CFFF7BCF9031C1A1CBB1D1B88A2
:10ECA000181C111C06F088F90B1C9BB2E31A9A0879
:10ECB000024B1A60BD4605B090BDC046F020002052
:10ECC00090B589B000AF5E4B1B781A1C131C9B00DB
:10ECD0009B189B005A4A9B180433FB61FB69DB6855
:10ECE000BB61FB699A681623F9185648131C5B0030
:10ECF0009B189B00C31808331B880B80FB699A681C
:10ED00001423F9184F48131C5B009B189B00C31871
:10ED100008335B880B80FB699A684A49131C5B00C7
:10ED20009B189B00CB185B683B61FFF771F9031CD4
:10ED30001A1CBB69181C111C06F03EF90B1C1A1C8E
:10ED40000F23FB1851424A411A701623FB181B88E7
:10ED50001422BA18128853431A1C3B69D318BB609B
:10ED6000FB695B881A1CBB69D318FA6992889B18E7
:10ED70007B60354B00221A600F23FB181B78002B99
:10ED800006D0FB695C88FFF743F9031C9C4210D056
:10ED90000F23FB181B78002B07D07A68BB689A42B8
:10EDA00003D1FB699B88002B03D0FB699B68022B76
:10EDB0000ED1FFF72DF9031CB869191C06F076F87F
:10EDC000031C1A1C214B1A600320FFF7EDFA34E0F4
:10EDD000FB699B881A1CBB69D418FFF719F9031C3F
:10EDE000201C191C06F0E8F80B1C9A08184B1A6036
:10EDF000FFF70EF9031C1A1C7B68181C111C06F087
:10EE0000DBF80B1C1A1CFB1C51424A411A707A6831
:10EE1000BB689A420ED0FB1C1B7801225340DBB228
:10EE2000002B07D07B689AB2BB689BB2101C191CE0
:10EE3000FFF7FCFE0220FFF7B7FABD4609B090BD10
:10EE400014200020FC200020F0200020F4200020CE
:10EE5000EC20002080B500AF0120FFF7A5FABD46E9
:10EE600080BDC04680B500AFFFF72AFFBD4680BD1C
:10EE700080B582B000AF124B1B781A1C131C9B008C
:10EE80009B189B000E4A9B1804337B607B685B8851
:10EE90001A1C0C4B1A607B681B78032B07D0042BC1
:10EEA00008D0012B00D008E0FFF7D4FF05E0FFF702
:10EEB00007FF02E0FFF7D6FFC046BD4602B080BDA7
:10EEC000142000200C21002090B583B000AFFFF784
:10EED0008DFB264B00221A80FFF7A4F8031C9C1E12
:10EEE000FFF796F8031C63431A1C214B1A60214B51
:10EEF00000221A6000237B601EE01F497A68131C01
:10EF00005B009B189B0000225A501B497A68131C17
:10EF10005B009B189B00CB18083300221A8016490F
:10EF20007A68131C5B009B189B00CB1808330022E7
:10EF30005A807B6801337B607B68002BDDD00F4BF0
:10EF400000221A700E4B00221A600E4B00221A602B
:10EF50000D4B00221A600B4B1B6804221A43094B0D
:10EF60001A600023181CBD4603B090BDE0200020AD
:10EF7000E4200020F4200020FC200020E8200020D5
:10EF8000F82000201021002008210020B0B584B016
:10EF900000AF786039605A4B1B680422134001D1DE
:10EFA0000823A8E07B68002B01D10E23A3E03B6877
:10EFB000002B01D10E239EE07B681B68002B01D142
:10EFC0000E2398E07B689C88FFF722F8031C9C4284
:10EFD00003D87B689B880F2B01D807238BE07B68C5
:10EFE000DB88002B13D07B68DB881A1C7B689B882E
:10EFF00053431A1C434B1B68D418FFF713F8031C28
:10F000005D1EFFF705F8031C6B439C4201D90723E3
:10F0100071E07B689B88032213409BB2002B01D0D8
:10F02000072368E0384B1B88012B01D1042362E0E1
:10F03000354B1B881A1C3B681A60324B1A683B68B8
:10F040005A60314B1B88181C3B685A682F49031CB7
:10F050005B001B189B00CB185A602B4B1B88181C9D
:10F060007B681968294A031C5B001B189B00995098
:10F07000254B1B88191C7B689888244A0B1C5B0055
:10F080005B189B00D3180833021C1A801E4B1B8888
:10F09000191C7B68D8881D4A0B1C5B005B189B0001
:10F0A000D3180833021C5A807B689B881A1C7B6823
:10F0B000DB8853431C1CFEF7ABFF031CE3185C1EEC
:10F0C000FEF7A6FF031C201C191C05F07FFF031C84
:10F0D000FB60FEF79DFF031C1A1CFB685A43094B9B
:10F0E0001B68D218074B1A60074B1B8801339AB272
:10F0F000054B1A800023181CBD4604B0B0BDC046A5
:10F1000010210020E4200020E0200020FC2000202E
:10F11000B0B586B000AFF8607A600A23FB180A1C0D
:10F120001A80374B1B680422134001D1082363E087
:10F13000FB68002B01D10E235EE07B68002B01D120
:10F140000E2359E0FB681B68002B09D1FB681A6885
:10F150002C49131C5B009B189B005B58002B01D1B2
:10F16000072349E01023FB18FA6803CA03C31023DE
:10F17000FB1859680A23FB181888FB681A68214C89
:10F18000131C5B009B189B00E31808331B88434348
:10F19000CA181023FB185A601023FB185968102353
:10F1A000FB181A681748131C5B009B189B00C318B8
:10F1B00058681023FB181A68124C131C5B009B182C
:10F1C0009B00E31808335B881D1C1023FB181A688A
:10F1D0000C4C131C5B009B189B00E31808331B8826
:10F1E0006B43C318994201D3072305E07B681022C3
:10F1F000BA1803CA03C30023181CBD4606B0B0BD2D
:10F2000010210020FC200020B0B586B002AFF860CD
:10F21000B960191CBB1D1A803B1D0A1C1A80514B7A
:10F220001B680422134001D1082397E0BB68002B20
:10F2300001D10E2392E0FB68002B01D10E238DE05B
:10F24000FB681B68002B09D1FB681A684649131C30
:10F250005B009B189B005B58002B01D107237DE0CE
:10F26000FB685968FB681A683F48131C5B009B18D1
:10F270009B00C3185868FB681A683B4C131C5B0062
:10F280009B189B00E31808335B881D1CFB681A68F9
:10F29000354C131C5B009B189B00E31808331B883C
:10F2A0006B43C318994201D3072357E0BB1D1B884A
:10F2B000002B0DD0FB681A682B49131C5B009B18B0
:10F2C0009B00CB1808331B88BA1D12889A4201D9BB
:10F2D000072343E0BB1D1A883B1D1B88D118FB6820
:10F2E0001A682148131C5B009B189B00C318083345
:10F2F0001B88994201DD072330E0BB68181CFEF72C
:10F30000ADFE031C1A1C01235340DBB2002B17D1A6
:10F310003B1D1B88181CFEF7A1FE031C1A1C0123B1
:10F320005340DBB2002B0BD1FB685B68181CFEF767
:10F3300095FE031C1A1C01235340DBB2002B01D0A5
:10F3400010230BE0F968BA68BB1D1C883B1D1B88A5
:10F3500000930120231CFFF765F9031C181CBD4610
:10F3600004B0B0BD10210020FC200020B0B586B054
:10F3700002AFF860B960191CBB1D1A803B1D0A1C46
:10F380001A80514B1B680422134001D1082397E0D7
:10F39000BB68002B01D10E2392E0FB68002B01D14A
:10F3A0000E238DE0FB681B68002B09D1FB681A68EF
:10F3B0004649131C5B009B189B005B58002B01D136
:10F3C00007237DE0FB685968FB681A683F48131CF7
:10F3D0005B009B189B00C3185868FB681A683B4C7D
:10F3E000131C5B009B189B00E31808335B881D1CF3
:10F3F000FB681A68354C131C5B009B189B00E318D4
:10F4000008331B886B43C318994201D3072357E085
:10F41000BB1D1B88002B0DD0FB681A682B49131CE1
:10F420005B009B189B00CB1808331B88BA1D128801
:10F430009A4201D9072343E0BB1D1A883B1D1B8854
:10F44000D118FB681A682148131C5B009B189B00AD
:10F45000C31808331B88994201DD072330E0BB68DD
:10F46000181CFEF7FBFD031C1A1C01235340DBB2E2
:10F47000002B17D13B1D1B88181CFEF7EFFD031C4A
:10F480001A1C01235340DBB2002B0BD1FB685B68D5
:10F49000181CFEF7E3FD031C1A1C01235340DBB2CA
:10F4A000002B01D010230BE0F968BA68BB1D1C8843
:10F4B0003B1D1B8800930420231CFFF7B3F8031C9B
:10F4C000181CBD4604B0B0BD10210020FC20002057
:10F4D000B0B586B002AFF860B960191CBB1D1A80C8
:10F4E0003B1D0A1C1A805B4B1B680422134001D190
:10F4F0000823ABE0BB68002B01D10E23A6E0FB681C
:10F50000002B01D10E23A1E0BB681B68002B09D1A1
:10F51000BB681A685049131C5B009B189B005B5822
:10F52000002B01D1072391E0BB685968BB681A68BA
:10F530004948131C5B009B189B00C3185868BB68A4
:10F540001A68454C131C5B009B189B00E31808339A
:10F550005B881D1CBB681A683F4C131C5B009B1822
:10F560009B00E31808331B886B43C318994201D3EF
:10F5700007236BE0BB1D1B88002B0DD0BB681A68EE
:10F580003549131C5B009B189B00CB1808331B8864
:10F59000BA1D12889A4201D9072357E0BB1D1A8869
:10F5A0003B1D1B88D118BB681A682B48131C5B00D5
:10F5B0009B189B00C31808331B88994201DD072361
:10F5C00044E0FB68181CFEF749FD031C1A1C0123CC
:10F5D0005340DBB2002B17D13B1D1B88181CFEF7D4
:10F5E0003DFD031C1A1C01235340DBB2002B0BD141
:10F5F000BB685B68181CFEF731FD031C1A1C012355
:10F600005340DBB2002B01D010231FE03B1D1A88B2
:10F61000BB685B68D318191CBB1D1B88FA68101CDB
:10F620001A1C05F0D4FDBB681A680B49131C5B005B
:10F630009B189B005C58BB1D1B88BA68FD68009333
:10F64000101C022100222B1CA0470023181CBD46C1
:10F6500004B0B0BD10210020FC200020B0B588B05F
:10F6600002AF78600A1CBB1C1A80634B1B68042223
:10F67000134001D10823BAE07B68002B01D10E238F
:10F68000B5E07B681B68002B09D17B681A685B4971
:10F69000131C5B009B189B005B58002B01D10723B8
:10F6A000A5E07B6859687B681A685448131C5B00A6
:10F6B0009B189B00C31858687B681A684F4C131C32
:10F6C0005B009B189B00E31808335B881D1C7B685C
:10F6D0001A684A4C131C5B009B189B00E318083304
:10F6E0001B886B43C318994201D307237FE07B68D3
:10F6F0005B68181CFEF7B2FC031C1A1C0123534064
:10F70000DBB2002B01D0102371E07B6859687B6865
:10F710001A683A48131C5B009B189B00C3185B686F
:10F72000C81A7B681A683549131C5B009B189B003C
:10F73000CB1808331B88191C05F03EFC0B1E01D0AA
:10F74000072354E07B681A682C49131C5B009B1844
:10F750009B00CB1808331A88BB1C1B88181C111C73
:10F7600005F02AFC0B1C9BB2002B03D1BB1C1B8891
:10F77000002B01D107233AE07B681A681F49131C4C
:10F780005B009B189B00CB1808331B88181C7B68F8
:10F790001A681A49131C5B009B189B00CB1808338E
:10F7A0005B8843437B617B685A68BB1C1B88D3180A
:10F7B0003B617B681A681149131C5B009B189B0016
:10F7C000CB185A687B69D318FB603A69FB689A4288
:10F7D00001D907230BE07A68BB1C1C880023009327
:10F7E0000320111C0022231CFEF71CFF031C181C05
:10F7F000BD4606B0B0BDC04610210020FC20002050
:10F8000080B582B000AF78600A4B1B6804221340B9
:10F8100001D108230AE07B68002B01D10E2305E00B
:10F82000054B5B781A1C7B681A600023181CBD46C8
:10F8300002B080BD102100201420002048DF704756
:10F84000181CC04675DF7047181CC04680DF704723
:10F85000181CC0468ADF7047181CC0468BDF7047F3
:10F86000181CC0468CDF7047181CC04690B583B08A
:10F8700000AF78600C1C101C191CFB1C221C1A7099
:10F88000BB1C021C1A707B1C0A1C1A70A023DB050F
:10F89000FA1C1178BA1C1278520011437A1C1278A3
:10F8A000920011431822BA181278120211431C2236
:10F8B000BA181278120411437A68C132FF329200EA
:10F8C000D150BD4603B090BD80B584B002AF786022
:10F8D0007A680023009300230193101C0121012268
:10F8E0000023FFF7C3FFBD4602B080BD80B582B0E4
:10F8F00000AF7860A023DA057B6801219940A1233D
:10F90000DB00D150BD4602B080BDC04680B582B09C
:10F9100000AF7860A023DB057A68012191400A1CC2
:10F9200002495A50BD4602B080BDC0460C050000D9
:10F9300080B582B000AF7860A023DA05A223DB0097
:10F94000D2587B68DA40131C01221340181CBD46B4
:10F9500002B080BD80B582B000AF7860074A7B6896
:10F96000101C191C02F096FF054A7B68101C191C1C
:10F9700001F07EFEBD4602B080BDC046C022002020
:10F98000CC22002080B58CB000AFF860B9607A60FE
:10F99000BB681B78113B122B00D98CE09A00494BB5
:10F9A000D3181B689F46BB685B681A88464B1A8051
:10F9B000464AFB68111C1A1C0423081C111C1A1C43
:10F9C00005F005FC414B181C04F00CF8031CFB620D
:10F9D000FB6ABB62BB6A002B03D0BB6A181CFBF737
:10F9E00021FC3B4B1B780133DAB2394B1A70384B90
:10F9F0001B78002B02D100F0A7FD5DE05CE0354AEA
:10FA0000D6235B00101C00211A1CFBF701FC304BB5
:10FA10001B78012B01D100F097FD2D4B1B78013B8A
:10FA2000DAB22B4B1A7047E0284B181C03F0DAFFB0
:10FA3000031CFB62FB6A7B627B6A002B04D07B6A3F
:10FA4000181CFBF7EFFB37E036E0BB685B681B88F0
:10FA5000204A101C191C02F067FD031CFB62FB6AA4
:10FA60003B623B6A002B04D03B6A181CFBF7DAFBB5
:10FA700022E021E07B68FB61FB69002B04D0FB697D
:10FA8000181CFBF7CFFB17E016E07B68BB61BB6976
:10FA9000002B04D0BB69181CFBF7C4FB0CE00BE087
:10FAA0007B687B617B69002B04D07B69181CFBF7AA
:10FAB000B9FB01E000E0C0460023181CBD460CB0B5
:10FAC00080BDC046C8640200F2220020EC22002063
:10FAD000F02200201421002080B588B000AFB9606A
:10FAE0007A600F23FB18021C1A700023FB61BB68AD
:10FAF0001B68BB612DE0BA69FB69D2181723FB189C
:10FB000012781A70FB690133BA69D2181623FB18F0
:10FB100012781A701623FA180F23FB1812781B7824
:10FB20009A420FD1FB690233BA69D2187B681A6016
:10FB30001723FB181B789BB2013B9AB27B689A8013
:10FB400000230DE01723FB181A78FB69D318013343
:10FB5000FB61BB689B881A1EFB699A42CBD80523C0
:10FB6000181CBD4608B080BD84B0F0B55F4656464F
:10FB70004D464446F0B4A9B008AF98240825AC46D9
:10FB80000825A846B844C444644420606160A2606B
:10FB9000E3600C2308229446BC4463441A1C64238B
:10FBA000101C00211A1CFBF733FB982308229446F3
:10FBB00008229046B844C44463449B797B609821F2
:10FBC000082308229446BC4463445B185B793B607D
:10FBD0009821082308229446BC4463445B181B798F
:10FBE00099469821082308229446BC4463445B1834
:10FBF000DB7898469821082308229446BC44634445
:10FC00005B189B789C469821082308229246BA44A8
:10FC100053445B185B781E1C9821082308229246E7
:10FC2000BA4453445B18DB79DBB21D1C98210823CE
:10FC300008229246BA4453445B181B7A5B079B0F19
:10FC4000DBB21C1C9821082308229246BA44534474
:10FC50005B181B7ADB07DB0FDBB2181C982108232B
:10FC600008229246BA4453445B181B7A1B06DB0EEB
:10FC7000DBB29A460C2208239B46BB445A444B4BAA
:10FC800049460091414601916146029103960495CF
:10FC90000594069051460791101C191C7A683B6820
:10FCA00005F09EFA0C23FB1800221A8000229A709D
:10FCB0000023FB6720E09823082208218C46BC44DF
:10FCC0006244D218FB6FD31808335B781C1C0C23DA
:10FCD000FA18374B101C191C221C05F081FA0C2352
:10FCE0000822BA18D2180C23FB18101C191C05F096
:10FCF000C3FAFB6F0133FB6798230822944608225E
:10FD00009046B844C44463441B7A1B06DB0EDBB246
:10FD10001A1EFB6F9A42CEDC0C230822BA18D218A6
:10FD2000244B101C191C05F0A7FA0C23082294463A
:10FD3000BC446344181C05F0B6FA031C3B611E4A20
:10FD40000823FB18101C00211A1CFBF7DBFB031C0B
:10FD5000BB67BB6F042B1DD0BA683B699A4219D3AD
:10FD600015490C230822BA18D21808230820844603
:10FD7000BC446344081C111C1A1CFBF7C3FB0F4B4B
:10FD8000181C05F090FA031CDBB20C4A101C191C5D
:10FD900000F07EFCBD4621B03CBC90469946A24690
:10FDA000AB46F0BC08BC04B01847C046146502005E
:10FDB0004865020050650200802A00205465020058
:10FDC000B0B5A0B006AF78607B680433BB657B68D4
:10FDD0001B88103B0F2B00D954E19A00AB4BD31872
:10FDE0001B689F460C23FA18BB6D043313CB13C258
:10FDF00013CB13C213CB13C21B68136000233B66E3
:10FE000066E00C23FB185978A1483A6E131C9B003E
:10FE10009B181B01C3185B78994256D10C23FB1821
:10FE200099789B483A6E131C9B009B181B01C318C2
:10FE300001335B78994248D10C23FB18D978944858
:10FE40003A6E131C9B009B181B01C31802335B788E
:10FE500099423AD10C23FB1819798D483A6E131C3C
:10FE60009B009B181B01C31803335B7899422CD16C
:10FE70000C23FB18597986483A6E131C9B009B187B
:10FE80001B01C31804335B7899421ED10C23FB1865
:10FE900099797F483A6E131C9B009B181B01C3186D
:10FEA00005335B78994210D10C23FB186A46111C6C
:10FEB0001A1C103231CA31C131CA31C118685968AF
:10FEC0009A68DB68FFF750FE05E03B6E01333B6646
:10FED0003B6E092B95DDBB6D0D331A1C4023FB18BF
:10FEE0001A60BB6D1B7B1B06DB0EDBB29AB2402394
:10FEF000FB189A804023FA183823FB180220111CA3
:10FF00001A1CFFF7E9FD031C7B667B6E002B0AD0F1
:10FF10004023FA183823FB180320111C1A1CFFF782
:10FF2000DBFD031C7B667B6E002B50D10023FB6541
:10FF300044E03823FB181A68FB6D5B000133D318CB
:10FF40001B789AB23623FB181A803623FB181B88BD
:10FF50001B029AB23623FB181A803823FB181A6842
:10FF6000FB6D5B00D3181B789AB23623FB181B88F5
:10FF700013439AB23623FB181A803623FB181B88CA
:10FF8000444A934217D1FFF769FC031C7B66424B3E
:10FF90001A7802218A431A703F4B00225A60BB6DC7
:10FFA000191D3D4A3D4B081C111C1A1CFFF75AFC39
:10FFB000031C7B660BE0FB6D0133FB653823FB18EC
:10FFC0009B885B089BB21A1EFB6D9A42B1D8C04653
:10FFD00059E0BB6D1B79022B01D100F0B5FA52E05C
:10FFE000BB6D1B882E4A101C191C002202F0F6FC67
:10FFF000031C7B667B6E7B657B6D002B03D07B6D6A
:020000022000DC
:10000000181CFBF70FF9BB6D1B88264A101C191C26
:10001000002201F0E7FC031C7B667B6E3B653B6DB9
:10002000002B04D03B6D181CFBF7FCF82BE02AE0FA
:10003000BB6D1A88BB6D0433101C191CFFF702FC42
:10004000031C7B667B6EFB64FB6C002B04D0FB6C9B
:10005000181CFBF7E7F816E015E0134B1A88134B52
:10006000101C01211A1CFFF7F1FB031C7B667B6E41
:10007000BB64BB6C002B04D0BB6C181CFBF7D2F824
:1000800001E000E0C046BD461AB0B0BD14670200F2
:10009000F82200201A180000D8220020C0640200B4
:1000A000C0220020CC220020F2220020141F0020B9
:1000B00080B582B000AF78607B68023B012B0AD824
:1000C000074B1B78002B05D0054B00221A7000F05F
:1000D0003BFA01E000E0C046BD4602B080BDC0462C
:1000E000F422002080B582B000AF78607B68181CD5
:1000F00003F0A8FD0C4A7B68101C191C02F098FA4A
:100100000A4A7B68101C191C02F03AFC084A7B68FA
:10011000101C191C01F0D4FB7B68181CFFF750FE63
:10012000BD4602B080BDC04614210020C022002080
:10013000CC22002080B582B000AF78607B68181CAC
:10014000FEF74CFD7B68181CFFF7B2FFBD4602B0FE
:1001500080BDC04680B590B000AF1823FA18374B69
:10016000111C1A1C0423081C111C1A1C05F02FF862
:100170001823FA18324B101C191C4822002304F0D3
:1001800087FD031CFB63FB6BBB63BB6B002B03D0C6
:10019000BB6B181CFBF746F83B1D012000211A1C05
:1001A00004F002FE031C7B637B6B3B633B6B002B09
:1001B00003D03B6B181CFBF735F8224BFB62FB6A44
:1001C000181C04F021FE031C7B637B6BBB62BB6AC3
:1001D000002B03D0BB6A181CFBF724F83B1D181C2E
:1001E00004F026FE031C7B637B6B7B627B6A002B27
:1001F00003D07B6A181CFBF715F8134B181C04F08E
:100200008DFD031C7B637B6B3B623B6A002B03D041
:100210003B6A181CFBF706F80C4B181C04F092FD07
:10022000031C7B637B6BFB61FB69002B03D0FB69C9
:10023000181CFAF7F7FFBD4610B080BD58650200E4
:10024000B02A0020E01C0020E50002003501020079
:1002500080B58AB000AF021CFB1D1A701423FB1876
:10026000FA1D12781A70FEF72FFE031C7B627B6A60
:100270003B623B6A002B03D03B6A181CFAF7D2FFA3
:100280001423FB18181C03F0B3FA031C7B627B6A6F
:10029000FB61FB69002B03D0FB69181CFAF7C2FF56
:1002A0000823FB180533181C00210522FAF7B0FFBC
:1002B0000823FB182A4A1A600823FB1802221A7125
:1002C0000823FB185A7901210A435A710823FB18A5
:1002D0005A7902210A435A710823FB185A790421DA
:1002E0008A435A710823FB185A7908218A435A71A4
:1002F0000823FB185A7970218A43111C20220A43D3
:100300005A710823FB185A797F210A405A71082331
:10031000FB1807229A710823FB181022DA710823B0
:10032000FB185A7A01210A435A720823FB185A7A99
:1003300002210A435A720B4A0823FB18101C191C8D
:1003400003F004FB031C7B627B6ABB61BB69002B6F
:1003500003D0BB69181CFAF765FFBD460AB080BD23
:1003600085F90100E822002080B586B000AF7860F2
:1003700039603B681B78012B24D0022B24D0002B42
:1003800000D022E07B68181C01F0F2FA031C7B61AC
:100390007B693B613B69002B03D03B69181CFAF772
:1003A00041FF7B68181C01F0C3FA031C7B617B6969
:1003B000FB60FB68002B04D0FB68181CFAF732FFC7
:1003C00003E002E0C04600E0C046BD4606B080BD86
:1003D00080B584B000AF0B4B7B600B4A3B1D101CFB
:1003E000191C01F023FA031CFB60FB68BB60BB68AF
:1003F000002B03D0BB68181CFAF714FFBD4604B0ED
:1004000080BDC04669030200CC22002080B582B0C6
:1004100000AF094B181C02F041F8031C7B607B689D
:100420003B603B68002B03D03B68181CFAF7FAFED0
:10043000BD4602B080BDC04655F9010080B500AF91
:100440000B4B1A7801218A431A70094B1A78022142
:100450008A431A70064BA0221A81054B50225A81FA
:10046000034B00225A60024B00229A81BD4680BD98
:10047000D8220020B0B582B000AF051C0C1C101CA7
:10048000191CFB1D2A1C1A70BB1D221C1A703B1D57
:10049000021C1A80BB1C0A1C1A80FB1D1B78002B37
:1004A00003D0FB1D1B78012B0FD1FB1D1B780122F4
:1004B0001340DAB2234B01210A40101C1A780121A3
:1004C0008A43111C021C0A431A70BB1D1B78002BA7
:1004D00003D0BB1D1B78012B0FD1BB1D1B78012244
:1004E0001340DAB2174B01210A4090181A78022102
:1004F0008A43111C021C0A431A703B1D1B88032BE4
:1005000009D93B1D1A888023DB019A4203D80D4B81
:100510003A1D12881A81BB1C1B88032B09D9BB1CEE
:100520001A888023DB019A4203D8064BBA1C128832
:100530005A81044B1822BA1812889A81BD4602B01B
:10054000B0BDC046D822002080B584B000AF3B1DAE
:10055000181CFFF755F9031CFB60FB68BB60BB6808
:10056000002B03D0BB68181CFAF75CFE7B68002BDD
:1005700004D0084B01221A70002306E0064B181C19
:10058000FFF768F9031CFB60FB68181CBD4604B04C
:1005900080BDC046F4220020D822002080B582B061
:1005A00000AFFFF75BF9031C7B607B68181CBD463E
:1005B00002B080BD80B500AF1520FFF785F9182087
:1005C000FFF782F91820FFF7A1F9BD4680BDC046AC
:1005D00080B582B000AF7860BD4602B080BDC04635
:1005E00080B586B000AF1D4B002003211A1C0023EC
:1005F000FBF734FE031C7B617B693B613B69002B8D
:1006000003D03B69181CFAF70DFE154A154B101C58
:1006100001211A1CFBF7A6FE031CFB60FB68BB60F4
:10062000BB68002B03D0BB68181CFAF7FBFD0E4A11
:10063000F0235B03101C191C0022FBF7E3FE031CD4
:10064000FB60FB687B607B68002B03D07B68181C19
:10065000FAF7E8FDBD4606B080BDC046F82A002086
:10066000BC640200D1050200902A002080B582B04F
:1006700000AF00237B607B683B603B68002B03D0AE
:100680003B68181CFAF7CEFDBD4602B080BDC046DF
:1006900080B584B000AF78600A1CFB1C1A70002380
:1006A000BB600FE0BB687A68D3181B78181CFCF796
:1006B00063F8031CFB60FB68002B00D007E0BB68FD
:1006C0000133BB60FB1C1A78BB689A42EADCFB680A
:1006D000181CBD4604B080BD80B586B000AF3B1C81
:1006E000186059601723FB18FF221A7000233B6122
:1006F00012E025493A69131C9B009B181B01CB187B
:1007000005335B78002B04D11723FB183A691A7064
:1007100005E03B6901333B613B69092BE9DD1723A8
:10072000FB181B785BB2013301D1012328E00523BC
:10073000FB6014E01723FB1800229A56391CFB6853
:10074000CB1858781049131C9B009B181B01FA68A2
:100750009B18CB18021C5A70FB68013BFB60FB68BE
:10076000002BE7DA1723FB1800229A563B1C187857
:100770000549131C9B009B181B01021C5A540023A3
:10078000181CBD4606B080BDF822002090B591B07F
:1007900000AF021CFB1D1A700C23FB1800221A600C
:1007A00000225A6000229A600022DA6000221A6158
:1007B00000225A6100229A610022DA6100221A6244
:1007C00000225A6200229A620022DA6200221A860D
:1007D000FB1D1B78092B00D9F5E0FB1D1B780C22B3
:1007E000B9187B4A081C111C1A1C04F0F9FC0C23D4
:1007F000FB18181C04F057FD031CDBB20C22BA18BE
:10080000101C191CFFF744FFFB1D1A787149131CBB
:100810009B009B181B01CB1805335B781C1C0C2319
:10082000FA186D4B101C191C221C04F0D9FC0C2367
:10083000FB18181C04F037FD031CDBB20C22BA189D
:10084000101C191CFFF724FFFB1D1A786149131CAB
:100850009B009B181B01CB1804335B781C1C0C23DA
:10086000FA185E4B101C191C221C04F0B9FC0C2356
:10087000FB18181C04F017FD031CDBB20C22BA187D
:10088000101C191CFFF704FFFB1D1A785149131C9B
:100890009B009B181B01CB1803335B781C1C0C239B
:1008A000FA184E4B101C191C221C04F099FC0C2346
:1008B000FB18181C04F0F7FC031CDBB20C22BA185E
:1008C000101C191CFFF7E4FEFB1D1A784149131C8C
:1008D0009B009B181B01CB1802335B781C1C0C235C
:1008E000FA183E4B101C191C221C04F079FC0C2336
:1008F000FB18181C04F0D7FC031CDBB20C22BA183E
:10090000101C191CFFF7C4FEFB1D1A783149131C7B
:100910009B009B181B01CB1801335B781C1C0C231C
:10092000FA182E4B101C191C221C04F059FC0C2325
:10093000FB18181C04F0B7FC031CDBB20C22BA181D
:10094000101C191CFFF7A4FEFB1D1A782149131C6B
:100950009B009B181B01CB185B781C1C0C23FA18FE
:100960001F4B101C191C221C04F03AFC0C23FB1812
:10097000181C04F098FC031CDBB20C22BA18101CE3
:10098000191CFFF785FEFB1D1A781249131C9B00EA
:100990009B181B015B5C1C1C0C23FA18114B101CD0
:1009A000191C221C04F01CFC0C23FB18181C04F05E
:1009B0007AFC031CDBB20C22BA18101C191CFFF7BE
:1009C00067FE002300E00123181CBD4611B090BD56
:1009D0005C650200F8220020746502008465020054
:1009E0008C65020094650200B0B5AEB000AF021C89
:1009F000FB1D1A701823FB181A1C9623101C0021CB
:100A00001A1CFAF705FC0C23FB1800221A600022BE
:100A10005A6000221A81FB1D1C78FB1D1A78584968
:100A20002820131C9B009B181B01CB181B18DB787C
:100A30001D1CFB1D1A7852494820131C9B009B1853
:100A40001B01CB181B18DB78EB181822B9184D4A7C
:100A5000081C111C221C04F0C3FB0023B422BA188A
:100A6000136025E0FB1D1A784549131C9B009B1859
:100A70001B01CA18B423FB181B68D31808331B7951
:100A80001C1C0C23FA18404B101C191C221C04F0CF
:100A9000A7FB1823FA180C23FB18101C191C04F0D0
:100AA000EBFBB423FB181B680133B422BA181360A4
:100AB000FB1D1A7832492820131C9B009B181B0130
:100AC000CB181B18DB781A1CB423FB181B689A423E
