:020000021000EC
:10B00000008000202515020065150200671502006A
:10B010000000000000000000000000000000000030
:10B0200000000000000000000000000069150200A0
:10B0300000000000000000006B1502006D1502000A
:10B040006F1502006F150200BDC801006F150200E8
:10B050006F15020000000000D5C201006F1502004C
:10B060006F1502006F1502006F1502006F150200C8
:10B070006F1502006F1502006F1502006F150200B8
:10B080006F15020035B501006F1502006F15020043
:10B0900011B601006F150200951402006F15020031
:10B0A0006F1502006F150200000000000000000094
:10B0B0000000000000000000000000000000000090
:10B0C00010B5064C2378002B07D1054B002B02D07E
:10B0D000044800E000BF0123237010BD201F0020A2
:10B0E00000000000E029020008B5084B002B03D047
:10B0F0000748084900E000BF07480368002B00D15B
:10B1000008BD064B002BFBD09847F9E70000000074
:10B11000E0290200241F00201C1F00200000000066
:10B12000164B002B00D1144B9D46402292029A1AD6
:10B13000924600218B460F461348144A121A00F01B
:10B1400067F80F4B002B00D098470E4B002B00D018
:10B1500098470020002104000D000D48002802D06F
:10B160000C4800E000BF00F02DF82000290003F09B
:10B170006DFF00F011F8C0460000080000800020BC
:10B180000000000000000000201F0020B82B00205D
:10B190000000000000000000084B10B5041C002B4C
:10B1A00002D0002100E000BF054B1868836A002B25
:10B1B00000D09847201C00F033F8C0460000000083
:10B1C000142702000E4B70B500251E1C0D4CE41A0E
:10B1D000A410A54204D0AB00F35898470135F8E716
:10B1E00007F08AFA084B00251E1C084CE41AA4102C
:10B1F000A54204D0AB00F35898470135F8E770BD7D
:10B20000141F0020141F0020141F0020181F0020EE
:10B21000031C8218934202D019700133FAE7704779
:10B22000FEE7C046F8B54D465F4656464446F0B484
:10B23000224B1978994600292AD0214B002598469F
:10B24000204B214F01269A4603E00135EDB28D4295
:10B250001ED243461B68321C9C46EC006444207896
:10B260003B6882401342F0D093433B6001F028F8E2
:10B27000331C22785146934009680B40011C9140D1
:10B280008B420BD04B4601351978EDB28D42E0D39D
:10B290003CBC90469946A246AB46F8BD61686378CF
:10B2A0008B460029EED0591E4C424C41211A4B428C
:10B2B0004B41101CD9B2D847E4E7C046441F0020D8
:10B2C000401F0020681F00206C1F0020F8B5124DA1
:10B2D000071C281C00F0C8FC002807D10124BC4032
:10B2E0000E4E3368234202D0A3433360F8BD381CAE
:10B2F00000F0E6FF0A4A136800280BD023431360CE
:10B300003368281C1C43074B00221968346000F086
:10B310002FFCEBE7A343F2E7481F00206C1F00203F
:10B32000681F00203C1F0020F0B54F464646C0B4C1
:10B33000141C071C83B00E1C0720042A04D803B079
:10B340000CBC90469946F0BD00F0AEFE00282FD010
:10B350001A4B1B4A1F601B4B751E1E701A4BEDB219
:10B360001C6000231360194A1360002E1AD0184B7A
:10B3700001AC994603230026984600E01D1C424676
:10B38000EB00FB182270A670E6709A78187862704D
:10B39000211C4A4600F092FE0028D0D16B1EDBB281
:10B3A000002DEBD100210B4A0B4800F0C7FBC6E78C
:10B3B00000F046FE0028CBD0C1E7C046401F002069
:10B3C000681F0020441F00203C1F00206C1F00202D
:10B3D000CDB2010025B201001827020070B5094D59
:10B3E0002B78002B0BD00024074E3268E300985CCA
:10B3F000012100F011FF2B780134A342F5D8002081
:10B4000070BDC046441F0020401F0020002300B52F
:10B4100085B001AA9060002103481380536000F0BA
:10B4200005F805B000BDC04601400000BFF34F8FD6
:10B43000034A044BDA60BFF34F8FC046FDE7C046B6
:10B440000400FA0500ED00E010B500290DD0092335
:10B45000002A01D1181C10BD541E2240FAD182606E
:10B4600001608480C2600023F4E70E23F2E7C04647
:10B47000031C10B59C888068DA68121A0420944274
:10B4800000D210BDDA68002014401A681155DA683D
:10B490000132DA60F5E7C04610B58468C268031C63
:10B4A0000520944209D098689A8802401868825C06
:10B4B00000200A709A6801329A6010BD80218023B2
:10B4C000184A8902D1508022D221174B520289009A
:10B4D0005A5040395A5001222F205A600138C04634
:10B4E000C046C046C046C046C046C046C046C0462C
:10B4F000C046C046C046F1D19A6000230B4A2F20B7
:10B5000013600138C046C046C046C046C046C0466B
:10B51000C046C046C046C046C046C046F1D1044AF7
:10B520001370704700E100E000100140701F002020
:10B53000901F0020A021F0B5002347462B4A490068
:10B5400080B453500431535004315350043153509C
:10B550004C39535004315350254B1B68002B35D0C8
:10B560002449002652582449244F0C68141B0022F9
:10B570002402240A904602E0002D18D02B1C1A68E1
:10B58000A24214D8A41AB6181A7CDD69002AF3D096
:10B59000424699691A745A693B68002B19D0101CED
:10B5A00098470028E8D0FFF731FF002DE6D1144B73
:10B5B00014491A780B789A420ED0134A9B009E5079
:10B5C00080218023114A49035B00D15004BC90467E
:10B5D000F0BD081C9047CFE70132D3B2022B01D057
:10B5E0000B70EAE700230B70E7E7C046001001404C
:10B5F000741F002004050000701F0020781F002029
:10B60000841F0020851F0020881F002000E100E02B
:10B61000F0B55F4656464D464446F0B4B54BB64A83
:10B620001B68B64989B0019309781378994200D113
:10B63000B3E10133DBB2022B00D100231370B04A17
:10B640009B009B58AB4A9946019B4B441B021B0A2B
:10B65000136001230493AB4B00241B689B46AA4B49
:10B66000D8461B781A1C0293A84B944607931B6874
:10B670000393A04B1B680693A54B1B7805935B4671
:10B680006646013EF2B29446FF2A4FD06246D00091
:10B69000039A9246504401784578A942F0D04A0076
:10B6A0005218877801314668C9B27F1AB2467E1EA9
:10B6B000B741D2007F42524439401778022F0AD056
:10B6C000032FEAD1002BE8D01C74DB69002BFBD1DF
:10B6D00045789846E1E75668002B25D09E421AD05F
:10B6E0001F1C00E0171CFA69002AD6D09642F9D137
:10B6F000321C3D1CBE4200D1EBE01768D269EA6102
:10B70000002A06D013689A46574417604578434686
:10B71000C3E74578C1E7DE691A1C002E00D1DDE0E1
:10B72000B046331C151CE8E70023B6E74146754ACE
:10B73000181C11606F4A0699039311606946744A98
:10B74000097D1170049A002A00D02AE15B461B1A79
:10B750005A1E93410025DBB20493079B00271B6808
:10B76000039E0693634B1B689C46664B1B689A4678
:10B77000674B1B780593674B019301239846029B07
:10B78000013BDBB20293FF2B00D18FE0069ADB0076
:10B7900093469B44002D27D06968AB68281CED694F
:10B7A0006246019C8A1A1202120AA24250D8D31889
:10B7B00042460360476087600274C761002E56D01E
:10B7C0003168341C994204D35FE01168994263D216
:10B7D000141CE2695B1A002AF7D10360331CC261B2
:10B7E000E0611E1C002DD7D15B465A461B7852786B
:10B7F0009A42C4D0594649685A0089465946D218D7
:10B800000133DBB20B708978D2004A4499424AD0A6
:10B8100011785068331C0129E3D1037C99464946CD
:10B82000331C0029DDD191684160D36883601469BD
:10B83000C46052698261059A002AB1D04A4600214B
:10B8400042606246019C8A1A1202120AA242AED9D2
:10B850006246511A0902090A99420CD242465B1A01
:10B860000360476087600274C761002EA8D1031C83
:10B8700082461E1CB6E74346076047608760037434
:10B88000C761002EF3D000233168CB1A3360031C4C
:10B89000C66182461E1CA5E7C91A11600360C26119
:10B8A000331CE0619DE75B461D70B1E75246154BC6
:10B8B0001A60039BB34231D1049B002B2ED100238D
:10B8C000134A137009B03CBC90469946A246AB4659
:10B8D000F0BDDE693A1C002E00D021E701250E4B99
:10B8E00001369D600023059600269846151C069695
:10B8F00003E7C046701F0020841F0020851F002022
:10B90000881F0020741F00207C1F0020801F002043
:10B91000861F0020FEFF7F0000100140002E62D035
:10B92000474B48493568CC58474B484E1B683078E0
:10B93000E21A1202120A0332904600285ED04246F2
:10B94000AA4200D22A1CA820D21812023D49130A8A
:10B95000C0003B4D0B504A591B1B121B1202120A0E
:10B960001B0203321B0A9A42A9D94B590B502F20B4
:10B970000138C046C046C046C046C046C046C04664
:10B98000C046C046C046C046C046F1D18021802393
:10B990002F4A89025B00D15091E700239946049316
:10B9A00059E647460025002100244846002B13D0C5
:10B9B0001A6882421AD8DE68801A89181C60DF690A
:10B9C000002E07D0DD611D1C019A9E608A181202AC
:10B9D000120A5A603B1EEBD11E4B1F6000230393DB
:10B9E00001330493B9E6FFF769FD68E7121A1A609C
:10B9F00003930123174904930F60AEE68020D127FB
:10BA00004002BF00C851403FC851C02280271048A3
:10BA1000BF0252008750076001272F200F600138B6
:10BA2000C046C046C046C046C046C046C046C046E6
:10BA3000C046C046C046C046F1D137707FE7C04619
:10BA40000405000000100140701F0020901F00201E
:10BA500000E100E0741F0020F8B54F464646C0B430
:10BA60000326351C80460F1C141C994615400720E0
:10BA7000002D03D00CBC90469946F8BD002A44D056
:10BA8000FFF71CFD4A46224B80201A60221C214BE6
:10BA900018321E70204B62601C607B00DB19DB00DB
:10BAA000D218E260D318C022636125706570A77058
:10BAB00025726572A77225746574A774C524FF2169
:10BAC000164B40031D60164B52001D70154BA40011
:10BAD0001D70154B98501A598A433F390A431A5121
:10BAE000A122186040461149D2008850C42080002D
:10BAF0001C580F4A2240C024240222431A500D4BE6
:10BB00000020CA580C4B1A60B4E7034B1A60B1E727
:10BB1000781F00207C1F0020801F0020741F002041
:10BB2000841F0020851F002000E100E0001001407C
:10BB3000FF00FFFF04050000701F002010B50B4B35
:10BB40001B68002B0BD0002A07D0002805D0036803
:10BB500008201C7C002C04D010BD0720FCE7082026
:10BB6000FAE759745A610020F6E7C046801F0020AA
:10BB7000F0B5474680B4374B1C68002C08D000282D
:10BB800006D00723042905D8181C04BC9046F0BD34
:10BB90000823F9E74369002BFAD00025437CA84627
:10BBA000012B2FD0EFF30583DB05DB0D1025002BD8
:10BBB0002CD164196378A5785E1CF6B2AD1B6F1E9C
:10BBC000BD416D422E402578B5421DD05D00EB1879
:10BBD0006568DB00ED180423002DD5D0033B2B70E6
:10BBE00068601D4B1D48C358E960AB604346802127
:10BBF0002B6180236A611A4A5B0049036670D15049
:10BC00000023C1E78846CDE70423BDE7103BDEB241
:10BC100075B2002D13DBAD08114EC035AD00AD5926
:10BC200003263340DB00DD402B069B0FDBB20025F3
:10BC3000012BBED00835032BBBD00835B9E70F2345
:10BC4000084D3340AC46083B9B089B0063445D684D
:10BC50000323E6E7801F00200405000000100140D8
:10BC600000E100E018ED00E030B52E4A031C126838
:10BC70000820002A2ED0002B2CD05969002929D069
:10BC800000211974EFF30581C905C90D102500299C
:10BC900023D155196A78A978541CE4B2091B481EAF
:10BCA000814149420C402978A14214D051008A18A0
:10BCB0006968D2008C4662440420002A0AD002211E
:10BCC00053601170802380210020174A49035B00D4
:10BCD0006C70D15030BD0420FCE71039CCB260B29A
:10BCE000002813DB8008104CC0308000005903246A
:10BCF0002140C900C8400106890FC9B200250129A9
:10BD0000C7D008350329C4D00835C2E70F2107483A
:10BD10002140844608398908890061444868032124
:10BD2000E6E7C046801F002000E100E018ED00E0DB
:10BD300008B50378022B02D0012B00D008BD406863
:10BD4000FFF764FBFAE7C04670B50E4C88B0237865
:10BD50000020002B14D101A8021C0B4B62CB62C245
:10BD60000A4B012504930A4B04A9069380239B00E8
:10BD70000793FE3B074AFF3B059500F095F82570B9
:10BD800008B070BD982100201C270200941F0020DD
:10BD9000981F002031BD01000FB400B583B004A985
:10BDA00001C9019105F07EFD03B008BC04B018473D
:10BDB00070B5161C0C1C8D18002A05DD2078013486
:10BDC00000F0DEF8AC42F9D1301C70BD10B50C1C8F
:10BDD000201C00F0BBF80528FAD0012010BDC04699
:10BDE00030B5047885B0012C19D0022C34D0002C49
:10BDF00001D005B030BD274C274D201C291CFFF772
:10BE00004BFB002823D0A268E3689A42F1D10323B8
:10BE100002AA1370214B101C1B689847E9E743687E
:10BE20001F4D1978281CFFF723FB002822D1AA6890
:10BE3000EB689B1A012B25D0A968AA88EB685B1ACE
:10BE40009A42D6D30121174800F08AFCD1E7281C7A
:10BE5000012100F023FCD6E702AB1C70C36801216E
:10BE600010480193039300F07BFC0C4B02A81B6865
:10BE70009847BEE702AB1C70084B03901B6802A8F2
:10BE80009847D9E702AB1870044B02A81B68984783
:10BE9000D2E7C046A82100209C210020A02100203C
:10BEA000B8210020A4210020F0B51E1C214B051C48
:10BEB00089B00C1C1A600720002906D08A881E4809
:10BEC0000968FFF7C1FA002801D009B0F0BDA168E8
:10BED000A2891A48FFF7B8FA0028F6D16A46184B2B
:10BEE000684692CB92C292CB92C212CB12C2AB687E
:10BEF00006932B7906775A1E934103756B790E22B0
:10BF0000591E8B415B421A404275EB780D490293F2
:10BF1000AB7803932B7801936B78009300F02EFBA2
:10BF20000028D2D100F0B4FC0121074800F018FC31
:10BF3000CBE7C046A0210020B8210020A821002086
:10BF400028270200E1BD0100A421002038B50A4CD9
:10BF5000051CA168A288E3685B1A9A4204D0201CE1
:10BF6000291CFFF799FA38BD0448012100F0F8FBBD
:10BF70000028F4D00520F6E7B8210020A4210020F5
:10BF800070B50D4D011C281CFFF772FA041E01D07C
:10BF9000201C70BD00F0DCFB0028F9D1074E281CE6
:10BFA000311CFFF779FA0028F2D1301C012100F092
:10BFB00075FB041CECE7C046A82100209C21002052
:10BFC000F0B5002820DBFF271B4B03229C463B1CBF
:10BFD0008408C026C0B20240D2009340A40064444A
:10BFE000B600A5599D438B013B409340191C294342
:10BFF000A1511F2318401E3B8340C022181C0E4B2A
:10C00000520098501860F0BDFF260C4A0324944655
:10C01000321C0F23C0B20440E400A2400340083B9E
:10C020009B089B006344DD6995438A013240A2402E
:10C03000111C2943D961DCE700E100E000ED00E0DC
:10C0400038B54425164C0820635D002B00D038BD60
:10C050004022FF21013BA3540132A1540132A354D9
:10C06000236201326362A362E36223636363A363B7
:10C07000E3630238FC39A35423606360A360E36088
:10C0800023616361A361E361FFF79AFF8021C1230C
:10C09000044A9B000906D150012300206355D6E7CE
:10C0A000C8210020006000404423034AD05C431EA6
:10C0B0009841C0B27047C046C8210020F0B547463D
:10C0C00080B4524C0825231820331E787F2E03D8C5
:10C0D000281C04BC9046F0BDCD78AC46002D36D06F
:10C0E0002568013500D187E0042300269846731C9B
:10C0F0009D006759013733D0B31C984525D99D0061
:10C10000675901372CD0F31C98451ED99D006759FB
:10C11000013725D0331D984517D99D006759013740
:10C120001ED0731D984510D99D006759013717D04F
:10C13000B31D984509D99D006759013710D00736BE
:10C14000B04502D9E369013308D00425C0E7256969
:10C15000013555D0082304269846C8E707231C2537
:10C16000625162462718DEB220373E70002A02D1A3
:10C17000E3183C3318708B78002B15D1031CA025D5
:10C180004A78C133FF3392009B00ED055A51CB78BA
:10C19000002B15D176B2A4193C340B7822789B0180
:10C1A00013432370002593E7A022D2059446E0258F
:10C1B000022783006344ED005A59BA435A51E6E717
:10C1C000A22476B2124BB600F318E4000A781D5987
:10C1D0001049000229401951F82149010840061C64
:10C1E000C0211004021C301C89021D590A40104352
:10C1F0002843185100256BE7002622601E70BAE71D
:10C20000042522611D702E1C2B1CB1E7C8210020C3
:10C2100000600040FFE0FCFFF0B5264D2C182034F4
:10C22000227853B2032B18DDEB183C331B789B09A3
:10C23000032B32D0012B39D0C025AD02A023DB0562
:10C240009C46E02380006044DB00C4581A4921402A
:10C25000C150C2582A43C250F0BD032AFCD8174827
:10C26000A227844601269A006244FF00D059304339
:10C27000D0511A1C604600274032920092B21750EB
:10C280000029E9D00022A25692005259002AE3D098
:10C29000C1229E4092008650DEE7A223A022DB004E
:10C2A000D205D258012383401A42C5D18025AD0260
:10C2B000C4E7C046C8210020FFFFFCFF006000402B
:10C2C000A223A022DB00D205D358C340181C0123AF
:10C2D00018407047F0B544465F4656464D46F0B4A8
:10C2E0009C4A87B013680024012B00D1AEE09A4B22
:10C2F0001A68012A00D1B7E0984B1A68012A00D1C8
:10C30000C2E0974B1A68012A00D1CDE00022954B7C
:10C3100002921A68012A00D1D8E023070BD0E30764
:10C3200000D5DFE0A30700D5EBE0630700D5F6E01A
:10C33000230700D502E1002C06DB07B03CBC904689
:10C340009946A246AB46F0BD002301270493C033B3
:10C3500099460126844D7F4200230393E023DB00AE
:10C3600000249846231C4033E95C4BB201332CD0A7
:10C37000C9B24B46081C98433B1CC3401E4224D004
:10C380008B0901932B1820331B785BB29B00EB5871
:10C390009C46002B35D0331C83409A46019B032BCF
:10C3A00035D0A023DB059B46434682005A44D35830
:10C3B0000592C022920213401B0C191C534693464F
:10C3C000029A1A4212D1032926D00134042CC9D171
:10C3D000039B002BB1D0A223A022DB00D205D358AF
:10C3E000029A9A42A9D0049F0293B5E70229ECD1A0
:10C3F000019B032B16D06346002BE6D00199E04742
:10C40000E3E7019B032BE0D1331C83409A4652465D
:10C41000049B13430493C4E7019B032BEBD18023BC
:10C420009B029B4643460599CB589A4652464F4B32
:10C43000134042468B508B585A461A43131C4246AF
:10C440008B50039B0133DBB20393D4E7C1214848EF
:10C45000890041580B4200D149E73F4B14601A68EC
:10C460000134012A00D047E7C1224149920089588E
:10C4700002220A4200D13FE700211960374B1443E2
:10C480001A68012A00D03CE7C12239499200895834
:10C4900004220A4200D134E700211960304B1443D2
:10C4A0001A68012A00D031E7C12231499200895827
:10C4B00008220A4200D129E7002114430022196012
:10C4C000284B02921A68012A00D026E700221A603F
:10C4D00080231B061C43A022A223D205DB00D358D5
:10C4E00002931AE7A223224ADB00D058D1581E4DEE
:10C4F000C00489032B68C00E890F9847A30700D496
:10C5000013E71C4B1A4A184DD058D158C004890360
:10C510006B68C00E890F9847630700D408E7A32310
:10C52000134ADB00D058D1580F4DC0048903AB68C3
:10C53000C00E890F9847230700D4FCE60C4A0E4B27
:10C54000094DD058D158C0048903C00E890FEB683B
:10C550009847F0E600610040046100400861004037
:10C560000C6100407C610040C8210020FFFFFCFFFF
:10C5700000600040140500001C050000F0B557469F
:10C580004E464546E0B43B4C031CE27E0820002AA0
:10C5900004D01CBC90469946A246F0BD002B67D043
:10C5A00001221868A1258240A020ED00C00542515B
:10C5B000A94603251A68AA46C132FF3292001550D7
:10C5C00000255A68AC46C132FF32920015509F696F
:10C5D000294A2A4D57511D7DA84647465D7D3D435A
:10C5E000274FD5515D681F68A846264D57514746CD
:10C5F000254D57511D7D012D19D19F683E1CE02707
:10C600007F00B8464644B70066463E50DE68B540F7
:10C610004E4685515646DD68C135FF35AD002E507A
:10C620004E46D8689D689051A220C00015501A69E6
:10C630006160226000290DD0197F0023134A14483D
:10C640001360144A1360C1230B4A9B00D050022090
:10C65000FFF7B6FCA0230421074ADB00D1500023DA
:10C660000122E3752376A375E276A376002090E796
:10C67000094B95E71022002000200040240500000F
:10C680006C0500000C050000140500001C21004092
:10C69000800002004421004048270200F0B5264AED
:10C6A000041C937D1120002B00D0F0BD0125917555
:10C6B00022482349938294600B6005600B60938A43
:10C6C000E05C938A1F4C01339BB293821E4BE05077
:10C6D0005068002801D00020E7E70027261C1D1C19
:10C6E0000130FF30947D938AA34203D312E0938AF2
:10C6F000834202D00B68002BF9D0938A8342F2D098
:10C700000F60938A9468E45C938A01339BB29382AE
:10C710007451E7E78023918A5B0099420AD0084967
:10C720000B68002BFCD001210020084B196000236E
:10C730009375BAE70F20FAE7102200200820004086
:10C740001C210040002000401C0500000C2000407F
:10C75000024B987D431E9841C0B2704710220020C2
:10C76000F0B5474680B4444B5A68002A05D081266C
:10C77000C224424DB600A4002E51DC7D002C0DD009
:10C780001C7E002C1DD0002A00D16EE08121C12327
:10C790003A4A89009B00D15011200FE0D975997E4B
:10C7A000D8605C761C7600292BD0002A0DD0812120
:10C7B000C1230020314A89009B00D15004BC90461F
:10C7C000F0BD18611976002AF1D12D4C2D4D226053
:10C7D0002A4A2D489046A322D2009446296806682A
:10C7E0004A1E91412268C9B2571EBA41D2B2002EE8
:10C7F00010D1002A27D10029F0D000220320DA75B9
:10C80000DCE7204A1160204A116001211B4A1160B7
:10C810005A68CAE70029F0D1002A16D1D97D00292B
:10C8200017D10160624641468A585A7ED97D9142AD
:10C83000D4D80022DA759B7E002B18D001220F4B32
:10C8400000201A60BAE70029D7D100220F20DA753C
:10C85000B4E74646614602605A7E7158DE68B154BC
:10C860005A7E0132D2B25A76DFE71120A6E70122C2
:10C87000064B00201A60A1E7102200200020004093
:10C8800044210040242100400821004004200040B1
:10C89000064A937E002B07D105490B6005490B60C2
:10C8A000054901330B6093767047C0461022002083
:10C8B000242100400821004000200040C12210B582
:10C8C000604B92009A5884B092054DD55E4A11682B
:10C8D000002949D0002111608121C22289009200E3
:10C8E00099505A4B9A7E002A02D10121584A116070
:10C8F000022269460A7090215248C90042584250AB
:10C9000069460392DA7D68460A72DA68196801920C
:10C910000022DA751A765B6898474E4A1368002B36
:10C9200010D04A4B988A997D81424FD900211160DD
:10C930009A8A9968895C9A8A013292B29A82464BA5
:10C94000404AD150454B1A68002A0BD000221A6089
:10C950003E4B9A7E002A02D001213A4A1160DA7DCC
:10C96000002A42D104B010BDC123364A9B00D358DF
:10C970005B07D2D53A490B68002BCED0334BD87D1C
:10C9800000283FD10860A321C90052585A7ED97DA2
:10C990009142C2D11A7E002A41D19A7E002A02D148
:10C9A00001212B4A11608120C22226498000920079
:10C9B0008850002268460121DA755A7E01700272A1
:10C9C000DA68196801925B689847A6E70020106052
:10C9D0000029B7D06A46107011729A689875196864
:10C9E00001925B6868469847ACE7002268460121DF
:10C9F000DA755A7E01700272DA68196801925B6812
:10CA00009847AFE700200860A320C000597E125865
:10CA1000D86842545A7E0132D2B25A76B6E7DA75F5
:10CA20001A69D968DA6000226C46587E1A765A76FE
:10CA30000132207201912270196868465B6898473C
:10CA40006BE7C04600200040242100401022002057
:10CA5000042000401C2100401C050000442100402F
:10CA60000821004029DF704728DF704730B583B0C8
:10CA7000002806D0112806D108230F4A11680B435D
:10CA8000136003B030BD021C0C4801788B005B18AA
:10CA90009B00C518281CE9686B694C00641829794B
:10CAA000074DA4002D680C300095064D6459A04731
:10CAB0000422054B1A70E4E7102300202C220020EA
:10CAC0001C2300200023002015230020F0B55F4622
:10CAD0004D4644465646F0B45E4F85B03C785E4DB8
:10CAE000012C00D188E0002C00D16DE0022C16D082
:10CAF000032C0DD1594B1868FFF7B6FF021E07D063
:10CB0000112800D080E00823554A11680B431360B8
:10CB100005B03CBC90469946A246AB46F0BD504B92
:10CB200099461B6803932B789E00F3189B00EE1820
:10CB30003369984680235B05196940460904090C4E
:10CB40009B4604F015FD454B824618605B4619690B
:10CB50004346581EF3880904C018090C04F008FD68
:10CB600082454CD00323039C9C434B461C603D4BA9
:10CB70001B68002B02D10233234262D000223A4BC1
:10CB80001A703A4B5869431C54D080235B051969CD
:10CB90000904090C04F0ECFC031C80225205106906
:10CBA00011690004013B000C09045843090C04F00E
:10CBB000DFFCFFF759FF021EAAD0112824D1082359
:10CBC0001C434B461C60A3E7294B1C60294B1C608F
:10CBD0006B78002B9CD02B789A00D3189B00ED1813
:10CBE000EA88254B1A602B79032B27D0042B25D0FC
:10CBF000012B00D08CE73B7000F000FC88E701239C
:10CC0000039A9A431443B0E72B789800C018800029
:10CC10002E18301C184DF3682D685C00E41831792B
:10CC200073690095154DA4000C306459A047042386
:10CC30003B706DE780235B055B69AEE700F020F891
:10CC400066E7094A50461370FFF70EFFFFF70EFF25
:10CC50005EE7C046152300202C2200202823002058
:10CC60001023002024230020142300200010001093
:10CC700020230020F82200201C2300200023002075
:10CC8000F0B55F4656464D464446F0B45B4B5C48B3
:10CC90001A78802791008A1892009B18DD681E6917
:10CCA0006A005219920082181489508952686043B0
:10CCB00080469044DA881B89141C9946514B924651
:10CCC0009B4600235A467F05396983B009044C44CA
:10CCD0001360090C301CA41904F0D0FC002924D1E5
:10CCE0003B699BB29A4537D044456CD0022D33D076
:10CCF000301C3969484489B204F0C0FC424B8908B1
:10CD000019603969201C0904090C04F0B7FC0029DA
:10CD100032D102223D4B1A70FFF7D8FE03B03CBC63
:10CD200090469946A246AB46F0BD022D14D0301C69
:10CD3000396948440904090C04F0A0FC324B890805
:10CD4000196039694445E4D00904090C201C04F039
:10CD500095FC0029DDD00FE080235B051969301CAC
:10CD60000904090C04F004FC0322294B1860274B2A
:10CD70001A70FFF7ABFED1E780256D0529692B6995
:10CD80006A4699464346D380D08889B204F0F0FBC6
:10CD90006A464B46A6B2D380071CD188301C04F0EB
:10CDA000E7FBBFB280B287421DD02C692969301CD5
:10CDB00089B204F063FC5B462404240C89B2641A33
:10CDC000A4081C60A5E74B46002BC5D0022DC3D09C
:10CDD000301C3969484489B204F050FC0A4B890878
:10CDE00019603B6995E7434624041B041A0C240C84
:10CDF000131B5A469B0813608BE7C0462C22002069
:10CE000000230020FC2200202423002015230020E2
:10CE100028230020F8B546464F46C0B41D4D08AC47
:10CE200024886E78A44604240A2E2DD02C78A0469F
:10CE3000A419092C00DD0A3C14277C432C196261DB
:10CE4000221C20710C32B94681C981C2E38063463D
:10CE500023810024104B01361A786E70A24213D140
:10CE600042464F465743ED190C4AE98811602A792A
:10CE7000032A07D0042A05D0012A05D11A70FFF72A
:10CE800025FE01E0FFF7FCFE201C0CBC90469946F5
:10CE9000F8BDC0462C220020152300201C230020B2
:10CEA000082170B50C1C244A82B013681C4009D0BC
:10CEB0008B431360214B224A1B789B009B58984759
:10CEC00002B070BD1F4D2B789800C3189B00EE1860
:10CED000317904292AD0F268736950008218301C15
:10CEE000194E920036680C300096184E9659002262
:10CEF000B04701202A7893009B189B00EB181C7107
:10CF0000DC80D8601C615C611C816B780132013B64
:10CF1000D2B26B700A2A06D02A7000220C4B1A700B
:10CF2000FFF7D4FDCCE700232B70F6E70122084B76
:10CF30001A70FFF7CBFDC3E7102300201423002055
:10CF4000682702002C2200201C2300200023002040
:10CF50001523002030B5244B83B05869431C3ED0C4
:10CF600080235B0519690904090C04F001FB041C0A
:10CF700080235B051869196900041A69000C631E97
:10CF800058431A4B09041B68090C92B29208594382
:10CF9000FFF768FD021E06D0112806D10823144AA7
:10CFA00011680B43136003B030BD12490B78980031
:10CFB000C01880000D18281CEB6829795C00E41863
:10CFC0006B690D4DA4002D680C3000950B4D645914
:10CFD000A04704220A4B1A70FFF778FDE3E780238D
:10CFE0005B055C69C4E7C0460010001028230020E0
:10CFF000102300202C2200201C23002000230020CE
:10D0000015230020802230B55205146921492404DB
:10D01000230C0C6883B0013C5C431F4B5869431CD4
:10D0200035D011690904090C04F0A2FA80235B05CC
:10D0300019691A4B09040138090C41431A68201C6C
:10D04000FFF710FD021E06D0112806D10823144A4E
:10D0500011680B43136003B030BD12490B78980080
:10D06000C01880000D18281CEB6829795C00E418B2
:10D070006B690D4DA4002D680C3000950B4D645963
:10D08000A04704220A4B1A70FFF720FDE3E750691E
:10D09000CCE7C046282300200010001024230020E5
:10D0A000102300202C2200201C230020002300201D
:10D0B00015230020082330B51E4D83B02C68234271
:10D0C00014D1A30702D501231C432C6002221A4B62
:10D0D0001A701A4B1868FFF7C7FC021E04D01128FB
:10D0E0000DD108231C432C6003B030BD9C43124B70
:10D0F000134A1B782C609B009B589847F4E7114912
:10D100000B789800C01880000D18281CEB6829794E
:10D110005C00E4186B690C4DA4002D680C30009580
:10D120000A4D6459A0470422094B1A70FFF7CEFC40
:10D13000DAE7C04610230020142300202823002013
:10D14000682702002C2200201C230020002300203E
:10D1500015230020F0B58027274C7F0523783969F7
:10D160009A00D3189B00E3181A89DD881B69AD1853
:10D17000ED18090483B0090C281C04F07FFA1F4B3A
:10D180000E1C5869431C35D039690904090C04F098
:10D19000EFF980235B05196901380904090C414343
:10D1A000174B89191A68281CFFF75CFC021E06D071
:10D1B000112806D10823134A11680B43136003B0EA
:10D1C000F0BD23789800C01880002618301C0E4C43
:10D1D000F36824685D003179ED18736900940B4C95
:10D1E000AD000C302C59A0470422094B1A70FFF7F0
:10D1F0006DFCE4E77869CCE72C22002000100010D9
:10D20000FC220020102300201C23002000230020EB
:10D210001523002030B5154B83B01868FFF724FCA8
:10D22000021E06D0112806D10823114A11680B43AB
:10D23000136003B030BD0F490B789800C018800010
:10D240000D18281CEB6829795C00E4186B690A4DFD
:10D25000A4002D680C300095084D6459A0470422A5
:10D26000074B1A70FFF732FCE3E7C0462823002083
:10D27000102300202C2200201C230020002300204B
:10D2800015230020082370B52A4D82B02C68234254
:10D2900009D09C43284B294A1B782C609B009B5843
:10D2A000984702B070BD0122234B1A70244B586975
:10D2B000431C3BD080235B0519690904090C04F069
:10D2C00057F9061C80235B051869196900041A695F
:10D2D000000C731E58431B4B09041B68090C92B2C7
:10D2E00092085943FFF7BEFB021EDAD0112803D182
:10D2F00008231C432C60D4E713490B789800C0180E
:10D3000080000D18281CEB6829795C00E4186B6913
:10D310000E4DA4002D680C3000950D4D6459A047AA
:10D3200004220C4B1A70FFF7D1FBBAE780235B0590
:10D330005E69C7E71023002014230020682702003D
:10D3400000100010282300202C2200201C23002085
:10D35000002300201523002030B5224B83B05869EC
:10D36000431C3AD080235B0519690904090C04F0B9
:10D37000FFF8031C80225205106911690004013B6B
:10D38000000C09045843090C04F0F2F8FFF76CFB99
:10D39000021E06D0112806D10823134A11680B4338
:10D3A000136003B030BD11490B789800C01880009D
:10D3B0000D18281CEB6829795C00E4186B690C4D8A
:10D3C000A4002D680C3000950A4D6459A047042232
:10D3D000094B1A70FFF77AFBE3E780235B055B6973
:10D3E000C8E7C04600100010102300202C220020A7
:10D3F0001C2300200023002015230020F0B58027E7
:10D40000404D7F052C783969A60033199B00EB1835
:10D41000DA8889B283B08A4218D8196918898C468B
:10D42000920860445969FFF71DFB021E06D01128BF
:10D430002DD10823344A11680B4313603419A4001A
:10D440002C19E288314B1A6003B0F0BD19693869B4
:10D450008C460004000C121A18893C695969604412
:10D4600080188918A2B29208FFF7FCFA021E06D0B3
:10D47000112827D10823244A11680B431360802305
:10D480005B051B69214A1B041B0C1360DCE72B782E
:10D490009800C01880002918CB68081C5F00FF188E
:10D4A0000B79BF009C464B6919490C300968009103
:10D4B00018497F586146B8470422174B1A70FFF786
:10D4C00005FBBBE72B789800C01880002E18301C95
:10D4D0000F4DF3682D685C003179E418736900958D
:10D4E0000C4DA4000C306459A04704220A4B1A705A
:10D4F000FFF7ECFA80235B051B69044A1B041B0C35
:10D500001360A1E72C22002010230020F822002025
:10D510001C23002000230020152300200823F0B541
:10D520004D4644465F4656461A1CF0B4774D85B0CA
:10D530002C68224091465FD1754F3E78B30003932B
:10D540009B199B00FB181A69511EDA881B898A18DF
:10D55000D318029380235B059B4619696D4B1B68AA
:10D560009846002B57D16C4B1B689A4680235B056D
:10D57000196902980904090C03F0FAFF824500D2E8
:10D5800085E0434600D17AE0002B00D079E0039B90
:10D590009C466644B600BC192179042900D1AFE04D
:10D5A000201CE3680C305A00D21863695B4C92006F
:10D5B000246800945A4C14590022A0474146012087
:10D5C0003A7893009B189B00FB181971D86041466C
:10D5D0004046D9801861586118817B780132013B3F
:10D5E000D2B27B700A2A00D17BE03A7000224D4B08
:10D5F0001A70FFF76BFA07E09C434B4B4B4A1B78C2
:10D600002C609B009B58984705B03CBC90469946BF
:10D61000A246AB46F0BD404B09041B68090C0298BA
:10D620009A4603F0A5FF5045A0D14A46404B1A60E8
:10D6300001234A4623432B603B4B1A703D4B5869EC
:10D64000431C51D05B4619690904090C03F090FF93
:10D65000031C80225205106911690004013B000C73
:10D6600009045843090C03F083FFFFF7FDF9021E7C
:10D67000CAD011283BD109231C432C60C4E7002BDE
:10D6800005D00322284B1A70FFF764FDBCE7002287
:10D69000274B50461A60244B02321A70FFF7E4F908
:10D6A000021EB1D0112818D03B789900CB189B00EE
:10D6B000FD18E9684C006418281C29796B69174D1E
:10D6C000A4002D680C300095154D6459A047042224
:10D6D000144B1A70FFF7FAF996E708231C432C60E5
:10D6E00092E700233B7081E75B465B69B1E73B78DB
:10D6F0009800C01880003D18EB685C00E418DBE778
:10D700000122084B1A70FFF7E1F97DE71023002092
:10D710002C220020FC220020282300201C23002093
:10D720000023002015230020142300206827020076
:10D730002423002000100010F0B54E465746454601
:10D740000823E0B48C4E82B03468234200D093E0CA
:10D750008A4B1A68571C1F60894B1D68002D50D1D9
:10D76000884B802299461B7852059D00ED18AB002E
:10D77000984608234D469A464544AA4453469B681A
:10D780001169581EEB880904C0182B89090CC018B0
:10D7900003F0EEFE874200D282E07B4B00D17BE0BB
:10D7A0001F68002F00D19CE001231A1C224000D0EA
:10D7B0008DE023433360754B1A70754B5869431CD9
:10D7C00000D1BEE080235B0519690904090C03F050
:10D7D000CFFE031C80225205106911690004013B31
:10D7E000000C09045843090C03F0C2FEFFF73CF992
:10D7F000021E49D0112800D0A7E009231C43346041
:10D8000042E00421614B197080235B051F693F04CE
:10D810003F0C57435E4A5069421C3BD019690904CA
:10D82000090C03F0A5FE80235B0519690138090482
:10D83000090C41432A1C381CFFF714F9021E23D09F
:10D8400011284AD04F4801788B005B189B00C518FF
:10D85000281CE9684C006418A40029796B694D4DB7
:10D860000C302D6800954C4D6459A04704224B4B59
:10D870001A70FFF72BF907E09C43444B484A1B788A
:10D8800034609B009B58984702B01CBC9046994658
:10D89000A246F0BD5869C6E71B68002B00D083E79D
:10D8A00002223A4B381C1A70FFF7DEF8021EEBD04A
:10D8B000112812D04B461B789900CB1849469B0083
:10D8C000CD18E968281C4C006418A400C5E70322A1
:10D8D0002E4B1A70FFF73EFCD6E708231C4334603A
:10D8E000D2E7297904293DD053464046294C5B684C
:10D8F00024685A00D2186B690094274C920048445F
:10D900000C3014590022A0474B4601201A78494692
:10D9100093009B189B004B441F71DF80D8601F61F0
:10D920005F611F814B465B780132013BD2B24B7085
:10D930000A2A1DD00A700022184B1A70FFF7C6F889
:10D94000A2E780235B055B6944E74B461B789800A0
:10D95000C0184B4680001D18EB68281C5C00E418BA
:10D96000A4007AE701220D4B1A70FFF7AFF88BE79E
:10D9700000230B70DFE7C04610230020282300207F
:10D98000242300202C220020FC220020142300202D
:10D99000001000101C23002000230020152300206D
:10D9A0006827020070B5274C82B023789800C01811
:10D9B00080002518281CEB6829795A00D2186B6959
:10D9C000214D92002E680C300096204E9659002270
:10D9D000B04700210126227893009B189B00E31892
:10D9E0001971D980DE60196159611981637801323A
:10D9F000013BDBB2D2B263700A2A0BD02270002145
:10DA0000134E14483160144E01703160002B05D163
:10DA100002B070BD002222700022F0E793009A1835
:10DA20009200A418E3882B602379032B07D0042BE2
:10DA300005D0012BECD10370FFF748F8E8E7FFF7BA
:10DA40001FF9E5E72C2200201C23002000230020E2
:10DA50002023002015230020F8220020F0B547469F
:10DA600080B4654D04262C7882B0231CB3430ED0BD
:10DA7000022810D003280AD10821604A13681942ED
:10DA800058D0022C4FD0032C48D0012C46D002B0E5
:10DA900004BC9046F0BD022C45D0032C59D0012C7B
:10DAA000F5D10821554A1368194237D1544F5549C9
:10DAB0003B780E689A00D3189B00FA18D1888E1B09
:10DAC000B6B2D680002E6ED1D168137948004118C5
:10DAD0009846101C53694C4A890012680C30009219
:10DAE0004A4A8A58414694460022E0473A789300D1
:10DAF0009B189B00FB181E71DE80DC601E615E615E
:10DB00001E817B780132013BD2B27B700A2A66D03B
:10DB10003A7000232B70FEF7D9FFB8E78B431360F0
:10DB2000FEF7D4FFB3E73A4B3A4A1B789B009B5869
:10DB30009847ACE7384A136801331360032B35D09C
:10DB4000022CEDD1324B354A1B789B009B589847ED
:10DB50009DE70821294A13681942DFD1304B284E2E
:10DB60001A683478571C1F6080235B051969A3006D
:10DB700098461B199B00F3181A690904501EDA888D
:10DB80001B898018C018090C03F0F2FC8742C7D328
:10DB90002CD0231C43449B00F3181B79042B20D06A
:10DBA000FFF700FF73E7FFF729FC70E714480278DE
:10DBB00093009B189B00C418201CE2686369510005
:10DBC0008A182179104C920024680C3000940F4C74
:10DBD00014590D22A0472E70FEF778FF57E73E70CC
:10DBE00097E701232B70FEF771FF50E70D4B1B6881
:10DBF000002BCED194E7C04615230020102300202F
:10DC00002C220020F82200201C23002000230020CA
:10DC1000142300207C270200202300206827020014
:10DC200028230020FC22002010B500202C240022F4
:10DC30000121464B18551434185502341A53023436
:10DC40001A531034185502341A530234D960187616
:10DC5000196259639964D9651A705A701A71DA8019
:10DC60001A615A611A815A835A629A629A83DA85D2
:10DC70009A63DA631A86DA641A651A665A661A5360
:10DC80001034185502341A5302341A5310341855EC
:10DC900002341A530634195104341A5104341A51F7
:10DCA0000C3C1A531034185502341A5306341951C7
:10DCB00004341A5104341A510C3C1A5310341855B8
:10DCC00002341A530634195104341A5104341A51C7
:10DCD0000C3C1A5310341855BA201A5206301950F9
:10DCE0001967C3315A5004315A500C395A525A6785
:10DCF0009A67174B1A80174B5869431C22D0802310
:10DD00005B0519690904090C03F032FC80235B05EB
:10DD10001B6902381B041B0C58430F4B0021186071
:10DD200000230E4A002013600D4A136013815381B3
:10DD30000C4A11700C4A13600C4A136004220C4BFD
:10DD40001A6010BD80235B055869DFE72C22002094
:10DD50000C2300200010001018230020282300208E
:10DD6000002300201523002020230020F82200207B
:10DD700010230020F0B557464E464546E0B4344BDC
:10DD80001A680823520705D4181C1CBC90469946F3
:10DD9000A246F0BD002857D0002955D00368002BBB
:10DDA00052D080277F053A69868892B2072396422F
:10DDB000EAD80F2EE8D9C288002AE5D0254B724355
:10DDC00099461B68041C9846234B424458690D1C15
:10DDD0009246431C3AD039690904090C03F0C8FB88
:10DDE00080225205136901381B041B0C584307237A
:10DDF0008245C9D8B107C7D1184F033B3E88012ED1
:10DE0000C2D043466B600C232E60454673431448D2
:10DE10000136C1184D6025681D50A5880D81E08828
:10DE200048816843136911699BB21469C0180138AD
:10DE300089B2A4B203F02CFC231C4A46434343445A
:10DE400013603E8000239FE70E239DE77869C7E7B4
:10DE50001023002018230020001000100C230020A5
:10DE60000023002030B5114B1C680823640701D43F
:10DE7000181C30BD002806D0002A04D00368002BEF
:10DE800003D00723F4E70E23F2E7094C2568002DA1
:10DE9000F7D0258940686943091860896468684338
:10DEA00000198142EDD213605160E1E71023002098
:10DEB00000230020F0B5474680B41E4C051C2468A2
:10DEC00082B00820640703D402B004BC9046F0BDC1
:10DED00000292CD0002D2AD02C680138002CF3D139
:10DEE000154C2668002EEFD06E686789B0462689EB
:10DEF0007743B4466668BC19A045E5D2002AE3D052
:10DF00009445E1D3D418A445DEDB09308C07DBD17E
:10DF100003242342D8D146462642D5D1181C131CCF
:10DF200000900A1C0120291CFEF774FFCCE70E208C
:10DF3000CAE7C0461023002000230020F0B5474662
:10DF400080B41E4C051C246882B00820640703D4EA
:10DF500002B004BC9046F0BD00292CD0002D2AD080
:10DF60002C680138002CF3D1154C2668002EEFD018
:10DF70006E686789B04626897743B4466668BC19DF
:10DF8000A045E5D2002AE3D09445E1D3D418A445B6
:10DF9000DEDB09308C07DBD103242342D8D146468F
:10DFA0002642D5D1181C131C00900A1C0420291CE1
:10DFB000FEF730FFCCE70E20CAE7C0461023002052
:10DFC00000230020F0B54F464646C0B4254C83B030
:10DFD000256808246D0705D4201C03B00CBC9046AE
:10DFE0009946F0BD002906D0002804D00C68002C0A
:10DFF00003D00724F0E70E24EEE71B4D2E68002E19
:10E00000F7D04E682F89B4466E897E43B1466E685C
:10E01000B0464E464644B445EBD2002AE9D097427A
:10E02000E7D3D618B742E4DB860701D01024D3E744
:10E0300003263342FAD167463E40F7D1884663440F
:10E04000191C171C814603F024FC42460C2312685D
:10E05000009753434046ED580221321C4B46A847D7
:10E06000BAE7C0461023002000230020F0B54F4639
:10E070004646C0B4204A83B012680824530705D42A
:10E08000201C03B00CBC90469946F0BD002830D04F
:10E090000368013C002BF3D1184B1A68002AEFD01B
:10E0A0001D895E895A686E434768B618B742E7D241
:10E0B0000934BB07E4D188468146291CB81A03F00D
:10E0C000DDFA093C0029DBD14046291C03F0D6FAD1
:10E0D00089B20029D4D14346002BD1D04744BE4257
:10E0E000CED30022032000924946FEF793FE041C83
:10E0F000C6E70E24C4E7C0461023002000230020FA
:10E10000074B1A680823520701D4181C70470028CF
:10E1100004D0044B5B7803600023F6E70E23F4E79A
:10E12000102300202C220020A02210B5064BD2057F
:10E13000D15880231B041C1CA1208C430B40034995
:10E14000C0001450535010BD040500000C05000021
:10E15000F8B54F464646041CC0B4112809D0122811
:10E1600039D0132839D0142839D00CBC90469946A0
:10E17000F8BD0025012911D000291FD00229F4D1B2
:10E180006B005D191F4B5D196E78002EEDD01E4B94
:10E190001B68002BE9D0301C9847E6E7194B6F004D
:10E1A000984642467B19D65C43445B78002B18D1D5
:10E1B0007F194744BA78154B5A55E6E71448FDF7DE
:10E1C00053FD104A6B005B19D318104A9B78565DBB
:10E1D0009E42CAD1D9E70125CCE70225CAE703252B
:10E1E000C8E70C4B0A481B689900C9180A4B49003C
:10E1F0001A1C9946FDF7BCFC0028D9D14B461C706F
:10E20000D6E7C046A8230020602300205823002022
:10E21000642300205C2300205023002008B50378ED
:10E22000112B06D0122B12D0132B12D0142B12D07C
:10E2300008BD00235A00D318084AD318587800287C
:10E24000F6D0074B1B68002BF2D09847F0E701236C
:10E25000F0E70223EEE7113BECE7C046A8230020DD
:10E2600060230020F8B5C74B1B68DB0700D4F8BD5E
:10E27000C54A1478172CFAD8C449A300CB589F4636
:10E28000A022C34BD205D1588023DB031C1CA12044
:10E290008C430B40BF49C00014505350BE4B00226A
:10E2A0001B68BE489900C918FDF762FCDFE7A02390
:10E2B000F021B84ADB05490499500021043A9950ED
:10E2C000D5E7A022B24BD205D1588023DB031C1C1A
:10E2D000A1208C430B40AF49C00014505350AE4BAB
:10E2E00000221968AD48FDF743FCC0E7AC4BA12004
:10E2F0001968E0235B048B43A0210026F025C905A3
:10E30000C000A44C0B50A24B0E51CB586D046B4077
:10E310008025AD032B4000D120E10D5003230E5189
:10E32000082113709C4B00221B689C485943FDF741
:10E330001FFC9CE79A4BA1201968E0235B048B43E8
:10E34000A0210026F025C905C000924C0B50904B2F
:10E350000E51CB586D046B408025AD032B4000D18E
:10E3600004E10D5004230E512821DAE7A023A12255
:10E37000E021DB05D2004904802499500021854822
:10E38000A40319501C50995071E7864D281CFDF7C5
:10E390006BFC11231C1B00D1C7E0002800D0C4E097
:10E3A00080237F4E1B043360012C10D0C8306421C1
:10E3B000604303F0DDF8784B00221B684343281CC0
:10E3C000191CFDF7D5FBF02332685B041340A02233
:10E3D0007049D2055350A1230021DB00D15046E7FC
:10E3E0006F4BA1211A68F0235B049343A022C9005C
:10E3F000D20553500021674BD15038E7684BA1201C
:10E400001968E0235B048B43A0210027F026C9058F
:10E41000C000604D0B505E4B4F51CB58760473409B
:10E420008026B603334000D18EE00E504F51022CAF
:10E4300000D1A0E02821147074E7A023A122C021FC
:10E44000DB05D2004904C024995000215148E4035F
:10E4500019501C5099500AE7A023A122D021DB05B6
:10E46000D20049048024995000214A48E4031950FD
:10E470001C509950FBE6A023F021A122DB054904A2
:10E48000D20099500021434A9950F0E6E022444BD3
:10E4900052041B68A1219A43A023C900DB058024F4
:10E4A0005A5000223B48A4031A501C505A50DEE632
:10E4B0003B4BA1201968E0235B048B43A02100267D
:10E4C000F025C905C000334C0B50314B0E51CB58D1
:10E4D0006D046B408025AD032B403CD00D500E5198
:10E4E000052313702C4B002219682C484900FDF7B6
:10E4F0003FFBBCE62A4BA1201968E0235B048B4359
:10E50000A0210026F025C905C000224C0B50204B4D
:10E510000E51CB586D046B408025AD032B4022D0AB
:10E520000D500E5106231370D9E6F0231C4A5B04EC
:10E530001168A1200B40A021C000C9050B50002389
:10E5400014480B50136092E64E510B50022C15D01C
:10E5500004211470E6E60D510B50C1E70D510B502C
:10E5600002210323DDE60D510B50DBE70D510B506B
:10E5700004210423D5E612211470D3E6022114707D
:10E58000D0E6C046542300208423002090270200B8
:10E59000040500000C0500005C2300202C23002053
:10E5A0004C23002088230020002303280DD8A22319
:10E5B000A022DB00D205D258054B8000C0580123B1
:10E5C000834093435A1E9341DBB200200B70704787
:10E5D0005428020070B5DB4B041C1B680020DB07CD
:10E5E00000D470BD172CFCD8D74AA300D3589F463F
:10E5F000A022D64BD205D1588023DB031C1CA120BE
:10E600008C430B40D249C00014505350D14B0022D0
:10E610001B68D1489900C918FDF7AAFAE1E7A022C2
:10E62000CA4BD205D1588023DB031C1CA1208C438C
:10E630000B40C749C00014505350C64B0022196804
:10E64000C548FDF795FACCE7C44D281CFDF70CFB37
:10E6500011231C1B00D14CE1002800D049E180238C
:10E66000BF4E1B043360012C10D0C83064216043BE
:10E6700002F07EFFB74B00221B684343281C191C85
:10E68000FDF776FAF02332685B041340A022B0490C
:10E69000D2055350A1230021DB00D150A1E7A023D4
:10E6A000F021A122DB054904D20099500021A84A9B
:10E6B000002099501222AB4B1A7092E7A023A1229E
:10E6C000E021DB05D2004904802499500021A048B4
:10E6D000A40319501C5099501322A24B00201A7009
:10E6E0007FE7A023F0219A4ADB05490499500021D5
:10E6F000043A99509B4B00201C7072E7984BA12163
:10E700001A68F0235B049343A022C900D20553503A
:10E7100000238F4900205350924A137061E7904BB9
:10E72000A1211A68E0235B049343A0220026F02570
:10E73000D205C90086485350844B1650D3586D04F7
:10E740006B408025AD032B4000D1E9E055501650B9
:10E75000022C00D1F1E02821824B1C707D4B00225D
:10E760001B687D485943FDF703FA3AE7A023F021DF
:10E77000774ADB05490499500021043A99500C224C
:10E78000784B00201A702CE7A023A122D021DB05B2
:10E79000D20049048024995000216D48E4031950A7
:10E7A0001C50995014226F4B00201A7019E76C4BC3
:10E7B000A1211A68E0235B049343A0220025F024E2
:10E7C000D205C90062485350604B1550D3586404B9
:10E7D00063408024A403234000D199E05450155095
:10E7E000082103221AE05E4BA1211A68E0235B0492
:10E7F0009343A0220025F024D205C9005448535069
:10E80000524B1550D358640463408024A403234022
:10E8100000D18BE05450282115500422514B1A701E
:10E820009CE7E0224E4B52041B68A1219A43A0238F
:10E83000C900DB0580245A5000224548A4031A5021
:10E840001C505A50474B07321A700020C9E6A023CB
:10E85000A122C021DB05D2004904C0249950002127
:10E860003B48E40319501C50995015223D4B0020A1
:10E870001A70B6E63A4BA1211A68E0235B04934371
:10E88000A0220025F024D205C900314853502F4B57
:10E890001550D358640463408024A40323403CD023
:10E8A0005450155005222F4B2B481A70294B00222B
:10E8B00019684900FDF75CF993E6294BA1211A6814
:10E8C000E0235B049343A0220025F024D205C90075
:10E8D0001F4853501D4B1550D35864046340802487
:10E8E000A403234026D05450155006221D4B1A7005
:10E8F000A3E6F0231A4A5B041168A1240B40A0216F
:10E90000E400C9050B510023114C0B51136068E65C
:10E91000145053500221032280E714505350C1E792
:10E9200015505350022C0AD0042115E714505350AF
:10E93000042172E714505350D7E712210CE702214B
:10E940000AE7C04654230020F02702000405000017
:10E950000C0500005C2300202C23002088230020CD
:10E960004C23002084230020234B10B51960234B37
:10E97000041C1860224B1A60830712D50D22214B0C
:10E9800021481A700132DA7001329A7101325A72DA
:10E990004A080421FCF7C8FC002820D0E30703D470
:10E9A0001CE0C3070ED50020A023F022A1210024E3
:10E9B000DB055204C9005A5014495C500C315A50BE
:10E9C00000280BD112480021124AFDF7B7F80028A1
:10E9D00004D111480121114AFDF7B0F810BDFCF730
:10E9E000FDFC0028DAD10E4800210E4AFDF7A6F8FA
:10E9F000E307E5D5D8E7C0465C2300205423002078
:10EA000060230020A82300206C2802000C050000D1
:10EA10006428020065E201006828020029E1010083
:10EA2000502802001DE20100031C0720032B00D91F
:10EA30007047012A13D0012917D0002908D00229D4
:10EA400019D15800C3180D48C3185A700020EFE7B9
:10EA50005800C3180948C3189A700020E8E700223C
:10EA60000129E8D11A1C0D32D2B258000349C3184B
:10EA70005A540020DCE70720DAE7C046A82300202C
:10EA8000E0231D4ADB00D2581C4B1A400023C1076B
:10EA900001D5C0239B021343E0221749D2008B50BB
:10EAA000174B9A58154B1A400023810701D5C023F4
:10EAB0009B021343E0221249D2008B50114B9A580B
:10EAC0000E4B1A400023410701D5C0239B0213437C
:10EAD000E0220C49D2008B500B4B9A58074B1A403E
:10EAE0000023010701D5C0239B021343E0220649FE
:10EAF000D20000208B50704744000050FFFFFCFF05
:10EB0000480000504C0000505000005008B5032051
:10EB1000FFF7B6FF031C0020002B02D0062B00D00D
:10EB2000181C08BD10B50388102B08D0112B05D177
:10EB3000294A1368013B1360002B07D010BD264CF7
:10EB40002368002B11D001332360F7E70020022156
:10EB50000122FFF769FF00282BD0072829D01F4B7F
:10EB60001B68002BEAD09847E8E70020002101222B
:10EB7000FFF75AFF002808D0072806D0174B1B685C
:10EB8000002B00D098472368DDE7012002210722EF
:10EB9000FFF74AFF002801D00728EFD1002002210B
:10EBA0000422FFF741FF0028EDD00728E6D12368B3
:10EBB000C9E7012002210722FFF736FF002801D014
:10EBC0000728CCD1002000210A22FFF72DFF0028C2
:10EBD000B4D00728C3D1B1E7B8230020B423002064
:10EBE00010B5244B82B00C1E186018D06B46002064
:10EBF000991DFFF7D9FC002801D002B010BD6B466B
:10EC00000130D91DFFF7D0FC0028F6D16B46DB7927
:10EC1000002B29D16B469B79002B28D12370164BF2
:10EC20001B68002B01D00020E7E700200221012211
:10EC3000FFF7FAFE002801D00728DED101200221CB
:10EC40000722FFF7F1FE002801D00728D5D10020C8
:10EC500000210A22FFF7E8FE0028E4D0C31F5A1E55
:10EC600093415B421840C8E702232370D7E70B2388
:10EC70002370D4E7B4230020B82300203CDF704782
:10EC800048DF704775DF704776DF70478ADF70476F
:10EC90008BDF70478CDF704710B5041C0448211CC3
:10ECA00001F0F0FA0348211C00F0AEFA10BDC04696
:10ECB000142700200824002000B597B001A8FFF712
:10ECC0001FFA00282CD1019B002B04D00122194BE4
:10ECD0001A7017B000BD082202A90B7306AB02938D
:10ECE00015480EAB0A718B6001F09CFF00281DD106
:10ECF000FC231248027813400370A0230381503B89
:10ED00004381002343608381FFF7C0FF00280AD1BD
:10ED10000120FFF75FFC0028DBD0FCF777FBD8E78A
:10ED2000FCF774FBCFE7FCF771FBF1E7FCF76EFB38
:10ED3000DEE7C04664250020052400201C240020B6
:10ED400010B5041C023CFEF789FE012C03D8054BCC
:10ED50001A78002A00D110BD00221A70FFF7ACFF0C
:10ED6000F9E7C04664250020F8B5051C01F0C2FF94
:10ED70004E48291C00F088FD4D4E291C301C01F026
:10ED8000EFFA4C4C291C201C00F0ACFA281CFFF7B1
:10ED9000C9FE2B881B2B42D02ED91D2B09D01F2B2F
:10EDA00006D1291CA8880831FFF76CFF002833D151
:10EDB000F8BD291C2E7C1131F608F9D0687CAF7C97
:10EDC000041C022F6DD0002304E0CA185278CC5CDA
:10EDD000022A2DD001341B199E42F6D80022032F9F
:10EDE00005D160E08B185B78885C032B54D0441C01
:10EDF00012199642F6D8DBE7102BD9D1A988301C1E
:10EE0000002201F04DFB00280FD1A988201C002210
:10EE100000F05EFB0028CBD0FCF7F8FAC8E72B7AAD
:10EE2000022BC5D1FFF748FFC2E7FCF7EFFAECE78A
:10EE30000233013CCB18A4B26408B9D05A781978CF
:10EE40001D4E12020A43B2420DD00233002006E0EA
:10EE50005A781978120202330A43B24203D00130C1
:10EE6000A042F5D3A4E7FFF713FF0020FFF7B2FBA2
:10EE700000280ED10222281C0024104908300B78EB
:10EE80004C6093430E4A0B70FFF704FF0D4B1C7050
:10EE90008EE7FCF7BBFAEDE70232441E8B18A4B2F2
:10EEA000CAE70223C5E70222F7E7C046682500202B
:10EEB00014270020082400200D1800001C24002026
:10EEC000DC2802000424002038B50B78113BDBB2AB
:10EED000122B16D80C1C2B499B00CB58051C9F46A7
:10EEE000D622294800215200FCF792F90020FFF7B2
:10EEF00071FB00283FD1254C2378012B3ED0013BEC
:10EF00002370002038BD002AFBD0101CFCF77EFACD
:10EF1000F7E763681C48198800F07CFC0028F0D0F3
:10EF2000F4E70720FFF756FB002821D16368184C4F
:10EF30001A88184B201C1A80291C042202F0A9FCF4
:10EF4000201C01F0D1FD00280FD1104A13780133A5
:10EF5000DBB21370002BD4D1FFF7AEFED1E70C4823
:10EF600001F0C2FD0028CCD0D0E7FCF74FFAECE767
:10EF7000FCF74CFADAE7FCF749FABCE7FFF79CFE2E
:10EF80002378BCE78C280200682500201424002088
:10EF9000182400206625002008B507281ED00A285E
:10EFA0000ED0042800D008BD114B13211888FFF79C
:10EFB0006BFE0823021C9A43F5D0FCF727FAF2E710
:10EFC0000020FFF707FB00280FD1FFF79FFD002867
:10EFD00008D1FFF753FE0028E5D0EEE70122054BEC
:10EFE0001A70E0E7FCF712FAF3E7FCF70FFAECE728
:10EFF000662500200424002008B50B78012B06D0DC
:10F00000022B03D189880548FCF7C6FE08BD01F034
:10F0100005FA0028FAD0FCF7F9F9F7E7E42802002E
:10F020000B7810B5002B00D010BD041C00F010FAB6
:10F03000002807D1201C00F0C1F90028F4D0FCF70B
:10F04000E5F9F1E7FCF7E2F9F4E7C04630B5002056
:10F0500087B003215A4A0023FCF7FEFC002801D0A8
:10F06000FCF7D4F903205749574AFFF77DFC0028E5
:10F0700001D0FCF7CBF901AC0020211CFFF7B0FD5B
:10F08000002801D0FCF7C2F92578023D6B425D41B2
:10F09000EDB2FCF759FE002801D0FCF7B7F94B4858
:10F0A000FCF77AFE4A490422684602F0F2FB684601
:10F0B00048494822002302F09BF9002801D0FCF7C0
:10F0C000A5F901200021221C02F0FCF9002801D042
:10F0D000FCF79CF9404802F00DFA002801D0FCF73B
:10F0E00095F9201C02F010FA002801D0FCF78EF9E7
:10F0F0003A4802F0BBF9002801D0FCF787F93848FC
:10F1000002F0BEF9002801D0FCF780F96B461D70B3
:10F11000FEF78AFD002801D0FCF778F9684601F077
:10F120001BFC002801D0FCF771F909200021052201
:10F130006844FCF76DF82B4B012001930223022158
:10F140008322237163790343DBB20B4313403022E4
:10F1500013437F22134063710723A3710933E371C3
:10F16000637A1843014361721F48211C01F08EFC31
:10F17000002801D0FCF74AF91C4800F0CBFA00281F
:10F1800001D0FCF743F91A4B1A48211C019301F0F6
:10F19000CBF8002801D0FCF739F9174B1748211C90
:10F1A000019300F083F8002801D0FCF72FF9FFF756
:10F1B00083FDFFF765FD0028FBD0FCF727F9F8E792
:10F1C0002C240020CD0C000099EF0100F82802004B
:10F1D000D8280200BC230020E01C002069ED0100BB
:10F1E00041ED0100C9EE01000524002099EC010069
:10F1F000F9EF01001427002021F00100082400206D
:10F2000096DF704798DF7047F0B50A7883B0002A20
:10F2100005D14B68224C1B021B0AA34201D003B04C
:10F22000F0BD6B461A706A464B8853800F7A002FE8
:10F2300010D01C4ECB89B34221D00A1C01231A32B4
:10F2400005E014881D1C0C320133B44218D0DCB226
:10F25000A742F6D80288144B041C9A420AD043886D
:10F26000002B07D18388002B04D1023001A904228E
:10F2700002F00FFBA368201C69469847CFE70025E2
:10F280006A466B005D19AD0049190B8B041C938015
:10F29000CB8AD3800288044B9A42E0D1EAE7C04689
:10F2A0000F180100192A0000FFFF000000B5031C21
:10F2B00083B00E20002B10D000290ED0012201A80F
:10F2C0008270074A0280012252421A8000225A802C
:10F2D0009A800A689A6000F035FA03B000BDC04613
:10F2E0000F18000030B583B0002811D000290FD0CE
:10F2F0000B88362B38D00DD9382B18D0392B07D1A5
:10F3000002888B88934203D18C898288944243D0AF
:10F3100003B030BD112BFBD102888B889A42F7D104
:10F3200001235B420380002343808380F0E702884F
:10F330008B889A42ECD11E4D1E4B2C681B689C4258
:10F34000E6D0A3001C4A1B199B00D118887800281E
:10F350001CD0985A0831FFF755FF0028D8D1072351
:10F3600001341C402C60D3E702888B889342CFD1B4
:10F370008C8982889442DED16A46538002231370BE
:10F380008B7C6946137183689847D4E7985A8988BB
:10F390000022FFF735FFE0E70A8A012AB8D16C4660
:10F3A000638022708B7C6946237183689847AFE73E
:10F3B000242700202027002028270020F8B5031E3E
:10F3C00035D001881E4A0820914200D1F8BD07259A
:10F3D0001C4A5C8813681C4E581C284010609A0018
:10F3E000D2189200B3185C810224DC811C1D1C61C0
:10F3F00000240027154D9C8101341C721C719C70E7
:10F400002C685F71B152844217D0A3001B199B0076
:10F41000F1188A78985B002A0BD00831FFF7F2FECA
:10F4200000280AD1072301341C402C60CEE70E20AF
:10F43000CCE78988FFF7E4FEF2E70020C6E7C04684
:10F44000FFFF00002027002028270020242700207D
:10F4500038B5031E2CD00188194A0820914200D1EA
:10F4600038BD072417480268511C214094000160F0
:10F47000A21815489D8892008418A5801B88134DFA
:10F4800083520023A3702C68A14217D0A3001B193C
:10F490009B00C1188A78185A002A0BD00831FFF750
:10F4A000B1FE00280AD1072301341C402C60D7E7A5
:10F4B0000E20D5E78988FFF7A3FEF2E70020CFE70B
:10F4C000FFFF0000202700202827002024270020FD
:10F4D00008B5002809D00180002A08D0111C02308C
:10F4E000042202F0D6F9002008BD0E20FCE700201F
:10F4F000FAE7C04690DF704792DF704793DF7047AE
:10F50000F0B557464E464546D3238946A621E0B47A
:10F5100046255B009446C25CFF31445C5543630062
:10F520001B1942199B005B191779C318661C82B01E
:10F530000A339246BE423AD07E1E8846BC422ED244
:10F54000A6421BD001341A8963001B199B005B196A
:10F55000C118098A01328A421AD001AC4B1E22809E
:10F5600063804946002360460B70211CFFF7C6FFED
:10F5700002B01CBC90469946A246F0BD52461B897B
:10F580001289934210D001AC013323806280E8E7F6
:10F59000C3180A334246E4B28454A742D0D80123A8
:10F5A0004A4600201370E3E70023741CF2E71B892E
:10F5B00012899342E7D1F2E7F0B556464D464446EC
:10F5C0005F46D422F0B45200835C95B00133DBB2C5
:10F5D00083544C4A041C15680E1CAB420ED3A8235E
:10F5E0000022FF33C254484B03321A70598015B0C1
:10F5F0003CBC90469946A246AB46F0BD00239B46D4
:10F60000A6235A46FF33C2540133C15C9A460131E6
:10F61000C9B2C154613BFF3B1F1C99463B4B4F4352
:10F620009846C719890041440422381C02F031F978
:10F630005B46301C3B7101213A1CFFF75BFF002841
:10F64000D5D0A8235A46FF33E25453464A46E35CDA
:10F650005A43A4184246A37892789A4222D0012DA8
:10F660001BD0424692799A4245D0022D15D042468F
:10F67000927A9A4239D0032D0FD04246927B9A4219
:10F680002DD0042D09D04246927C9A4221D0052DDE
:10F6900003D04246927D9A4215D003221A4B1A702B
:10F6A0005E80A4E74246118822889142D7D1184B48
:10F6B00019680029F1D0012201AB02905E801A7016
:10F6C000181C8847E9E743469A8A23889A42E4D17E
:10F6D000EDE74246118A22889142D8D1E7E74246B7
:10F6E000918922889142CCD1E1E742461189228852
:10F6F0009142C0D1DBE74246918822889142B4D141
:10F70000D5E7C046CC290020CC270020B029002016
:10F71000C827002000280BD000230121054A1360D0
:10F72000054A1170054A1360054B186000207047A8
:10F730000E20FCE7CC290020C8290020AC2900209D
:10F74000C827002070B5011E05D02E4B08201B785D
:10F75000002B02D170BD0E20FCE72B4D2C68002C35
:10F760004CD02A4B8A78987890422ED0012C47D9D9
:10F77000987990421FD0022C14D0987A904238D0B9
:10F78000032C0FD0987B90422ED0042C0AD0987C6A
:10F79000904224D0052C05D0987D90421AD00420A8
:10F7A000052CD7D8A00018180422013402F071F8F3
:10F7B0002C600020CEE79E8808888642DBD1144A60
:10F7C00000201268002AC5D1E9E71E880888864211
:10F7D000CCD1F4E7988A0A889042E0D1EFE71E8AFC
:10F7E00008888642D6D1EAE79E8908888642CCD12D
:10F7F000E5E71E8908888642C2D1E0E7034BD1E7DE
:10F800000124CFE7C8290020CC290020B0290020FE
:10F81000C827002070B5041C0D1C002829D0164BE9
:10F8200008201B78002B00D170BD144B1B68002BE7
:10F83000FAD0A826FF36A35D0930002BF4D1D522DB
:10F840005200A1520E4A0F491360D4225200A35411
:10F85000023AA354A33AFF3A201C02F01AF8281CDB
:10F860000121221CFFF746FE0028DDD10123A3550C
:10F87000DAE70E20D8E7C046C8290020CC290020AE
:10F88000AC290020B0290020F0B55F4656464D4611
:10F890004446F0B497B0002818D0002916D08B4BFE
:10F8A0001B78002B12D00B880C1C051C302B00D1B0
:10F8B000B1E000D8A0E0322B0FD0332B06D1D523F6
:10F8C0005B008A88C35A9A4200D1EAE017B03CBC78
:10F8D00090469946A246AB46F0BDD5235B008A8888
:10F8E000C35A9A42F2D1D3235B00C35C9846CB88BB
:10F8F000002B00D1E6E1A6230026FF33EE5402AB35
:10F90000A288281CD91CFFF7FBFD002800D09EE32D
:10F9100002ABDB78002BD9D0A3889C46D3235B00B5
:10F92000E85C6B4B1E689846002E00D18DE34622A2
:10F930004243684BAA1897789978B94201D100F0F0
:10F9400022FC012E00D880E39979B94201D100F060
:10F950003EFC022E00D178E3997AB94201D100F041
:10F960002DFC032E00D170E3997BB94201D100F048
:10F970001CFC042E00D168E3997CB94201D100F04F
:10F980000BFC052E00D160E3997D89466146B9459F
:10F9900000D082E09F8A13889F4200D07DE04E4BCA
:10F9A00061461B680093002B77D04C4B9A461B682E
:10F9B0009946052B71D89B004B441A019346484F3A
:10F9C0000192BB445B465980462141430433181CD5
:10F9D0004622691801F05DFF0023019ABB545A4684
:10F9E000009BD3644B46524601331360B34201D1AE
:10F9F00000F000FCA18850E0112B00D066E7D52371
:10FA00005B00C25A8B889A4200D05FE7A82300228D
:10FA1000FF33C2545AE7D3235B00C25C04338888A7
:10FA2000EB5A834200D051E7C988002900D1E7E0B2
:10FA300027490E688846191C002E2ED046275743AA
:10FA4000EF19BB789C46234B9978614500D193E22E
:10FA5000012E00D8F7E29979614500D185E2022EA6
:10FA600000D1F0E2997A614500D142E2032E00D143
:10FA7000E9E2997B614500D18CE2042E00D1E2E2FB
:10FA8000997C614500D17EE2052E00D1DBE2997DB3
:10FA90008946011CE14500D183E2281CFFF78CFD5B
:10FAA00014E7D3235B00C25CA623FF33C35C9C46F0
:10FAB000CB88002B21D18F89002F1ED0094E0B8AB5
:10FAC000B34200D105E21631002313E0C82900201B
:10FAD000CC290020B0290020C8270020AC29002014
:10FAE000CC270020022900000631881F0088B04280
:10FAF00000D1EFE10133BB42F6D3002602ABDE704A
:10FB00004623674698465343EB181B7901379F42BB
:10FB100000D0B9E1012302A9CB70A3889C46D54B44
:10FB20001E689846002E00D18FE246205043D24BEB
:10FB3000281887789978B94200D1B1E2012E00D80F
:10FB400083E29979B94200D1A3E2022E00D17CE28E
:10FB5000997AB94200D195E2032E00D175E2997BE2
:10FB6000B94200D187E2042E00D16EE2997CB942FD
:10FB700000D179E2052E00D167E2997D8946614680
:10FB8000B9458AD19F8A03889F4200D085E7BB4B45
:10FB900061461B680193002B00D17EE7B84B9A4663
:10FBA0001B689946052B00D977E79B004B441B0146
:10FBB0009B46B44F0093BB445B46598046214A4361
:10FBC000181DA918462201F064FE00230098019A2E
:10FBD0003B545B46DA644B46524601331360B342F2
:10FBE00000D007E70026FB6C381C984743461B688B
:10FBF000013650379E42F6D3002352461360F9E691
:10FC00004626211C5643AF190E310422381C01F040
:10FC100040FE211CB81D1231042201F03AFEA62339
:10FC2000FF33EB5CA088002B00D047E1FB8803AEDC
:10FC300033803B89311C7380FFF75EFC002800D1C4
:10FC400044E6A8230022FF33EA54013BE95C894BD8
:10FC5000A7881A68002A00D193E24623A9464B439D
:10FC600099444B469978844B9D788D4200D161E24E
:10FC7000012A00D885E29D798D4200D145E2022A11
:10FC800000D17EE29D7A8D4200D172E2032A00D13A
:10FC900077E29D7B8D4200D163E2042A00D170E2BD
:10FCA0009D7C8D4200D154E2052A00D169E29A7D03
:10FCB00094463A1C8C4500D144E20321714B1970E3
:10FCC0005A8003E6462743465F43C7193E790A7BBD
:10FCD000B218052A00DDEEE0D2B2131C3A719E4242
:10FCE0006AD2462241465143894673009B199B00C4
:10FCF0004B449A46AA445046211C3C3A0A300E31E5
:10FD000001F0C7FD534600229A8292463A79731C4D
:10FD1000934200D3CDE05A00D3189B004B449B463E
:10FD2000AB445846211C0A220A30183101F0B1FDBB
:10FD30005B4652469A823A79B31C934200D3B8E0AC
:10FD40005A00D3189B004B449B46AB445846211C99
:10FD50000A220A30223101F09CFD5B4652469A820B
:10FD60003A79F31C934200D3A3E05A00D3189B00C6
:10FD70004B449B46AB445846211C0A220A302C3186
:10FD800001F087FD5B4652469A823A79331D9342D1
:10FD900000D38EE05A00D3189B004B449946A944E7
:10FDA0004846211C0A220A30363101F072FD5246C3
:10FDB0004B469A823A790536013E73009B199E00A4
:10FDC0004621434659437318EB1838895B8A984299
:10FDD00000D890E5052A00D18DE5A623FF33EA542B
:10FDE000A088002A00D062E1FB8803AE33803B8903
:10FDF000311C7380FFF780FB002800D166E5A82343
:10FE00000022FF33EA54A3889946D3235B00EA5CBF
:10FE1000184B1968002926D046235343ED18164B7A
:10FE2000AA789F78974200D11FE201291BD99F79B8
:10FE3000974200D112E2022915D09F7A974200D151
:10FE400005E203290FD09F7B974200D1F8E10429F6
:10FE500009D09F7C974200D1EBE1052903D0997D21
:10FE6000914200D1D1E10322064B1A704A465A80D2
:10FE70002CE5C046CC290020B0290020C82700204E
:10FE8000AC290020CC270020A623FF33EF5402AB7F
:10FE9000A288281CD91CFFF733FB002800D087E07C
:10FEA00002ABDB78002B00D110E5D3235B00EA5CCA
:10FEB00033E61E1C80E7052305220FE7013BDBB27A
:10FEC0005A00D3189B009B19EB185B8A01339BB235
:10FED000ADE600235900CB185B00E318D8896346D0
:10FEE0005B006344990046235343CB18EB18988278
:10FEF00003E6198989463988894500D0B6E5B84BAB
:10FF0000011C1B680193002B00D1C6E5B54B9A4636
:10FF10001B689946052B00D9BFE59B004B441B018C
:10FF20009B46B14F0093BB445B46598046214A43F0
:10FF3000181DA918462201F0ACFC02230098019A72
:10FF40003B545B46DA644B46524601331360B3427E
:10FF500000D04FE50026FB6C381C984743461B68D1
:10FF6000013650379E42F6D346E69988894639884D
:10FF7000894500D073E5C2E71988894639888945E3
:10FF800000D065E5BBE7198A89463988894500D0E4
:10FF90007AE5B4E7998989463988894500D06CE5C6
:10FFA000ADE79B8A9C463B889C4500D075E5A6E75B
:10FFB000A8238E4AFF331268EE54013BA688EB5CFF
:10FFC000002A00D19FE0414659430B1CED18884B95
:10FFD000A9789F788F4200D18EE0012A00D892E064
:10FFE0009F798F4200D180E0022A00D18BE09F7A76
:10FFF0008F4200D172E0032A00D184E09F7B8F42C0
:020000022000DC
:1000000066D0042A00D17EE09F7C8F425AD0052A18
:1000100000D178E09F7D321C8F4200D04DE6998A56
:100020002B88994200D048E66D4B321C1968002994
:1000300000D142E6012203AB1A705E800490181CC6
:100040008847A28839E6011C27E5614625E5A823F3
:10005000FF33EE54013BE95C644BA6881A68002A22
:1000600051D046234B43B1E7198A89460188894517
:1000700000D07FE58BE5998989460188894500D0C4
:1000800071E584E5198989460188894500D063E5D1
:100090007DE5998889460188894500D055E576E552
:1000A000198889460188894500D047E56FE5013AFE
:1000B000D2B253009A189200511869184B8A013332
:1000C0009BB292E61F8ABC462F88BC459FD1ABE706
:1000D0009F89BC462F88BC4593D1A5E71F89BC46A4
:1000E0002F88BC4500D086E79EE79F88BC462F88B6
:1000F000BC4500D078E797E71F88BC462F88BC45F1
:1001000000D06AE790E7321CD7E59D88A8464D46A7
:100110002D88A84500D0B2E5314B3A1C196800295A
:1001200000D1CAE50123706077803370301C8847A6
:10013000A288C2E51D88A8464D462D88A84500D056
:1001400096E5E9E7998A4B461B88994200D0B4E5C9
:10015000E2E71D8AA8464D462D88A84500D0A3E5B4
:10016000DAE79D89A8464D462D88A84500D094E53C
:10017000D2E71D89A8464D462D88A84500D085E5C3
:10018000CAE73A1C99E5198889461188894501D042
:10019000FFF7D7FBFFF703FC198A894611888945C9
:1001A00001D0FFF7EEFBFFF7FAFB9989894611882A
:1001B000894501D0FFF7DDFBFFF7F1FB198989467F
:1001C0001188894501D0FFF7CCFBFFF7E8FB998840
:1001D00089461188894501D0FFF7BBFBFFF7DFFB9C
:1001E000C8270020AC290020CC270020CC290020E3
:1001F000B02900200026FB6C381C984743461B683A
:10020000013650379E42F6D3F6E49A8A2B889A42FA
:1002100000D028E6184B1B68002B00D123E64A4685
:100220007280012270603270301C9847A388994612
:1002300019E61F8AB8462F88B84500D00DE6E9E7D1
:100240009F89B8462F88B84500D000E6E2E71F89AD
:10025000B8462F88B84500D0F3E5DBE79F88B8465D
:100260002F88B84500D0E6E5D4E71F88B8462F8828
:10027000B84500D0D9E5CDE7C827002096DF704704
:1002800098DF704770B50B7882B0002B05D14B68B2
:100290001A02224B120A9A4201D002B070BD012309
:1002A0006A4613704B8853800E7A002E10D01C4D76
:1002B000CB89AB4221D00A1C00231A3205E00C3254
:1002C000141C0C3C2488AC4218D00133B342F6D342
:1002D0000288144B041C9A420AD04388002B07D191
:1002E0008388002B04D1023001A9042201F0D1FA45
:1002F000A368201C69469847CFE700235A00D3180B
:100300006A469B00C9180B8B041C9380CB8AD38050
:100310000288044B9A42E0D1EAE7C0460D1801007A
:10032000372A0000FFFF000000B5031C83B00E2039
:10033000002B10D000290ED0012201A88270074A9C
:1003400002800A689A60012252421A8000225A8072
:100350009A80FFF7F7F903B000BDC0460D18000002
:1003600030B583B0002808D0002906D00B88382B80
:1003700026D0392B03D0112B17D003B030BD028803
:100380008B889342F9D18C8982889442F5D16C464E
:100390000222638022708B7CDB072FD4CB7C6A46E1
:1003A0006946938083689847E7E702888B889A427A
:1003B000E3D101235B420380002343808380DCE799
:1003C00002888B889A42D8D1114D124B2C681B6839
:1003D0009C42D2D0A300104A1B199B00D1188878E8
:1003E000002810D1985A89880022FFF747FF00287B
:1003F000C3D1072301341C402C60BEE70B7DCA7CAF
:100400001B021343CBE7985A0831FFF739FFEEE799
:10041000D4290020D0290020D8290020F8B5031CB9
:100420000E20002B2FD01B4A5C881D8813680738CC
:10043000591C014011609A001748D2189200831885
:100440005C810224DC811C1D1C6100240027855274
:10045000124D9C8101341C721C719C702C685F7160
:100460008C4211D0A3001B199B00C1188A78185A1E
:10047000002A0BD18988FFF701FF002804D1072348
:1004800001341C402C60F8BD0020FCE70831FFF768
:10049000F7FEF2E7D0290020D8290020D429002037
:1004A00008B5002809D00180002A08D0111C0230AC
:1004B000042201F0EEF9002008BD0E20FCE7002028
:1004C000FAE7C0467EDF70477FDF704785DF704701
:1004D000A9DF7047AADF70470020704700207047EF
:1004E00000207047002070470020704700207047B0
:1004F000F8B54378114D5800C11889004A59002AAF
:1005000008D00F4C6618B67A77B2002F10DB0022A5
:10051000002102E000220021094CC3189B00E318CF
:1005200018890323FFF7D4FF002800D00548F8BD41
:100530007606ECD46918043192B2EEE7702B0020F5
:10054000982A00204180000000207047F0B585B057
:1005500006236A46D3804B78274D5A00D3189B0058
:10056000EB18061C18896B460C1C9A1D02A9032364
:10057000FFF7B0FF002802D0002005B0F0BD63787F
:100580001E4F5800C0186B4680003818DA880430B7
:1005900002A901F06FF9637800281ED05900CA182B
:1005A0009200D259002A25D1154D6A46CB18D2881F
:1005B0009B00FA50637802A95800C01880003818D0
:1005C000043001F066F96378301C5900C9188B00BB
:1005D000F9180C223423A847CEE75800C3189B0013
:1005E000ED18AA7A9207C7D4F81800210C22FAF75E
:1005F0000FFEC1E7034DD8E7982A0020702B00209A
:10060000B5DE01003DDF0100021C38B54B780B4C14
:100610005800C01883000D1CE018111C34230C2254
:10062000FDF7D0FC002806D16B785A00D3189B0048
:100630001A59013200D038BD1851FCE7702B002048
:10064000F0B557464E464546E0B44C4F92B03C6834
:10065000002C48D01A9C5C2C45D81E1C484B924656
:1006600001936A46002308948846814613740996CC
:100670000024444D02E00134072C11D0A1B2281C03
:1006800002AAFDF7EFFB0028F5D1484602A908228F
:1006900001F0F0F80028EED1E4B201ADAC7003E057
:1006A00001ADAC78FF2C1ED04346032B2CD0364B2B
:1006B000F31AA72B1DD9354BF31A1B2B2FD8002368
:1006C0006B700AAB0993202308934246022A4FD04D
:1006D000022213436A46137407AB0593281C3B6838
:1006E00004A95246984712B01CBC90469946A246AF
:1006F000F0BD53462649002B0BD00B680122A240C7
:1007000093430B602023E0E71A9B5C2B2ED04323FE
:10071000E0E70122A2400B681342E4D0EEE71D4857
:10072000331A0B2B0FD91C4B9E42F0D01B4BA2004F
:10073000D3589E42D7D11A4BDA7A4023A242C4D171
:1007400000226A70C1E730236A46137400236B707D
:100750000133EB70124B9A7A30239207B5D4002103
:100760000C22FAF755FD6B461B7CAEE72323B1E75D
:10077000012213436A461374AEE7C046802B002063
:1007800000FFFFFF4C2B0020A42A0020542B002048
:100790007C2B0020702B002048290200782A0020A2
:1007A000982A0020021C38B54B780B4C5800C01812
:1007B00083000D1CE018111C34230C22FDF702FCF1
:1007C000002806D16B785A00D3189B001A590132C1
:1007D00000D038BD1851FCE7702B0020F8B54378E5
:1007E000114D5800C11889004A59002A08D00F4CF1
:1007F0006618B67A77B2002F10DB0022002102E0E3
:1008000000220021094CC3189B00E3181889032318
:10081000FFF75EFE002800D00548F8BD7606ECD450
:100820006918043192B2EEE7702B0020982A00205C
:1008300041800000F0B585B006236A46D3804B782E
:10084000274D5A00D3189B00EB18061C18896B46DD
:100850000C1C9A1D02A90323FFF73CFE002802D0BE
:10086000002005B0F0BD63781E4F5800C0186B46DD
:1008700080003818DA88043002A900F0FBFF6378A2
:1008800000281ED05900CA189200D259002A25D13A
:10089000154D6A46CB18D2889B00FA50637802A99E
:1008A0005800C01880003818043000F0F2FF637858
:1008B000301C5900C9188B00F9180C223423A847A2
:1008C000CEE75800C3189B00ED18AA7A9207C7D448
:1008D000F81800210C22FAF79BFCC1E7034DD8E77A
:1008E000982A0020702B0020B5DE01003DDF0100BA
:1008F00070B5041C4378164D5A00D3189B00EB18B2
:1009000018892378134E5900C918890071180431C9
:10091000FFF7D8FD00281AD123785A00D3189B007E
:10092000F6180123727A1343737263785A00D3184E
:1009300004229B00EB18997A0A439A7263785A0052
:10094000D31820229B00ED18AB7A9343AB7270BD95
:10095000982A0020802B0020F0B55F4656464D4671
:100960004446F0B485B000286AD000223D4B83464F
:100970001A605A729A7201233B4800218372023B2B
:100980000381C3720732FAF743FC384800210C2276
:10099000FAF73EFC364B00259A461C1C354BFF26C9
:1009A000994601239846344F201C0021062211301D
:1009B000FAF72EFC201C00211022FAF729FC4346EE
:1009C000AB403A6849469A433A600022AB00013591
:1009D0002674E675CA501834072DE5D15C236A46A3
:1009E000264E9380264B6846311CD5800093FDF738
:1009F000C1F900281DD10123224F3B705B461B78B3
:100A0000002B1FD10025A9B2301C02AAFDF72AFA3B
:100A1000041E21D1504602A918220023FDF7D2FA64
:100A200000281CD118239C460135E244072DEAD149
:100A3000002005B03CBC90469946A246AB46F0BDAE
:100A40001148F6E76B466A46DB889188301C5943AB
:100A500089B2FDF70BFBECE700233B70E9E73C7044
:100A6000E7E7C046802B0020982A0020702B00204A
:100A7000A42A0020782A00207C2B00204C2B002068
:100A800041060200942A00200E800000F8B5114BA8
:100A90001B78002B01D11048F8BD00280AD000298E
:100AA00008D00B68002B05D00C4E3768002F03D000
:100AB0000B48F1E70B48EFE7051C301C0C1C08C085
:100AC0000531052200F0E5FE23790020B3722F7076
