:020000021000EC
:10B0000000400020696E0200A96E0200AB6E0200D3
:10B010000000000000000000000000000000000030
:10B02000000000000000000000000000AD6E020003
:10B030000000000000000000AF6E0200B16E0200D0
:10B04000B36E0200B36E02007DD80100B36E020041
:10B05000BDDF010000000000D9CA0100B36E02008C
:10B06000B36E0200B36E0200B36E0200B36E020054
:10B07000B36E0200B36E0200B36E0200B36E020044
:10B08000B36E020099C00100B36E0200B36E0200FD
:10B09000E5C001004D6602008D6C0200B36E020037
:10B0A000B36E0200B36E020000000000000000005A
:10B0B0000000000000000000000000000000000090
:10B0C00010B5064C2378002B07D1054B002B02D07E
:10B0D000044800E000BF0123237010BD2C1F002096
:10B0E000000000002CAB020008B5084B002B03D079
:10B0F0000748084900E000BF07480368002B00D15B
:10B1000008BD064B002BFBD09847F9E70000000074
:10B110002CAB0200301F0020281F00200000000080
:10B12000164B002B00D1144B9D46402292029A1AD6
:10B13000924600218B460F461348144A121A00F01B
:10B1400067F80F4B002B00D098470E4B002B00D018
:10B1500098470020002104000D000D48002802D06F
:10B160000C4800E000BF00F02DF82000290006F098
:10B170008DFD00F011F8C0460000080000400020DE
:10B1800000000000000000002C1F0020AC37002051
:10B190000000000000000000084B10B5041C002B4C
:10B1A00002D0002100E000BF054B1868836A002B25
:10B1B00000D09847201C00F033F8C0460000000083
:10B1C000488402000E4B70B500251E1C0D4CE41A7D
:10B1D000A410A54204D0AB00F35898470135F8E716
:10B1E0000DF024F9084B00251E1C084CE41AA4108D
:10B1F000A54204D0AB00F35898470135F8E770BD7D
:10B20000201F0020201F0020201F0020241F0020BE
:10B21000031C8218934202D019700133FAE7704779
:10B22000FEE7C04680B586B000AF78600C23FB18FF
:10B2300000221A800C23FB1800225A600C23FB18F2
:10B240007A689A600C23FB18044A101C00211A1C0F
:10B2500000F016F8BD4606B080BDC04601400000B3
:10B2600080B500AFBFF34F8F034B044ADA60BFF3E2
:10B270004F8FC046FDE7C04600ED00E00400FA0530
:10B2800080B584B000AFF860B9607A60FFF7E8FF7E
:10B29000BD4604B080BDC04680B584B000AF7860C4
:10B2A0007B689B68FB607B68DA68FB68D31A181CB4
:10B2B000BD4604B080BDC04680B582B000AF7860A6
:10B2C0000A1CFB1C1A707B681A687B68DB6879684B
:10B2D00089880B40D318FA1C12781A707B68DB68D7
:10B2E0005A1C7B68DA60BD4602B080BD80B584B070
:10B2F00000AFF8607A600A23FB180A1C1A80FB680A
:10B300001A68FB6899680A23FB181B88CB18F96830
:10B3100089880B40D3181A787B681A70BD4604B030
:10B3200080BDC04680B582B000AF786039607A6871
:10B330003B68101C00211A1CFFF7D8FF7B689B6834
:10B340005A1C7B689A60BD4602B080BD80B584B04F
:10B3500000AFF860B960BB1D1A80BB68002B01D13B
:10B360000E231CE0BB1D1B88002B06D0BB1D1B88B9
:10B37000013BBA1D1288134001D009230FE0FB687E
:10B38000BA681A60BB1D1B88013B9AB2FB689A80A1
:10B39000FB6800229A60FB680022DA600023181C18
:10B3A000BD4604B080BDC04680B582B000AF7860B5
:10B3B0000A1CFB1C1A707B68181CFFF76DFF021C2F
:10B3C0007B689B889A4208D87A68FB1C1B78101C03
:10B3D000191CFFF771FF002300E00423181CBD4671
:10B3E00002B080BD80B582B000AF786039607B6804
:10B3F000181CFFF751FF031E07D07A683B68101C2A
:10B40000191CFFF78FFF002300E00523181CBD4621
:10B4100002B080BD80B582B000AF78607B68DA682A
:10B420007B689A600023181CBD4602B080BDC046F0
:10B4300080B582B000AF021CFB1D1A70064BFA1DCE
:10B440001278111C1F220A40012191400A1C1A6027
:10B45000BD4602B080BDC04600E100E080B582B0CC
:10B4600000AF021CFB1D1A700649FB1D1B781A1C3D
:10B470001F23134001229A40131C80228B50BD468B
:10B4800002B080BD00E100E080B582B000AF021CD8
:10B49000FB1D1A700649FB1D1B781A1C1F23134045
:10B4A00001229A4080235B00CA50BD4602B080BD95
:10B4B00000E100E080B582B000AF021CFB1D1A70F5
:10B4C0000649FB1D1B781A1C1F23134001229A40BA
:10B4D000C0235B00CA50BD4602B080BD00E100E061
:10B4E000B0B582B000AF021C3960FB1D1A70FB1DA5
:10B4F0001B787F2B2FD92D4CFB1D1B781A1C0F237B
:10B500001340083B9908294AFB1D1B78181C0F2380
:10B510000340083B9B0806339B00D3185B68FA1D69
:10B520001278101C03220240D200101CFF2282401D
:10B53000D2431A403B689B01FF200340F81D00786E
:10B54000051C03202840C00083401A438B1D9B002C
:10B55000E3185A6026E0164CFB1D1B785BB29B0873
:10B560001349FA1D127852B29208C0329200525812
:10B57000F91D0978081C03210140C900081CFF219E
:10B580008140C94311403A689201FF200240F81DF2
:10B590000078051C03202840C00082400A43C033C5
:10B5A0009B001A51BD4602B0B0BDC04600ED00E0A0
:10B5B00000E100E080B582B000AF021CFB1D1A70F4
:10B5C000FB1D1B787F2B16D9164AFB1D1B78191CF7
:10B5D0000F230B40083B9B0806339B00D3185B6886
:10B5E000FA1D1278111C03220A40D200D340FF2218
:10B5F00013409B0911E00C4AFB1D1B785BB29B08B2
:10B60000C0339B009B58FA1D1278111C03220A407C
:10B61000D200D340FF2213409B09181CBD4602B044
:10B6200080BDC04600ED00E000E100E080B582B0E2
:10B6300000AF78607B68032213405A425341DBB26B
:10B64000181CBD4602B080BD80B584B000AFEFF3DA
:10B6500005837B607B68DB05DB0DFB60FB68002BF3
:10B660000BD0FB68103BBB60BB68DBB25BB2181C45
:10B67000FFF7A0FF031CDBB200E00423181CBD464B
:10B6800004B080BD80B582B000AF78600549A123C9
:10B69000DB007A68CA5011200321FFF721FFBD4665
:10B6A00002B080BD0010014080B582B000AF1649E5
:10B6B000D1239B0080225202CA501349C1239B0010
:10B6C00080225202CA501120FFF7F4FE1120FFF72A
:10B6D000AFFE0D4B01221A602F237B607B68181C84
:10B6E0000138C046C046C046C046C046C046C046F7
:10B6F000C046C046C046C046C046F1D1034B0122F9
:10B700001A70BD4602B080BD00100140681F0020C5
:10B7100080B582B000AF1120FFF7A0FE1F49D223F1
:10B720009B0080225202CA501C49C2239B008022E7
:10B730005202CA50194B01225A602F233B603B68CA
:10B74000181C0138C046C046C046C046C046C04668
:10B75000C046C046C046C046C046C046F1D10F4BA9
:10B7600001229A600E4B00221A602F237B607B68B7
:10B77000181C0138C046C046C046C046C046C04638
:10B78000C046C046C046C046C046C046F1D1054B83
:10B7900000221A70BD4602B080BDC04600100140B4
:10B7A000541F0020681F002080B500AF024A034BE1
:10B7B000D358181CBD4680BD001001400405000090
:10B7C00080B582B000AF786039607A683B68D31A80
:10B7D0001B021B0A181CBD4602B080BD80B582B09A
:10B7E00000AF78600349A823DB007A68CA50BD46E1
:10B7F00002B080BD0010014080B586B000AF786017
:10B80000284B1B68002B03D1264B7A681A6045E051
:10B810007B681A68234B1B681B689A4210D8214B1F
:10B820001B68204A126811687A6812688A1A1A60BE
:10B830001C4B1A687B68DA611A4B7A681A602DE033
:10B840007B681B68FB60174B1B687B61154B1B6893
:10B850003B6109E03B691B68FA68D31AFB603B69EE
:10B860007B613B69DB693B613B69002B04D03B6931
:10B870001A68FB689A42EDD33B69002B05D03B69FF
:10B880001A68FB68D21A3B691A607B68FA681A600A
:10B890007B683A69DA617B697A68DA61BD4606B02D
:10B8A00080BDC046501F002080B586B000AF7860D4
:10B8B000214B1B687B617B693B6109E03A697B68CE
:10B8C0009A4200D107E03B697B613B69DB693B61E0
:10B8D0003B69002BF2D13B69002B00D128E07A694B
:10B8E0003B699A4211D1144B1B68DA69124B1A60FA
:10B8F000114B1B68002B08D1104B01229A60104B92
:10B9000000221A600F4B01221A703B691B68FB6012
:10B910003B69DA697B69DA617B69DB693B613B69B9
:10B92000002B05D03B691A68FB68D2183B691A6086
:10B93000BD4606B080BDC046501F0020001001402B
:10B94000541F0020691F002080B500AF1120FFF7B1
:10B950009BFDBD4680BDC04680B500AF1420FFF7FB
:10B9600093FDBD4680BDC04680B584B000AF786011
:10B97000114B1B68002B15D00F4B1A687B68596957
:10B980007B689B69081C191C9047031CFB60FB68C3
:10B99000BB60BB68002B04D0BB68181CFFF742FCDF
:10B9A00006E005E07B685A697B689B69181C904734
:10B9B000BD4604B080BDC046641F002080B584B081
:10B9C00000AF2B4B1B68002B4FD000237B60FFF791
:10B9D000EBFE021C274B1B68101C191CFFF7F0FE26
:10B9E000031CBB60224B1B68FB601FE0FB681A68EE
:10B9F000BB689A4200D91CE0FB681B68BA68D31A7E
:10BA0000BB60FB681B687A68D3187B60FB683B608F
:10BA1000FB68DB69FB603B681B7C002B06D03B6846
:10BA200000221A743B68181CFFF79EFFFB68002B6E
:10BA3000DCD1114B1A78114B1B789A420CD10F4B69
:10BA40001B780133DAB20D4B1A700C4B1B78022BAA
:10BA500002D10A4B00221A70084B1B781A1C084BA3
:10BA600092007968D150FFF777FFBD4604B080BDE2
:10BA7000501F0020541F0020601F0020611F002065
:10BA8000581F002080B582B000AF7860184B1A783C
:10BA9000184B1B789A4223D0154B1B780133DAB22E
:10BAA000134B1A70124B1B78022B02D1104B002241
:10BAB0001A700F4B1B781A1C0F4B9200D2587B68E0
:10BAC0001A607B681A680D4B1B68D2180B4B1A6002
:10BAD0000A4B1B681B021A0A084B1A60012303E079
:10BAE0007B6800221A600023181CBD4602B080BD8E
:10BAF000601F0020611F0020581F0020541F0020DD
:10BB000080B586B000AF364B1B683B611723FB182E
:10BB1000344A12781A704EE0334B1A681723FB1818
:10BB20001B78DB00D318FB601623FB18FA68127829
:10BB30001A7039E0FB6859681623FB181A78131C31
:10BB40005B009B18DB00CB18BB601623FB181A7830
:10BB50001623FB1801321A70FB689B781622BA185C
:10BB600012789A4203D11623FB1800221A70BB6880
:10BB70001B78022B02D0032B10D014E0BB685B684B
:10BB8000181CFFF791FE0FE0154B1B687B607B686C
:10BB900000221A747B68DA69114B1A60104B1B681B
:10BBA000002BF1D100E0C046FB685B781622BA1882
:10BBB00012789A42BED11723FB181B781722BA18A5
:10BBC000591E1170002BA7D1054B1A683B69D31A77
:10BBD0005A1E9341DBB2181CBD4606B080BDC0465C
:10BBE000501F0020481F00204C1F002080B588B047
:10BBF00000AFF860B9607A600023FB6138E0204B49
:10BC00001B68BB61BB691A68FB689A4206D9BB69AD
:10BC10001A68FB68D21ABB691A602DE0BB691B6801
:10BC2000FA68D31AFB60BB691B68FA69D318FB6119
:10BC3000BB6900221A60124B1B687B61BB69DA6921
:10BC40000F4B1A60BB69DB68002B11D0BA68FB6927
:10BC5000D3181B021A0ABB695A60BB69DA68BB6950
:10BC60009A607B681A68BB69DA617B687A691A60D6
:10BC7000034B1B68002BC2D1BD4608B080BDC04637
:10BC8000501F002080B588B000AF78605C4B1B6807
:10BC90007B611F23FB185B4A12781A709BE05A4B9A
:10BCA0001A681F23FB181B78DB00D3183B6187E061
:10BCB0007B68002B05D07B68BB61BB69DB697B605F
:10BCC0003CE03B695A683B691B78191C0B1C5B0004
:10BCD0005B18DB00D318FB603B691B780133DAB2D9
:10BCE0003B691A703B691A783B699B789A4202D18A
:10BCF0003B6900221A70FB685B68BB61FB681B78BC
:10BD0000012B03D1BB691B7C002B00D058E0FB68E2
:10BD10009A68BB695A60FB68DA68BB699A60FB681D
:10BD20001A69BB69DA60FB685A69BB699A61374B6B
:10BD30001B78002B02D0BB6900225A60BB695A688D
:10BD4000334B1B68D31A1B021B0A324A93420ED88C
:10BD5000BB695A682E4B1B68101C191CFFF730FD7D
:10BD6000021CBB699B68D218BB691A6018E0284B9B
:10BD70001A68BB695B68101C191CFFF721FD031CC6
:10BD8000BB60BB699A68BB689A4206D9BB699A686E
:10BD9000BB68D21ABB691A6002E0BB6900221A6054
:10BDA000BB6900225A60BB6900229A60BB6901220C
:10BDB0001A74BB690022DA61BB69181CFFF71CFD0D
:10BDC0007B68002B00D073E73B691A783B695B788E
:10BDD0009A4200D06CE71F23FB181B781F22BA1869
:10BDE000591E1170002B00D059E7054B1A687B696A
:10BDF000D31A5A1E9341DBB2181CBD4608B080BD51
:10BE0000501F0020481F00204C1F0020691F0020E9
:10BE1000541F0020FEFF7F0090B589B000AF78600E
:10BE2000334B1B68002B5DD0314B1B681B68FB61DB
:10BE3000FFF7BAFC031CBB612E4B1B687B61BA6920
:10BE40007B69101C191CFFF7BBFC031C03333B610F
:10BE5000294B1B7801225340DBB2002B01D0FFF7A6
:10BE600023FCFA693B69934200D2131C7A69D31808
:10BE70007B617B691B021B0A7B617B69181CFFF7D6
:10BE8000ADFCFFF791FC031CFB60FA68BB69101C5A
:10BE9000191CFFF795FC031CDC1C7A69BB69101C9C
:10BEA000191CFFF78DFC031C9C421AD9FFF77CFC80
:10BEB000031C181CFFF792FC2F23BB60BB68181CE7
:10BEC0000138C046C046C046C046C046C046C0460F
:10BED000C046C046C046C046C046F1D1FFF734FD5B
:10BEE00002E001E0FFF714FCBD4609B090BDC0467A
:10BEF000501F0020541F0020681F002090B587B0FD
:10BF000000AF00237B601F4B1B683B611E4B1B680F
:10BF1000FB600B23FC183B1C181CFFF7B3FD031C34
:10BF200023701723FC18FFF7EBFD031C23700B2372
:10BF3000FB181B78002B0BD039683A693B1D081C95
:10BF4000111C1A1CFFF752FE1723FB1801221A704E
:10BF50007B68181CFFF796FE031E03D01723FB18FF
:10BF600001221A701723FB181B78002B03D0FB68E3
:10BF7000181CFFF751FF054B00221A70BD4607B091
:10BF800090BDC046541F0020501F0020691F002094
:10BF900080B582B000AF78600A1CFB1C1A707B6809
:10BFA000FA1C12785A70BD4602B080BD80B584B0CC
:10BFB00000AF786039607B685A780F23FB18013234
:10BFC0001A707B689B780F22BA1812789A4203D1B4
:10BFD0000F23FB1800221A707B681B780F22BA18F7
:10BFE00012789A4201D1002310E03B680F22BA1860
:10BFF00012781A707B685A687B685B78191C0B1C76
:10C000005B005B18DB00D318BB60BB68181CBD4627
:10C0100004B080BD80B586B000AFF860B9607A60CA
:10C020003B601C4B1A68FB68DB00D2181323FB181B
:10C03000101C191CFFF7BAFF031C7B617B69002BE6
:10C0400001D1042322E07B6901221A707B69BA685E
:10C050005A60FFF7A9FB021C7B699A607B697A68CA
:10C06000DA607B693A681A617B693A6A5A61094BFE
:10C070001A68FB68DB00D2181323FB181B78101C0E
:10C08000191CFFF785FFFFF767FC0023181CBD464E
:10C0900006B080BD4C1F002080B500AF104AA02321
:10C0A0005B000021D1500E4AA2235B000021D15039
:10C0B0000B4AA4235B000021D150094AA6235B0050
:10C0C0000021D150064A80235B000021D150044A50
:10C0D00082235B000021D150FFF770FCBD4680BD7C
:10C0E0000010014080B500AFFFF708FFBD4680BDDE
:10C0F00080B586B000AFF8607A603B600B23FB1818
:10C100000A1C1A707B68181CFFF790FA031C1A1C93
:10C1100001235340DBB2002B01D007235AE07B6898
:10C12000002B04D12D4B00221A60072352E0FFF7A9
:10C13000EFFA2B4B3A681A602A4B03221A70274BEE
:10C140007A681A607B6818337B6000237B6121E08A
:10C15000224B1A687B69DB00D3183B613B690022E4
:10C160001A703B6900225A703B690B22BA18127888
:10C170009A703B697A685A600B23FB181A78131C73
:10C180005B009B18DB001A1C7B689B187B607B693B
:10C1900001337B617B69022BDADD134B00221A60CD
:10C1A000124B00221A70124B00221A701420FFF753
:10C1B00081F914200321FFF793F91420FFF738F9D0
:10C1C000FB68181CFFF75EFAFFF7EEFA021C094B3A
:10C1D0001A600023181CBD4606B080BD4C1F00200D
:10C1E000641F0020481F0020501F0020601F0020F7
:10C1F000611F0020541F002080B586B000AFF8609A
:10C200007A600B23FB180A1C1A70154B1B68002B55
:10C2100001D108231FE07B68002B01D107231AE01E
:10C22000FB68002B01D1072315E0FB681B681B7C12
:10C23000002B01D008230EE0FB681B687B617B6943
:10C2400000221A747B690B22BA1812785A747B691F
:10C250007A685A610023181CBD4606B080BDC046EE
:10C260004C1F002080B582B000AFFFF7EDF9031E30
:10C27000012B02D0032B03D005E000237B6005E0F7
:10C2800001237B6002E002237B60C0467B68181CB0
:10C29000BD4602B080BDC04690B589B002AFF8601F
:10C2A000B9607A60FB687B61164B1B68002B01D17B
:10C2B000082322E0FB68002B01D108231DE0BB68A6
:10C2C000042B01D8072318E07B695B69002B01D19F
:10C2D000082312E07B695B7C012B01D1BB6800E085
:10C2E00000233B61FFF7BEFF7969BA683C697B6850
:10C2F0000093231CFFF78EFE031C181CBD4607B0DD
:10C3000090BDC0464C1F002080B582B000AF786061
:10C31000FFF74AFA021C7B681A600023181CBD460E
:10C3200002B080BD80B584B000AFF860B9607A60BB
:10C33000FA68BB68101C191CFFF742FA021C7B68E4
:10C340001A600023181CBD4604B080BD80B584B0BF
:10C3500000AF78603960104B0020191C00F056F8CF
:10C360000023FB600CE07A68FB68D3181B781A1C6A
:10C370000A4B0020191C00F049F8FB680133FB60F0
:10C38000FA683B689A42EED3034B0020191C00F078
:10C390003DF8BD4604B080BD4C84020050840200CC
:10C3A00090B583B002AF144B1B78002B01D0002353
:10C3B0001DE01249124A8023DC0001230093002073
:10C3C000231C05F03DFE031E01D008230FE00D499C
:10C3D0000D4A002300930020102305F099FE031E50
:10C3E00001D0082303E0044B01221A700023181C1B
:10C3F000BD4601B090BDC0467C2300205884020099
:10C400006C1F0020608402006C2300200EB480B5F5
:10C4100085B000AF78602023FB18FB607968FA696B
:10C420000C23FB18081C111C1A1C06F071F8BD46E1
:10C4300005B080BC08BC03B01847C04680B584B0C6
:10C4400000AF78607B689B68FB607B68DA68FB689C
:10C45000D31A181CBD4604B080BDC04680B586B056
:10C4600000AF786039607B681B78012B3CD17B681A
:10C470005B681B783B4A101C191CFEF795FF031CD8
:10C480007B617B69002B0ED00C23FB1801221A70F4
:10C490000C23FB187A695A60334B1B680C22BA18BC
:10C4A000101C984710E02F4B181CFFF7C7FF031E06
:10C4B000012B09D10C23FB1800221A702A4B1B6890
:10C4C0000C22BA18101C9847264B181CFFF7B6FF11
:10C4D000021C244B9B889A4205D8244B181C01212E
:10C4E00001F012F83AE039E07B681B78022B14D196
:10C4F0000C23FB1802221A707B68DA680C23FB18E5
:10C500005A601A4B181C012100F0FEFF164B1B68E5
:10C510000C22BA18101C984720E07B681B78002B6F
:10C520001CD1134A134B101C191CFEF75BFF031E92
:10C5300004D1104B181C012100F0C8FE0C4B181C34
:10C54000FFF77CFF031E09D10C23FB1803221A708E
:10C55000054B1B680C22BA18101C9847BD4606B044
:10C5600080BDC0468C23002080230020882300202B
:10C570009C2300208423002090B58FB000AFF8608A
:10C58000B9607A601A1CFB1C1A70424B7A681A60F8
:10C59000BB68002B01D1072377E0BB681A68BB6832
:10C5A0005B689BB23C49081C111C1A1CFEF7CEFEAE
:10C5B000031C7B637B6B002B01D07B6B65E0BB684E
:10C5C0009A68BB68DB689BB23449081C111C1A1CB2
:10C5D000FEF7BCFE031C7B637B6B002B01D07B6BE7
:10C5E00053E01423FB182E4A13CA13C313CA13C3F0
:10C5F00003CA03C3FB689A681423FB189A61FB689B
:10C600001B795A1E9341DBB21A1C1423FB181A75AE
:10C610001423FB18FA1C12781A77FB685B79002B3D
:10C6200001D00E2200E000221423FB185A75FB688B
:10C63000DB781A1C1423FB189A60FB689B781A1C81
:10C640001423FB18DA60FB681B781A1C1423FB18F0
:10C650005A60FB685B781A1C1423FB181A601423B9
:10C66000FA18104B101C191C00F060FD031C7B63B2
:10C670007B6B002B01D07B6B07E000F0A5FF0A4B22
:10C68000181C012100F040FF031C181CBD460FB010
:10C6900090BDC046802300208C2300209C230020D6
:10C6A000688402005DC401008823002080B582B048
:10C6B00000AF0D4B181CFEF7ADFE031C7B607B68C2
:10C6C000002B01D07B680BE0084B181CFEF7A2FE84
:10C6D000031C7B607B68002B01D07B6800E000239B
:10C6E000181CBD4602B080BD8C2300209C23002076
:10C6F00080B584B000AF78600F4B181CFFF79EFE2A
:10C70000021C0D4B9B889A420BD10C4B181C01212B
:10C7100000F0FAFE031CFB60FB68002B01D0052330
:10C7200006E0054A7B68101C191CFEF75BFE031C23
:10C73000181CBD4604B080BD8C2300208823002037
:10C7400080B584B000AF021CFB1D1A70144AFB1D9B
:10C750001B78101C191CFEF727FE031CFB60FB68EE
:10C76000002B17D100F0D2FD031C1A1C01235340EB
:10C77000DBB2002B0ED00A4A0A4B101C191CFEF724
:10C7800031FE031E06D1074B181C012100F09EFD4F
:10C79000031CFB60FB68181CBD4604B080BDC0468E
:10C7A0009C2300208423002080B582B000AF021CAF
:10C7B000FB1D1A70064BFA1D1278111C1F220A402D
:10C7C000012191400A1C1A60BD4602B080BDC046DE
:10C7D00000E100E080B582B000AF021CFB1D1A70C2
:10C7E0000649FB1D1B781A1C1F23134001229A4087
:10C7F000C0235B00CA50BD4602B080BD00E100E02E
:10C80000B0B582B000AF021C3960FB1D1A70FB1D71
:10C810001B787F2B2FD92D4CFB1D1B781A1C0F2347
:10C820001340083B9908294AFB1D1B78181C0F234D
:10C830000340083B9B0806339B00D3185B68FA1D36
:10C840001278101C03220240D200101CFF228240EA
:10C85000D2431A403B689B01FF200340F81D00783B
:10C86000051C03202840C00083401A438B1D9B00F9
:10C87000E3185A6026E0164CFB1D1B785BB29B0840
:10C880001349FA1D127852B29208C03292005258DF
:10C89000F91D0978081C03210140C900081CFF216B
:10C8A0008140C94311403A689201FF200240F81DBF
:10C8B0000078051C03202840C00082400A43C03392
:10C8C0009B001A51BD4602B0B0BDC04600ED00E06D
:10C8D00000E100E080B582B000AF021CFB1D1A70C1
:10C8E000BB1D0A1C1A70BB1D1A78FB1D1B785BB29E
:10C8F000181C111CFFF784FFFB1D1B785BB2181C72
:10C90000FFF768FFFB1D1B785BB2181CFFF74CFF9D
:10C91000BD4602B080BDC04680B582B000AF021CEB
:10C92000BB1D1A80BB1D1B88181C00F01DF8031CC2
:10C930001B68013B5A425341DBB2181CBD4602B092
:10C9400080BDC04680B582B000AF021CBB1D1A80FE
:10C95000BB1D1B88181C00F007F8031C00221A607E
:10C96000BD4602B080BDC04680B582B000AF021C9B
:10C97000BB1D1A80BB1D1B88034A94466344181CC8
:10C98000BD4602B080BDC0460060004080B582B0A8
:10C9900000AF7860044AC1239B00D3587A681340E3
:10C9A000181CBD4602B080BD0060004080B582B05A
:10C9B00000AF7860064A7B684533FF339B009A5886
:10C9C000F8235B0113401B0A181CBD4602B080BD52
:10C9D0000060004080B582B000AF7860074A7B6895
:10C9E0004533FF339B009A58C0239B0213401B0C16
:10C9F000DBB2181CBD4602B080BDC04600600040DE
:10CA000080B582B000AF78600A1CFB1C1A70A023AE
:10CA1000DB05A022D2057968C131FF3189008A582F
:10CA20000D4911407A68C132FF329200D150A023E3
:10CA3000DB05A022D2057968C131FF3189008A580F
:10CA4000F91C0978090411437A68C132FF32920057
:10CA5000D150BD4602B080BDFFFFFCFF80B500AFE6
:10CA6000A023DA05A223DB00D358181CBD4680BDE5
:10CA700080B582B000AF7860A023DB057A68C13250
:10CA8000FF329200D258C0239B0213401B0CDBB232
:10CA9000181CBD4602B080BD80B582B000AF786082
:10CAA000054A20217B68D3185B181B785BB2181CE1
:10CAB000BD4602B080BDC046AC23002080B582B028
:10CAC00000AF7860034B7A689200D358181CBD46BB
:10CAD00002B080BDAC23002090B593B000AF00231E
:10CAE0007B6400233B643A23FB18802252001A80A7
:10CAF00001237B630023FB6324E03A23FB181B889C
:10CB0000181CFFF709FF031E0FD07B6B181CFFF7E3
:10CB10003DFF031E09D03A23FB181B88181CFFF7A2
:10CB200011FF7A6C7B6B13437B647B6B5B007B63D5
:10CB30003A23FB183A22BA18128804321A80FB6B87
:10CB40000133FB63FB6B032BD7D9BE235B00181C9F
:10CB5000FFF7E2FE031E0DD0BE235B00181CFFF79B
:10CB6000F1FE7B6C8022120613437B64FFF776FF95
:10CB7000031C3B647B6C0F2213402DD001237B638D
:10CB80000023FB6325E07B6B7A6C13401BD0FB6BAF
:10CB9000181CFFF70BFF031C7B622323FC18FB6BA5
:10CBA000181CFFF717FF031C2370FB6B181CFFF703
:10CBB00085FF031CFB61796A2323FB181A78FB6944
:10CBC000081C111C98477B6B5B007B63FB6B01337C
:10CBD000FB63FB6B032BD6D97B6C002B00DBBEE029
:10CBE0003323FB1800221A700023FB6201235B42EF
:10CBF000BB623323FB1800221A700023FB638EE014
:10CC0000584A4021FB6BD3185B181A781B23FB187A
:10CC10001A701B23FB181B78C02293437B61514A77
:10CC20004021FB6BD3185B181B785BB2013300D13A
:10CC300072E07B69BA6ADA40131C0122134000D10A
:10CC40006AE01323FB181B22BA18127892091A7093
:10CC50007B69181CFFF720FF031C181CFFF72EFF31
:10CC6000031CFB60FB68002B04D11323FB181B780B
:10CC7000032B51D17B6901229A40131C7B63132340
:10CC8000FB181B78032B03D1FA6A7B6B1343FB62FF
:10CC90000B23FC187B69181CFFF7EAFE031C2370AA
:10CCA0007B6B3A6C134004D00B23FB181B78022BD0
:10CCB00008D07B6B3A6C13402ED10B23FB181B78EA
:10CCC000032B29D11323FB181B78032B19D10B231A
:10CCD000FB181B78022B01D1032200E002220A2359
:10CCE000FB181A707A690A23FB181B78101C191C90
:10CCF000FFF786FE3323FB183322BA18127801326D
:10CD00001A70FB68002B07D079691323FB181A7877
:10CD1000FB68081C111C9847FB6B0133FB63FB6B22
:10CD2000032B00D86CE73323FB181B78002B10D0A3
:10CD3000FFF794FE031C7B607A683B6C9A4204D137
:10CD40003323FB1800221A7003E07B683B64FB6A04
:10CD5000BB623323FB181B78002B00D049E7BD468C
:10CD600013B090BDAC23002080B582B000AF7860D6
:10CD70000A1CBB1C1A80BB1C1B887A68D3180022B3
:10CD80001A60BD4602B080BD80B582B000AF786049
:10CD90000A1CBB1C1A80BB1C1B887A68D3181B6832
:10CDA0005A1E9341DBB2181CBD4602B080BDC0467E
:10CDB00080B582B000AF786039607A68C1239B008B
:10CDC0003968D150BD4602B080BDC04680B582B042
:10CDD00000AF786039607A68C1239B00D3583A6805
:10CDE00013405A1E9341DBB2181CBD4602B080BDF1
:10CDF00080B582B000AF786039607A68C2239B004A
:10CE00003968D150BD4602B080BDC04680B584B0FF
:10CE100000AF78607A689023DB00D358FB607A68B3
:10CE20009023DB00F968D150FB68181CBD4604B0A4
:10CE300080BDC04680B582B000AF78607A68A0231C
:10CE4000DB000421D150BD4602B080BD80B584B066
:10CE500000AFF860B9607A60FB680549BA685A505B
:10CE6000FB6804497A685A50BD4604B080BDC0468C
:10CE70000C0500001405000080B584B000AFF86018
:10CE8000B9607A60FA68A123DB00B968D150FA680A
:10CE9000A223DB007968D150BD4604B080BDC046F6
:10CEA00080B582B000AF78607A68A323DB00D358E6
:10CEB000DBB2181CBD4602B080BDC04680B582B052
:10CEC00000AF78600A1CFB1C1A70FB1C1A787B6888
:10CED00002495A50BD4602B080BDC0461C05000044
:10CEE00080B582B000AF78600A1CFB1C1A70FB1C76
:10CEF0001B787A68D31801221A60BD4602B080BD43
:10CF000080B582B000AF7860081C111CFB1C021CAD
:10CF10001A70BB1C0A1C1A70FA1CBB1C12781B78F6
:10CF20001343DBB2191C7B68024A9950BD4602B01C
:10CF300080BDC0466C05000080B582B000AF78604F
:10CF400039607B6802493A685A50BD4602B080BDDC
:10CF50002405000090B583B000AF78600C1C101C55
:10CF6000191CFB1C221C1A70BB1C021C1A707B1C97
:10CF70000A1C1A70A023DB05FA1C1178BA1C12785F
:10CF8000520011437A1C1278920011431822BA18E9
:10CF90001278120211431C22BA181278120411439B
:10CFA0007A68C132FF329200D150BD4603B090BDC5
:10CFB00080B584B002AF78607A68002300930023C4
:10CFC0000193101C012101220023FFF7C3FFBD467E
:10CFD00002B080BD90B585B002AF78600A1CFB1C22
:10CFE0001A707A68FB1C1C780023009300230193BD
:10CFF000101C00210022231CFFF7ACFFBD4603B02C
:10D0000090BDC04680B582B000AF7860A023DA053D
:10D010007B6801219940A123DB00D150BD4602B0BD
:10D0200080BDC04680B582B000AF78607B681B6869
:10D03000181CFFF7E7FF7B681B68181CFFF7B8FF99
:10D040007B685B68181C0021FFF7C4FF7B689B6945
:10D050001C4A101C191CFFF76FFF7B685A7D7B6808
:10D060001B7D1849081C111C1A1CFFF749FF7B681F
:10D070001A687B685B681349081C111C1A1CFFF7AF
:10D08000E5FE7B681B7D012B19D17B689B68181C12
:10D090000021FFF79FFF7B68DB68181CFFF7B2FFDA
:10D0A0007B68DB68181CFFF783FF7B68DA687B68A6
:10D0B0009B680449081C111C1A1CFFF7DDFEBD46C5
:10D0C00002B080BD0020004080B582B000AF021CDD
:10D0D000FB1D1A700E4A8E235B00101C191CFFF7F3
:10D0E00043FE0B4AA2235B00101C191CFFF73CFEF9
:10D0F000074A084B101C191CFFF75AFEFB1D1B7832
:10D100000220191CFFF7E6FBBD4602B080BDC046F9
:10D11000002000408000020080B500AF024B181CC8
:10D12000FFF788FEBD4680BD0020004080B582B07C
:10D1300000AF786039601A4BDB7E002B01D00823EA
:10D140002AE07B68002B01D1164B7B607B68181CA2
:10D15000FFF768FF124B3A685A607B681A69104BF8
:10D160001A600F4B5B68002B04D07B681B7F181C78
:10D17000FFF7AAFFFFF7D0FF094B0022DA75084B33
:10D1800000221A76064B00229A75054B0122DA76A8
:10D19000034B00229A760023181CBD4602B080BDC6
:10D1A000F42300208884020080B582B000AF104ACA
:10D1B0008E235B00101C191CFFF7D6FD0D4B9B68DE
:10D1C0000C4A928A92B29A18FB1D12781A70094B77
:10D1D0009B8A9BB201339AB2064B9A82044AFB1D8A
:10D1E0001B78101C191CFFF769FEBD4602B080BDFC
:10D1F00000200040F423002080B582B000AF00235F
:10D200007B60304A8E235B00101C191CFFF7ACFDBD
:10D210002C4B181C0821FFF763FEFFF7C5FF2A4BB4
:10D220005B68002B48D11EE0C046264A8E235B0077
:10D23000101C191CFFF7A8FD031C1A1C01235340E6
:10D24000DBB2002B06D0204B9B8A9AB280235B0076
:10D250009A42EAD11C4B9B8A9AB280235B009A4285
:10D2600001D0FFF7A1FF184B9B8A9AB2164B9B7D0A
:10D270009BB29A42D8D3144B9B8A9AB280235B000C
:10D280009A4202D10F237B6013E0C0460D4A8E23E1
:10D290005B00101C191CFFF777FD031C1A1C0123EF
:10D2A0005340DBB2002BF1D1064B181C0C21FFF7C9
:10D2B00017FE054B00229A757B68181CBD4602B00C
:10D2C00080BDC04600200040F423002080B582B01D
:10D2D00000AF78600A1CFB1C1A7000F017F8031EE0
:10D2E00001D011230CE0084BFA1C12789A75064BFA
:10D2F0007A689A60044B00229A82FFF77DFF031C34
:10D30000181CBD4602B080BDF423002080B500AFDC
:10D31000034B9B7D5A1E9341DBB2181CBD4680BD5A
:10D32000F423002080B500AF0A4A92235B00101C52
:10D33000191CFFF719FD074A84235B00101C191CF8
:10D34000FFF712FD034B181C0021FFF7C9FDBD4676
:10D3500080BDC0460020004098B500AF154BDB7D76
:10D36000002B0BD1144A84235B00101C191CFFF7FF
:10D37000FBFC114B181CFFF793FD19E00E4A8423A8
:10D380005B00101C191CFFF7EFFC0A4BDB68094A15
:10D39000527ED2B29C18084B181CFFF781FD031C6B
:10D3A0002370044B5B7EDBB20133DAB2014B5A7659
:10D3B000BD4698BDF42300200020004090B585B004
:10D3C00000AF7860081C111CFB1C021C1A70BB1CEF
:10D3D0000A1C1A704A4B9B7E01225340DBB2002B81
:10D3E00008D0BB1C1B7801225340DBB2002B01D0BC
:10D3F000FFF798FF424B5B68002B00D073E0414A77
:10D40000A2235B00101C191CFFF7AEFC0F23FC18B5
:10D410003C4A92235B00101C191CFFF7B5FC031C4F
:10D4200023700E23FC18374A84235B00101C191C40
:10D43000FFF7AAFC031C23700D23FC18314AA2231A
:10D440005B00101C191CFFF79FFC031C23700E23AC
:10D45000FB181B7801225340DBB2002B0FD00D23A9
:10D46000FB181B7801225340DBB2002B07D00F239F
:10D47000FB181B7801225340DBB2002BC6D10F23CF
:10D48000FB181B78002B0DD10D23FB181B78002BEC
:10D4900008D1FFF761FF1A4BDA7D194B5B7EDBB2D7
:10D4A0009A42B3D8164B0022DA750F23FB181B786B
:10D4B000002B01D003231EE00D23FB181B78002B4B
:10D4C00001D00F2317E00E4B9B7E002B05D00D4B98
:10D4D000181C0021FFF704FD0CE00A4B181C042166
:10D4E000FFF7FEFC06E0074A81239B00101C191C75
:10D4F000FFF75EFC0023181CBD4605B090BDC0467A
:10D50000F42300200020004080B584B000AF786094
:10D510000A1CFB1C1A700F23FB1800221A70284BE0
:10D520005B68002B06D0274A81239B00101C191C26
:10D53000FFF75EFC224BDB7D002B14D0204B1B7EC3
:10D54000002B0CD01E4B5B68002B06D01D4A81239C
:10D550009B00101C191CFFF72BFC11232CE00F2340
:10D56000FB1801221A700F23FB181B78012253406D
:10D57000DBB2002B0DD0124BFA1C1278DA75104B6F
:10D580007A68DA600E4B00225A760D4B00221A762A
:10D5900006E00B4B7A681A61094BFA1C12781A766E
:10D5A0007968FB1C1A780F23FB181B78081C111CC8
:10D5B0001A1CFFF703FF031C181CBD4604B080BDF6
:10D5C000F42300200020004080B500AF064B9B7E76
:10D5D00001225340DBB2002B04D0FFF7A3FE024B25
:10D5E00001229A76BD4680BDF423002080B586B026
:10D5F00000AF021C3960FB1D1A700823FB180122C2
:10D600001A700823FB18FA1D12781A720823FB18E7
:10D610003A685A60054B5A68044B1B680821791810
:10D62000081C191C9047BD4606B080BDF42300209D
:10D6300080B586B000AF021CFB1D1A700823FB18D2
:10D6400000221A700823FB18FA1D12781A720A4B6E
:10D650009A680823FB185A60074B00229A75064BFC
:10D660005A68054B1B6808217918081C191C90473B
:10D67000BD4606B080BDC046F423002080B586B00C
:10D6800000AF7C4A80239B00101C191CFFF79EFBF7
:10D69000031E43D0774A92235B00101C191CFFF72E
:10D6A00073FB031E3AD0734A92235B00101C191CB3
:10D6B000FFF75AFB6F4A81239B00101C191CFFF7D0
:10D6C00097FB6D4B9B7E01225340DBB2002B04D0B5
:10D6D000684B181C0421FFF703FC3B1C02221A7044
:10D6E000644B181CFFF792FB021C3B1CDA60624B78
:10D6F000DA7D3B1C1A72604BDA683B1C5A605E4B49
:10D700000022DA755C4B00221A765B4B5A685A4B42
:10D710001B68391C081C191C90475AE0554B181CF3
:10D720000421FFF753FB031E53D0524A84235B00AE
:10D73000101C191CFFF728FB031E4AD0FFF70CFE34
:10D740004D4BDA7D4C4B5B7EDBB29A4241D14A4B6A
:10D750001B7E002B1ED0484BDB687B611323FB181C
:10D76000454A527E1A70444B1A7E434BDA75424B3F
:10D770001A69414BDA60404B00221A763E4B002278
:10D780005A761323FB181A787B69101C191CFFF7B3
:10D790002DFF1EE0384B9B7E01225340DBB2002B55
:10D7A00004D0344B181C0421FFF79AFB314A812323
:10D7B0009B00101C191CFFF71BFB2F4B0022DA7576
:10D7C0002D4B5B7EDAB22C4BDB68101C191CFFF76B
:10D7D0000DFF284A8E235B00101C191CFFF7D4FA9A
:10D7E000031E1AD0244B9B8A9AB2234B9B7D9BB27B
:10D7F0009A4202D2FFF7D8FC0FE01E4A8E235B004C
:10D80000101C191CFFF7B0FA1B4B9B7D002B04D09A
:10D81000194B9B7D181CFFF70BFF164AA2235B00D8
:10D82000101C191CFFF7B0FA031E1FD0114AA223C7
:10D830005B00101C191CFFF797FA0F4B9B7E002B07
:10D8400004D00C4B181C0021FFF74AFB0A4BDB7D70
:10D85000002B0BD0084B0022DA75074B5B7EDAB247
:10D86000054BDB68101C191CFFF7C0FEBD4606B057
:10D8700080BDC04600200040F423002080B500AFEA
:10D88000FFF7FCFEBD4680BD80B582B000AF78607A
:10D890000A1CFB1C1A70FB1C1B787A68D318012227
:10D8A0001A60BD4602B080BD80B582B000AF78601E
:10D8B0000A1CBB1C1A80BB1C1B887A68D318002268
:10D8C0001A60BD4602B080BD80B582B000AF7860FE
:10D8D0000A1CBB1C1A80BB1C1B887A68D3181B68E7
:10D8E0005A1E9341DBB2181CBD4602B080BDC04633
:10D8F00080B582B000AF786039607A6880239B0081
:10D90000D2583B681A43111C7A6880239B00D1507F
:10D91000BD4602B080BDC04680B582B000AF786021
:10D9200039607A68C1239B003968D150BD4602B086
:10D9300080BDC04680B582B000AF78607A68A02311
:10D94000DB000221D150BD4602B080BD80B584B05D
:10D9500000AFF860B9607A603B60FA68A123DB0031
:10D96000B968D150FA68A223DB007968D150FB680E
:10D9700004493A685A50FB680349BA695A50BD468F
:10D9800004B080BD0C0500001405000080B584B013
:10D9900000AFF860B960FB1D1A70BA68FB680549F2
:10D9A0005A50FB1D1978FA68A923DB00D150BD46F7
:10D9B00004B080BD4405000080B584B000AFF860BD
:10D9C000B960FB1D1A70BA68FB6805495A50FB1D07
:10D9D0001978FA68A723DB00D150BD4604B080BD9A
:10D9E0003405000080B582B000AF78607B68034AE0
:10D9F0009B58DBB2181CBD4602B080BD3C05000040
:10DA000080B582B000AF78607B68034A9B58DBB278
:10DA1000181CBD4602B080BD4C05000080B584B026
:10DA200000AF7860081C111CFB1C021C1A70BB1C88
:10DA30000A1C1A70BB1C1B785A1E9341DBB2FB6098
:10DA4000FB1C1B78022B09D0032B0CD0012B00D020
:10DA50000EE0FB6802221343FB6009E0FB6804222E
:10DA60001343FB6004E0FB6806221343FB60C046DF
:10DA70007B680349FA685A50BD4604B080BDC04671
:10DA80005405000080B582B000AF78600A1CFB1C12
:10DA90001A70FB1C19787A68B823DB00D150BD4698
:10DAA00002B080BD80B582B000AF78600A1CFB1C5C
:10DAB0001A70FB1C1A787B6802495A50BD4602B0A6
:10DAC00080BDC0465C05000090B583B000AF7860B3
:10DAD0000C1C101C191CFB1C221C1A70BB1C021CE9
:10DAE0001A707B1C0A1C1A70A023DB05FA1C117823
:10DAF000BA1C1278520011437A1C1278920011431A
:10DB00001822BA181278120211431C22BA1812787D
:10DB1000120411437A68C132FF329200D150BD46DF
:10DB200003B090BD80B582B000AF78607B685B0FBA
:10DB30005B07E0221206944663445A425341DBB22B
:10DB4000181CBD4602B080BD90B58BB002AFF86026
:10DB5000B9607A60FB681B791A1C131C5B009B1868
:10DB6000DB00714A9B187B61FB681B683B617B692A
:10DB70001B7D002B01D00823D1E0BB68002B09D10D
:10DB8000FB681B791A1C131C5B009B18DB00674A9F
:10DB90009B18BB60BB681B7C032B01D90723BEE02D
:10DBA0007B68002B01D10E23B9E0BB681B68FF2BFB
:10DBB00010D0BB681A68BB68DB7C0093002301931C
:10DBC000101C002100220023FFF77EFFBB681B68AA
:10DBD000BB6102E001235B42BB61BB685B68FF2B5A
:10DBE0000FD0BB685A680023009300230193101CD8
:10DBF000002100220023FFF767FFBB685B68FB6121
:10DC000002E001235B42FB61BB68DA68BB689C7C75
:10DC10000023009300230193101C00210022231CE9
:10DC2000FFF752FFBB689A6800230093002301931B
:10DC3000101C002100220023FFF746FFBB689968F3
:10DC4000BB68DB683869FA69BC690093231CFFF77D
:10DC50007DFE3B69181C00210022FFF7ADFE3B69E9
:10DC6000181C00210022FFF791FEBB681A7CBB68DC
:10DC70005B7C3969081C111C1A1CFFF7CFFEBB68BE
:10DC80001B7D3A69101C191CFFF70CFFBB685B7DFC
:10DC90003A69101C191CFFF7F5FE3A6982235B00F4
:10DCA000101C191CFFF700FE3A6994235B00101C3E
:10DCB000191CFFF7F9FD3B69181C0421FFF718FE3A
:10DCC000FB681B79191C184A0B1C5B005B18DB00F6
:10DCD000D318103300225A71FB681B79191C124AA1
:10DCE0000B1C5B005B18DB00D31808337A681A60E2
:10DCF0003B690F4A181C111CFFF70EFEFB685A798E
:10DD0000BB689B7D52B2101C191CFEF7E3FD7B69BA
:10DD100001221A753B69181CFFF70CFE0023181C22
:10DD2000BD4609B090BDC04610240020A884020062
:10DD30000204000090B589B000AF786039603B689C
:10DD40005B7DDBB2022B0AD0032B29D0012B00D044
:10DD500051E07B68181C2421FFF796FD4BE00C2353
:10DD6000FB1800221A700C23FB1800225A600C23A7
:10DD7000FB1800229A603B689B685A1E9341DBB2F5
:10DD8000FB61FB69002B02D10020FDF74BFA3B68D9
:10DD90009C680C23FB18186859689A68A0472AE009
:10DDA0000C23FB1801221A707B68181CFFF728FE51
:10DDB000031C1A1C0C23FB185A607B68181CFFF705
:10DDC00011FE031C1A1C0C23FB189A603B689B680D
:10DDD0005A1E9341DBB2BB61BB69002B02D100200C
:10DDE000FDF720FA3B689C680C23FB1818685968FB
:10DDF0009A68A047C046BD4609B090BD80B584B0C2
:10DE000000AFF860B960FB1D1A70BB68FA1D12788C
:10DE10005A75FA68BB68101C191CFFF78BFFBD46CA
:10DE200004B080BD80B586B000AFF860B9603B60DB
:10DE3000FB1D1A70FB681B791A1C131C5B009B18D6
:10DE4000DB002D4A9B183B613B68002B01D10E2360
:10DE50004EE0BB68002B01D10E2349E0BB68002BCC
:10DE60000AD0BB68181CFFF75DFE031C1A1C0123B7
:10DE70005340DBB2002B0DD13B68002B0CD03B682C
:10DE8000181CFFF74FFE031C1A1C01235340DBB282
:10DE9000002B01D010232BE03B695B7DDBB2012B13
:10DEA0001FD002DC002B02D01EE0032B1CDC3B69E0
:10DEB000BA68DA603B693A681A61FB1D1A783B69F7
:10DEC0001A602023FB181A783B695A6000237B6193
:10DED000FB681A683B69101C191C0122FFF78EFFB2
:10DEE00005E008237B6102E003237B61C0467B6978
:10DEF000181CBD4606B080BD1024002080B582B03D
:10DF000000AF786039607A6894235B00101C191C9C
:10DF1000FFF7DAFC031E2FD07A6894235B00101CF5
:10DF2000191CFFF7C1FC3B685B7DDBB2012B00D005
:10DF300022E03B68DA683B681B68DBB27968081C42
:10DF4000111C1A1CFFF722FD3B681A693B685B68CD
:10DF5000DBB27968081C111C1A1CFFF72DFD7B68C9
:10DF6000181C2821FFF790FC7A683B68101C191CCC
:10DF70000222FFF743FFC0467A6882235B00101C31
:10DF8000191CFFF7A1FC031E14D07A6882235B00E2
:10DF9000101C191CFFF788FC3B685B7DDBB2022B71
:10DFA00000D007E07A683B68101C191C0322FFF7B9
:10DFB00025FFC046BD4602B080BDC04680B500AF5B
:10DFC000034A044B101C191CFFF798FFBD4680BD87
:10DFD000004000401024002080B500AF80235B0586
:10DFE0001B699BB2181CBD4680BDC04680B582B07F
:10DFF00000AF0B4B5B697B607B68013308D0FFF798
:10E00000EBFF031C7868191C08F054FF031C02E0A6
:10E0100080235B055B69181CBD4602B080BDC0460D
:10E020000010001080B582B000AF78607B680322DA
:10E0300013405A425341DBB2181CBD4602B080BDAA
:10E0400029DF7047181CC04628DF7047181CC046DF
:10E0500080B500AF0C4B1B78181C00F069FA0A4B16
:10E060005B78013BDAB2084B5A70074B1B780133DF
:10E07000DAB2054B1A70044B1B780A2B02D1024B03
:10E0800000221A70BD4680BD2824002080B500AF54
:10E090000A4B1B781A1C131C9B009B189B00074AF9
:10E0A0009B1804330020191C00F01EFBFFF7D0FF63
:10E0B000002000F05DF9BD4680BDC0462824002048
:10E0C00080B500AF044B00221A60044B00221A6096
:10E0D00000F0FEFABD4680BD0C2500201C25002066
:10E0E00080B582B000AF78600A4B1B781A1C131CF5
:10E0F0009B009B189B00074A9B1804337A68101CEE
:10E10000191C00F0F1FA042000F032F9BD4602B00B
:10E1100080BDC0462824002080B582B000AF786062
:10E120007B68002B0ED0112B06D1084B1B680822F0
:10E130001A43064B1A6006E07B68181CFFF7D0FFF5
:10E14000C04600E0C046BD4602B080BD2425002088
:10E1500080B584B000AFF860B9607A60F968BA68D9
:10E160007B68081C111C1A1CFFF76AFF031C181C93
:10E17000FFF7D2FFBD4604B080BDC046B0B582B047
:10E1800000AF284B1B781A1C131C9B009B189B008C
:10E19000244A9B1804337B607B685C88FFF71CFF74
:10E1A000031C9C4224D97B685B881C1CFFF714FF6E
:10E1B000031CE31A3B607B68DB687A6892889A18D4
:10E1C0003B68D3181D1C7B681A693B68D418FFF79D
:10E1D00003FF031C9B089BB2281C211C1A1CFFF781
:10E1E000B7FFFFF7F9FE031C1A1C0F4B1A6015E06E
:10E1F0007B68DB687A6892889B18191C7B681A69AF
:10E200007B685B889B089BB2081C111C1A1CFFF7DB
:10E210009FFF7B685B881A1C034B1A60BD4602B0E7
:10E22000B0BDC046282400201C25002080B500AFCA
:10E23000FFF7A4FFBD4680BD90B585B000AF2A4B67
:10E240001B68012293431A1C274B1A60274B1B782B
:10E250001A1C131C9B009B189B00244A9B18043318
:10E26000FB60FB68DB68BB60FFF7B6FE031CB868A9
:10E27000191C08F01FFE031C7B601D4B7A681A6096
:10E28000FB685B881A1CBB68D3185C1EFFF7A4FEF2
:10E29000031C201C191C08F00DFE031C3B607A684F
:10E2A0003B689A4206D1104B1B6802221A430E4B60
:10E2B0001A6006E00C4B1B68022293431A1C0A4B9F
:10E2C0001A600C4B1B68002B08D1074B1B680222FD
:10E2D000134003D1022000F019F902E0002000F001
:10E2E00015F9BD4605B090BD242500202824002046
:10E2F000082500200025002080B582B000AF78609E
:10E300007B68181CFFF7A0FE031C181CFFF704FF16
:10E31000BD4602B080BDC04680B500AF034B1B6850
:10E32000181CFFF7E9FFBD4680BDC0460825002048
:10E3300080B500AF0D4B1B78012B0BD002DC002BFE
:10E3400005D010E0022B08D0032B09D00BE0FFF71B
:10E35000B7FE08E0FFF76AFF05E0FFF76DFF02E098
:10E36000FFF7DAFFC046BD4680BDC046FC24002052
:10E3700080B582B000AF021CFB1D1A70044BFA1D61
:10E3800012781A70FFF7D4FFBD4602B080BDC046B8
:10E39000FC24002098B500AFFFF728FE031C5C1E8C
:10E3A000FFF71AFE031C5C43FFF716FE031C201C3C
:10E3B000191C08F07FFD031C181CFFF79DFFBD46CC
:10E3C00098BDC046B0B500AFFFF710FE031C5C1E41
:10E3D000FFF702FE031C63431D1CFFF7FDFD031C3A
:10E3E0001A1C084B1B6853431C1CFFF7F5FD031C4C
:10E3F0009B089BB2281C211C1A1CFFF7A9FEBD46D6
:10E40000B0BDC0460825002080B500AF034B1B6897
:10E41000181CFFF771FFBD4680BDC04608250020CF
:10E42000B0B584B000AF1F4B1B781A1C131C9B00A7
:10E430009B189B001B4A9B180433FB60FB68DB683E
:10E44000BB60FB685B881A1CBB68D318FA689288AB
:10E450009C18FFF7C1FD031C201C191C08F0B0FD1F
:10E460000B1C7B60FB685B881A1CBB68D318FA68BE
:10E4700092889B181D1CFFF7B9FD031C5C1EFFF75B
:10E48000ABFD031C63431A1C7B68D3181A1C064B94
:10E490001B68281C111C1A1CFFF75AFEBD4604B04D
:10E4A000B0BDC0462824002004250020B0B500AF30
:10E4B0000C4B1B685C1EFFF78FFD031C63431D1C88
:10E4C000FFF794FD031C5C1EFFF786FD031C6343EE
:10E4D0001A1C054B1B68281C111C1A1CFFF738FE60
:10E4E000BD46B0BD082500200025002080B500AF46
:10E4F000044B1B781A1C044B9200D3589847BD4616
:10E5000080BDC046FD240020C084020080B582B0DA
:10E5100000AF021CFB1D1A70044BFA1D12781A7012
:10E52000FFF7E4FFBD4602B080BDC046FD240020D9
:10E5300080B582B000AF78601D497A68131C9B00DB
:10E540009B189B00CB1800221A7119497A68131C7A
:10E550009B009B189B00CB180022DA8014497A6834
:10E56000131C9B009B189B00CB18083301225A6098
:10E570000F497A68131C9B009B189B00CB1808332B
:10E5800000229A600A497A68131C9B009B189B0022
:10E59000CB18103300225A6005497A68131C9B007F
:10E5A0009B189B00CB1800221A81BD4602B080BD8B
:10E5B0002824002080B582B000AF0B4B00221A70D7
:10E5C000094B00225A7000237B6006E07B68181C10
:10E5D000FFF7AEFF7B6801337B607B68092BF5D9C1
:10E5E000BD4602B080BDC0462824002080B586B05C
:10E5F00000AFB9607A60191C0F23FB18021C1A7057
:10E600000C23FB180A1C1A802F4B5B780A2B53D063
:10E610002D4B1B781A1C2C4B5B78D3183B613B6944
:10E62000092B02D93B690A3B3B6127493A69131C14
:10E630009B009B189B000F22BA18CB1812781A71F6
:10E6400021493A69131C9B009B189B00CB1810337F
:10E650007A685A601C493A690820131C9B009B1871
:10E660009B00CB181B18BA68043303CA03C31649AE
:10E670003A69131C9B009B189B000C22BA18CB18FC
:10E680001288DA8010493A69131C9B009B189B0082
:10E690002022BA18CB1812881A810B4B5B780133F1
:10E6A000DAB2094B5A70094B1B78002B01D100F0EC
:10E6B000C3FB00237B6101E004237B617B69181CA1
:10E6C000BD4606B080BDC04628240020FC240020A2
:10E6D00080B500AF034B5B78002B01D000F0ACFBA2
:10E6E000BD4680BD28240020B0B586B002AF78605A
:10E6F00039600F23FB183A6812781A703B689A68E1
:10E700000C49131C5B009B189B005B58BB603B686B
:10E710000833181C3B681D69074B1B680F22BA1889
:10E7200011787A680093BC682B1CA047BD4604B0E2
:10E73000B0BDC046102500202025002090B585B032
:10E7400000AF1C4B1B781A1C131C9B009B189B00D2
:10E75000184A9B180433BB60BB68DB687B60BB68EE
:10E760005B881A1C7B68D318BA6892889B185C1E59
:10E77000FFF732FC031C201C191C08F09BFB031C38
:10E780003B600D4B1B68002B09D00C4B1A683B6893
:10E790009A4204D10F23FB1801221A7003E00F23C1
:10E7A000FB1800221A700F23FB181B78181CBD469B
:10E7B00005B090BD28240020042500200825002055
:10E7C00080B582B000AF0B4B1B781A1C131C9B004A
:10E7D0009B189B00074A9B1804337B607B681B785F
:10E7E000042B02D0FFF752FC01E000F017FBBD46FE
:10E7F00002B080BD2824002080B500AFFFF7E0FF05
:10E80000BD4680BD90B585B000AF1F4B1B781A1C6C
:10E81000131C9B009B189B001B4A9B180433BB6076
:10E82000BB68DB687B60BB685B881A1C7B68D3189D
:10E83000BA6892889B185C1EFFF7CEFB031C201C55
:10E84000191C08F037FB031C3B60104B1A683B682F
:10E850009A4208D30D4B1A683B689A4208D10C4B78
:10E860001B68002B04D10F23FB1801221A7003E050
:10E870000F23FB1800221A700F23FB181B78181C9B
:10E88000BD4605B090BDC0462824002008250020C4
:10E890000425002080B500AF064B1B680822934377
:10E8A0001A1C044B1A60044B1B78181CFFF72EFE31
:10E8B000BD4680BD24250020FD24002080B500AF8A
:10E8C000174B1B680822134026D1FFF737FF031EA2
:10E8D0000CD0144B00221A60114B1B6801221A4302
:10E8E0000F4B1A600020FFF711FE17E0FFF78AFFB9
:10E8F000031E06D00B4B00221A600220FFF706FE13
:10E900000CE0094B1B68002B03D00320FFF7FEFD32
:10E9100004E0FFF771FF01E0FFF7BCFFBD4680BDDB
:10E9200024250020002500200425002080B500AF0C
:10E93000054B1B680822134002D1FFF75DFF01E081
:10E94000FFF7A8FFBD4680BD2425002080B500AF9D
:10E950001B4B1B68082213402ED11A4B1B685A1CF4
:10E96000184B1A60184B1B68002B03D00420FFF7CC
:10E97000CDFD23E0FFF746FF031E03D00220FFF783
:10E98000C5FD1BE0114B1B68002B12D00C4B1B6804
:10E990000122134009D10A4B1B6801221A43084B7C
:10E9A0001A600020FFF7B2FD08E00320FFF7AEFD7C
:10E9B00004E0FFF721FF01E0FFF76CFFBD4680BDDB
:10E9C0002425002008250020002500200425002003
:10E9D00080B500AF0B4B1B68082213400ED1094BCA
:10E9E0001B680222134005D0064B1B6801221A4304
:10E9F000044B1A600220FFF789FD01E0FFF74AFF90
:10EA0000BD4680BD2425002080B500AF064B1B68A5
:10EA10000822134003D10120FFF778FD01E0FFF742
:10EA200039FFBD4680BDC0462425002080B500AF1B
:10EA3000044B1B781A1C044B9200D3589847BD46D0
:10EA400080BDC046FD240020D484020080B500AF04
:10EA5000064B1B68082293431A1C044B1A60044B94
:10EA60001B78181CFFF784FCBD4680BD24250020C0
:10EA7000FC24002080B500AF0F4B1B680822134018
:10EA800016D10E4B1B685A1C0C4B1A60FFF7BAFECE
:10EA9000031C1A1C01235340DBB2002B02D0FFF7EA
:10EAA0008FFE07E0064B1B78181CFFF761FC01E0A6
:10EAB000FFF7CCFFBD4680BD24250020082500209F
:10EAC000FC24002080B582B000AF144B1B680822E4
:10EAD00013401DD1124B1B781A1C131C9B009B1852
:10EAE0009B000F4A9B1804337B607B685A880D4B50
:10EAF0001B689BB2D31A9AB27B685A807B685B888A
:10EB0000002B02D1FFF7C2FA04E0FFF737FB01E068
:10EB1000FFF79CFFBD4602B080BDC0462425002003
:10EB2000282400201C25002080B500AF094B1B784D
:10EB3000022B0AD0032B05D0012B00D008E0FFF7F1
:10EB4000C1FF05E0FFF796FF02E0FFF76FFFC04649
:10EB5000BD4680BDFC24002080B500AF0E4B1B6875
:10EB60005A1C0D4B1A600C4B1B68032B0FD00B4B20
:10EB70001B78022B05D0094B1B78181CFFF7F8FBFC
:10EB800008E0074B1B78181CFFF7C0FC02E00D20C3
:10EB9000FFF7A6FABD4680BD0C250020FC2400200E
:10EBA000FD24002080B582B000AF78600F4B1B7849
:10EBB000002B17D00D4B1B78042B13D07B68022B36
:10EBC00002D0032B03D00DE0FFF7AEFF0AE0084BA5
:10EBD0001B680822134002D1FFF7BEFF01E0FFF7D8
:10EBE000A3FFC046BD4602B080BDC046FC24002045
:10EBF0002425002090B585B000AF021CBB1D1A80F3
:10EC00003B1D0A1C1A80FFF7E7F9031C1A1C3B1D69
:10EC10001B88181C111C08F04DF9031C9BB2FB60EB
:10EC2000FFF7DAF9031C1A1CBB1D1B88181C111CEA
:10EC300008F040F9031C9BB2BB60FA68BB689A42BB
:10EC400008D13B1D1A88BB1D1B88D31A9A080D4B8F
:10EC50001A6013E0FFF7C0F9031C1C1CFFF7BCF996
:10EC6000031C1A1CBB1D1B88181C111C08F0A8F9DA
:10EC70000B1C9BB2E31A9A08024B1A60BD4605B002
:10EC800090BDC0460425002090B589B000AF5E4B12
:10EC90001B781A1C131C9B009B189B005A4A9B183C
:10ECA0000433FB61FB69DB68BB61FB699A6816236F
:10ECB000F9185648131C5B009B189B00C3180833B7
:10ECC0001B880B80FB699A681423F9184F48131CA2
:10ECD0005B009B189B00C31808335B880B80FB69A3
:10ECE0009A684A49131C5B009B189B00CB185B6811
:10ECF0003B61FFF771F9031C1A1CBB69181C111C3E
:10ED000008F05EF90B1C1A1C0F23FB1851424A41F4
:10ED10001A701623FB181B881422BA181288534342
:10ED20001A1C3B69D318BB60FB695B881A1CBB6962
:10ED3000D318FA6992889B187B60354B00221A60C1
:10ED40000F23FB181B78002B06D0FB695C88FFF7AC
:10ED500043F9031C9C4210D00F23FB181B78002B97
:10ED600007D07A68BB689A4203D1FB699B88002B65
:10ED700003D0FB699B68022B0ED1FFF72DF9031C12
:10ED8000B869191C08F096F8031C1A1C214B1A606C
:10ED90000320FFF7EDFA34E0FB699B881A1CBB697E
:10EDA000D418FFF719F9031C201C191C08F008F9E6
:10EDB0000B1C9A08184B1A60FFF70EF9031C1A1C5B
:10EDC0007B68181C111C08F0FBF80B1C1A1CFB1CA0
:10EDD00051424A411A707A68BB689A420ED0FB1CB5
:10EDE0001B7801225340DBB2002B07D07B689AB21C
:10EDF000BB689BB2101C191CFFF7FCFE0220FFF73A
:10EE0000B7FABD4609B090BD282400201025002087
:10EE100004250020082500200025002080B500AF33
:10EE20000120FFF7A5FABD4680BDC04680B500AF02
:10EE3000FFF72AFFBD4680BD80B582B000AF124B00
:10EE40001B781A1C131C9B009B189B000E4A9B18D6
:10EE500004337B607B685B881A1C0C4B1A607B68F0
:10EE60001B78032B07D0042B08D0012B00D008E01F
:10EE7000FFF7D4FF05E0FFF707FF02E0FFF7D6FF3B
:10EE8000C046BD4602B080BD2824002020250020B9
:10EE900090B583B000AFFFF78DFB264B00221A80A0
:10EEA000FFF7A4F8031C9C1EFFF796F8031C6343AE
:10EEB0001A1C214B1A60214B00221A6000237B6030
:10EEC0001EE01F497A68131C5B009B189B00002200
:10EED0005A501B497A68131C5B009B189B00CB1887
:10EEE000083300221A8016497A68131C5B009B18AD
:10EEF0009B00CB18083300225A807B6801337B606B
:10EF00007B68002BDDD00F4B00221A700E4B0022C5
:10EF10001A600E4B00221A600D4B00221A600B4B38
:10EF20001B6804221A43094B1A600023181CBD46B3
:10EF300003B090BDF4240020F82400200825002010
:10EF400010250020FC2400200C2500202425002072
:10EF50001C250020B0B584B000AF786039605A4BF2
:10EF60001B680422134001D10823A8E07B68002B12
:10EF700001D10E23A3E03B68002B01D10E239EE0BC
:10EF80007B681B68002B01D10E2398E07B689C886E
:10EF9000FFF722F8031C9C4203D87B689B880F2B49
:10EFA00001D807238BE07B68DB88002B13D07B68BC
:10EFB000DB881A1C7B689B8853431A1C434B1B68D5
:10EFC000D418FFF713F8031C5D1EFFF705F8031CA8
:10EFD0006B439C4201D9072371E07B689B88032225
:10EFE00013409BB2002B01D0072368E0384B1B88ED
:10EFF000012B01D1042362E0354B1B881A1C3B68AE
:10F000001A60324B1A683B685A60314B1B88181CD7
:10F010003B685A682F49031C5B001B189B00CB18E8
:10F020005A602B4B1B88181C7B681968294A031CE3
:10F030005B001B189B009950254B1B88191C7B6893
:10F040009888244A0B1C5B005B189B00D31808337C
:10F05000021C1A801E4B1B88191C7B68D8881D4A0D
:10F060000B1C5B005B189B00D3180833021C5A80F2
:10F070007B689B881A1C7B68DB8853431C1CFEF74B
:10F08000ABFF031CE3185C1EFEF7A6FF031C201C4D
:10F09000191C07F09FFF031CFB60FEF79DFF031C7C
:10F0A0001A1CFB685A43094B1B68D218074B1A609D
:10F0B000074B1B8801339AB2054B1A800023181C9A
:10F0C000BD4604B0B0BDC04624250020F824002071
:10F0D000F424002010250020B0B586B000AFF86001
:10F0E0007A600A23FB180A1C1A80374B1B6804221B
:10F0F000134001D1082363E0FB68002B01D10E23EC
:10F100005EE07B68002B01D10E2359E0FB681B6891
:10F11000002B09D1FB681A682C49131C5B009B1853
:10F120009B005B58002B01D1072349E01023FB18FB
:10F13000FA6803CA03C31023FB1859680A23FB1893
:10F140001888FB681A68214C131C5B009B189B00F5
:10F15000E31808331B884343CA181023FB185A606E
:10F160001023FB1859681023FB181A681748131C42
:10F170005B009B189B00C31858681023FB181A6883
:10F18000124C131C5B009B189B00E31808335B8830
:10F190001D1C1023FB181A680C4C131C5B009B18D9
:10F1A0009B00E31808331B886B43C318994201D3B3
:10F1B000072305E07B681022BA1803CA03C30023A3
:10F1C000181CBD4606B0B0BD242500201025002027
:10F1D000B0B586B002AFF860B960191CBB1D1A80CB
:10F1E0003B1D0A1C1A80514B1B680422134001D19D
:10F1F000082397E0BB68002B01D10E2392E0FB6847
:10F20000002B01D10E238DE0FB681B68002B09D178
:10F21000FB681A684649131C5B009B189B005B58EF
:10F22000002B01D107237DE0FB685968FB681A6851
:10F230003F48131C5B009B189B00C3185868FB6871
:10F240001A683B4C131C5B009B189B00E3180833A7
:10F250005B881D1CFB681A68354C131C5B009B18EF
:10F260009B00E31808331B886B43C318994201D3F2
:10F27000072357E0BB1D1B88002B0DD0FB681A68C5
:10F280002B49131C5B009B189B00CB1808331B8871
:10F29000BA1D12889A4201D9072343E0BB1D1A8880
:10F2A0003B1D1B88D118FB681A682148131C5B00A2
:10F2B0009B189B00C31808331B88994201DD072364
:10F2C00030E0BB68181CFEF7ADFE031C1A1C0123BE
:10F2D0005340DBB2002B17D13B1D1B88181CFEF7D7
:10F2E000A1FE031C1A1C01235340DBB2002B0BD1DF
:10F2F000FB685B68181CFEF795FE031C1A1C0123B3
:10F300005340DBB2002B01D010230BE0F968BA6840
:10F31000BB1D1C883B1D1B8800930120231CFFF78D
:10F3200065F9031C181CBD4604B0B0BD242500209F
:10F3300010250020B0B586B002AFF860B960191C86
:10F34000BB1D1A803B1D0A1C1A80514B1B680422EE
:10F35000134001D1082397E0BB68002B01D10E2395
:10F3600092E0FB68002B01D10E238DE0FB681B6847
:10F37000002B09D1FB681A684649131C5B009B18D7
:10F380009B005B58002B01D107237DE0FB68596887
:10F39000FB681A683F48131C5B009B189B00C3184E
:10F3A0005868FB681A683B4C131C5B009B189B0059
:10F3B000E31808335B881D1CFB681A68354C131C66
:10F3C0005B009B189B00E31808331B886B43C31832
:10F3D000994201D3072357E0BB1D1B88002B0DD09A
:10F3E000FB681A682B49131C5B009B189B00CB1809
:10F3F00008331B88BA1D12889A4201D9072343E0BB
:10F40000BB1D1A883B1D1B88D118FB681A68214850
:10F41000131C5B009B189B00C31808331B88994280
:10F4200001DD072330E0BB68181CFEF7FBFD031C61
:10F430001A1C01235340DBB2002B17D13B1D1B8844
:10F44000181CFEF7EFFD031C1A1C01235340DBB20E
:10F45000002B0BD1FB685B68181CFEF7E3FD031C57
:10F460001A1C01235340DBB2002B01D010230BE008
:10F47000F968BA68BB1D1C883B1D1B8800930420DB
:10F48000231CFFF7B3F8031C181CBD4604B0B0BD25
:10F490002425002010250020B0B586B002AFF8600A
:10F4A000B960191CBB1D1A803B1D0A1C1A805B4BDE
:10F4B0001B680422134001D10823ABE0BB68002B7A
:10F4C00001D10E23A6E0FB68002B01D10E23A1E0A1
:10F4D000BB681B68002B09D1BB681A685049131C14
:10F4E0005B009B189B005B58002B01D1072391E028
:10F4F000BB685968BB681A684948131C5B009B18B5
:10F500009B00C3185868BB681A68454C131C5B0005
:10F510009B189B00E31808335B881D1CBB681A68A6
:10F520003F4C131C5B009B189B00E31808331B889F
:10F530006B43C318994201D307236BE0BB1D1B88A3
:10F54000002B0DD0BB681A683549131C5B009B1853
:10F550009B00CB1808331B88BA1D12889A4201D928
:10F56000072357E0BB1D1A883B1D1B88D118BB68B9
:10F570001A682B48131C5B009B189B00C3180833A8
:10F580001B88994201DD072344E0FB68181CFEF745
:10F5900049FD031C1A1C01235340DBB2002B17D179
:10F5A0003B1D1B88181CFEF73DFD031C1A1C012384
:10F5B0005340DBB2002B0BD1BB685B68181CFEF715
:10F5C00031FD031C1A1C01235340DBB2002B01D078
:10F5D00010231FE03B1D1A88BB685B68D318191CF9
:10F5E000BB1D1B88FA68101C1A1C07F0F4FDBB68D1
:10F5F0001A680B49131C5B009B189B005C58BB1DD1
:10F600001B88BA68FD680093101C022100222B1C85
:10F61000A0470023181CBD4604B0B0BD242500201F
:10F6200010250020B0B588B002AF78600A1CBB1C62
:10F630001A80634B1B680422134001D10823BAE0EF
:10F640007B68002B01D10E23B5E07B681B68002B83
:10F6500009D17B681A685B49131C5B009B189B00EF
:10F660005B58002B01D10723A5E07B6859687B68B4
:10F670001A685448131C5B009B189B00C3185868F9
:10F680007B681A684F4C131C5B009B189B00E318A7
:10F6900008335B881D1C7B681A684A4C131C5B008E
:10F6A0009B189B00E31808331B886B43C3189942CF
:10F6B00001D307237FE07B685B68181CFEF7B2FC70
:10F6C000031C1A1C01235340DBB2002B01D0102372
:10F6D00071E07B6859687B681A683A48131C5B00C4
:10F6E0009B189B00C3185B68C81A7B681A68354969
:10F6F000131C5B009B189B00CB1808331B88191C3C
:10F7000007F05EFC0B1E01D0072354E07B681A68EB
:10F710002C49131C5B009B189B00CB1808331A88DC
:10F72000BB1C1B88181C111C07F04AFC0B1C9BB24D
:10F73000002B03D1BB1C1B88002B01D107233AE00F
:10F740007B681A681F49131C5B009B189B00CB1831
:10F7500008331B88181C7B681A681A49131C5B0045
:10F760009B189B00CB1808335B8843437B617B6805
:10F770005A68BB1C1B88D3183B617B681A68114907
:10F78000131C5B009B189B00CB185A687B69D3182D
:10F79000FB603A69FB689A4201D907230BE07A685B
:10F7A000BB1C1C88002300930320111C0022231C77
:10F7B000FEF71CFF031C181CBD4606B0B0BDC046BA
:10F7C000242500201025002080B582B000AF78608D
:10F7D0000A4B1B680422134001D108230AE07B680E
:10F7E000002B01D10E2305E0054B5B781A1C7B68CA
:10F7F0001A600023181CBD4602B080BD24250020DD
:10F800002824002048DF7047181CC04675DF704769
:10F81000181CC04680DF7047181CC0468ADF70473E
:10F82000181CC0468BDF7047181CC0468CDF704721
:10F83000181CC04690B583B000AF78600C1C101C3B
:10F84000191CFB1C221C1A70BB1C021C1A707B1C8E
:10F850000A1C1A70A023DB05FA1C1178BA1C127856
:10F86000520011437A1C1278920011431822BA18E0
:10F870001278120211431C22BA1812781204114392
:10F880007A68C132FF329200D150BD4603B090BDBC
:10F8900080B584B002AF78607A68002300930023BB
:10F8A0000193101C012101220023FFF7C3FFBD4675
:10F8B00002B080BD80B582B000AF7860A023DA05C9
:10F8C0007B6801219940A123DB00D150BD4602B0E5
:10F8D00080BDC04680B582B000AF7860A023DB0554
:10F8E0007A68012191400A1C02495A50BD4602B073
:10F8F00080BDC0460C05000080B582B000AF7860C6
:10F90000A023DA05A223DB00D2587B68DA40131C5F
:10F9100001221340181CBD4602B080BD80B582B0E4
:10F9200000AF7860074A7B68101C191C04F02EFA9F
:10F93000054A7B68101C191C03F08CF8BD4602B008
:10F9400080BDC046D4260020E0260020F0B591B04E
:10F9500004AFF860B9607A60BB681B78113B122B6A
:10F9600000D9FEE09A00824BD3181B689F46814B5A
:10F970000020191CFCF74AFDBB685B680433FB627E
:10F98000FB6A5B781E1CFB6A9B781D1CFB6ADB789C
:10F990001C1CFB6A1B79181CFB6A5B79191CFB6A2F
:10F9A0009B791A1C744B00940190029103920020E1
:10F9B000191C321C2B1CFCF729FDBB685B681A88DC
:10F9C0006E4B1A806E4AFB68111C1A1C0423081C1B
:10F9D000111C1A1C07F0FFFB694B181C05F05EFE9A
:10F9E000031CBB62BB6A7B627B6A002B03D07B6A11
:10F9F000181CFBF717FC634B1B780133DAB2614B21
:10FA00001A70604B1B78002B01D101F0FBF95E4BA3
:10FA10000020191CFCF7FAFCA4E05C4B0020191C28
:10FA2000FCF7F4FC5A4AD6235B00101C00211A1C78
:10FA3000FBF7EEFB534B1B78012B01D101F0E2F9F0
:10FA4000504B1B78013BDAB24E4B1A70514B0020E1
:10FA5000191CFCF7DBFC85E0FB685B781A1C4E4B3D
:10FA60000020191CFCF7D2FC454B181C05F016FEB3
:10FA7000031CBB62BB6A3B623B6A002B03D03B6A40
:10FA8000181CFBF7CFFBFB685B781A1C434B00206C
:10FA9000191CFCF7BBFC65E0414B0020191CFCF76E
:10FAA000B5FC404B0020191CFCF7B0FC5AE03E4B63
:10FAB0000020191CFCF7AAFCBB685B681B88344A51
:10FAC000101C191C03F078FF031CBB62BB6AFB61AE
:10FAD000FB69002B03D0FB69181CFBF7A3FB334B1E
:10FAE0000020191CFCF792FC3CE0314B0020191C53
:10FAF000FCF78CFC7B68BB61BB69002B03D0BB6946
:10FB0000181CFBF78FFB2B4B0020191CFCF77EFC0D
:10FB100028E0294B0020191CFCF778FC7B687B61EE
:10FB20007B69002B03D07B69181CFBF77BFB234B05
:10FB30000020191CFCF76AFC14E0214B0020191C62
:10FB4000FCF764FC7B683B613B69002B03D03B699D
:10FB5000181CFBF767FB1B4B0020191CFCF756FC1D
:10FB600000E0C0460023181CBD460DB0F0BDC046E5
:10FB7000688D0200FC8402001C850200062700201C
:10FB800000270020042700206085020080850200F5
:10FB900028250020A4850200C8850200F485020003
:10FBA000208602004C860200788602009C860200B5
:10FBB000C0860200E4860200108702003C87020033
:10FBC000688702009487020080B588B000AFB960F2
:10FBD0007A600F23FB18021C1A700023FB61BB68BC
:10FBE0001B68BB612DE0BA69FB69D2181723FB18AB
:10FBF00012781A70FB690133BA69D2181623FB1800
:10FC000012781A701623FA180F23FB1812781B7833
:10FC10009A420FD1FB690233BA69D2187B681A6025
:10FC20001723FB181B789BB2013B9AB27B689A8022
:10FC300000230DE01723FB181A78FB69D318013352
:10FC4000FB61BB689B881A1EFB699A42CBD80523CF
:10FC5000181CBD4608B080BD90B585B000AF021C31
:10FC60003960FB1D1A700F23FB1800221A703B68C5
:10FC700000221A7078E0FB1D1A780F23FB18187801
:10FC80000E23F918424C131C9B009B181B01E31810
:10FC90001B1808331B790B70FB1D1A780F23FB18F8
:10FCA0001B78581C0D23F918394C131C9B009B180A
:10FCB0001B01E3181B1808331B790B700D23FB186D
:10FCC0001B78162B44D10C23FB180F22BA1812787C
:10FCD00002321A70FB1D1A780C23FB181B78591C72
:10FCE0002B48131C9B009B181B01C3185B1808337F
:10FCF0001B791B029CB2FB1D1A780C23FB18197888
:10FD00002348131C9B009B181B01C3185B18083366
:10FD10001B799BB2221C13439AB20A23FB181A8048
:10FD20000A23FB181B881B4A934211D1FB1D1A782A
:10FD30000C23FB181B78991C1548131C9B009B185F
:10FD40001B01C3185B1808331A793B681A701CE052
:10FD50000E23FA180F23FB1812781B78D318DAB287
:10FD60000F23FB1801321A70FB1D1A78084928204E
:10FD7000131C9B009B181B01CB181B18DB780F2250
:10FD8000BA1812789A4200D275E7BD4605B090BD08
:10FD90000C2700200F180000B0B5C8B002AF786083
:10FDA0007B680433F022BA1813601423FF33FB1866
:10FDB00000221A707B681B88103B0F2B01D900F0C2
:10FDC00040FD9A00834BD3181B689F46F023FB1815
:10FDD0001B680D331A1CC823FB181A60F023FB188C
:10FDE0001B681B7B1B06DB0EDBB29AB2C823FB1819
:10FDF0009A8089235B00FB1800221A700023862258
:10FE00005200BA18136081E0F023FB181B6859797F
:10FE1000714886235B00FB181A68131C9B009B1813
:10FE20001B01C3185B78994267D1F023FB181B684C
:10FE30009979694886235B00FB181A68131C9B009C
:10FE40009B181B01C31801335B78994255D1F023ED
:10FE5000FB181B68D979604886235B00FB181A6879
:10FE6000131C9B009B181B01C31802335B7899423B
:10FE700043D1F023FB181B68197A574886235B008F
:10FE8000FB181A68131C9B009B181B01C318033333
:10FE90005B78994231D1F023FB181B68597A4E48A0
:10FEA00086235B00FB181A68131C9B009B181B0120
:10FEB000C31804335B7899421FD1F023FB181B68E9
:10FEC000997A454886235B00FB181A68131C9B002F
:10FED0009B181B01C31805335B7899420DD1892308
:10FEE0005B00FB1801221A701423FF33FB188622D3
:10FEF0005200BA1812681A700FE086235B00FB18D4
:10FF00001B68013386225200BA18136086235B00F7
:10FF1000FB181B68092B00DC76E789235B00FB18C4
:10FF20001B78002B00D10EE3F023FB181B681B7B12
:10FF300001221340DBB2002B46D100238422520061
:10FF4000BA18136023E01423FF33FB181A78C82370
:10FF5000FB18196884235B00FB181B68CB18187802
:10FF60001D49131C9B009B181B01CA1884235B00AE
:10FF7000FB181B68D3180833021C1A7184235B001A
:10FF8000FB181B68013384225200BA181360C8237F
:10FF9000FB189B881A1C84235B00FB181B689A4281
:10FFA000D1DC1423FF33FB181A78C823FB189B8875
:10FFB000DCB209492820131C9B009B181B01CB189D
:10FFC0001B18221CDA7045E000237A1DFF321360F3
:10FFD00025E0C046B48D02000C2700201423FF3317
:10FFE000FB181A78C823FB1819687B1DFF331B68A0
:10FFF000CB181C7894492820131C9B009B181B01CC
:020000022000DC
:10000000CA187B1DFF331B68D3181B18221C1A71DA
:100010007B1DFF331B6801337A1DFF321360C82339
:10002000FB189B881A1C7B1DFF331B689A42D5DC8A
:100030001423FF33FB181A78C823FB189B88DCB203
:1000400081494820131C9B009B181B01CB181B18CF
:10005000221CDA70D423FB18181CFCF755F9031C7A
:100060008A225200BA1813608A235B00FB181B68AF
:10007000EC22BA181360EC23FB181B68002B05D088
:10008000EC23FB181B68181CFBF7CCF8D423FB18D7
:1000900018681423FF33FB181A786B49131C9B0054
:1000A0009B181B01CB1848335A68D023FB18111C2E
:1000B0001A1CFCF737F9031C8A225200BA18136085
:1000C000D023FB181A68F0235B039A4200D83AE267
:1000D0001423FF33FB181A78D423FB1819685A48E5
:1000E000131C9B009B181B01C31848335960EB235A
:1000F000FB1802221A70EB23FB181B78002B00D090
:1001000002E11423FF33FB181A784F492820131CEF
:100110009B009B181B01CB181B18DB78002B00D110
:10012000F2E01423FF33FB181A7847494820131CC8
:100130009B009B181B01CB181B18DB78002B00D1F0
:10014000E2E0424B8C2252009446BC4463441A1CA9
:100150009623101C00211A1CFBF75AF8B423FB1835
:1001600000221A6000225A6000221A811423FF33F1
:10017000FB181C781423FF33FB181A783249282007
:10018000131C9B009B181B01CB181B18DB781D1C34
:100190001423FF33FB181A782B494820131C9B00AB
:1001A0009B181B01CB181B18DB78EB180C22B91815
:1001B000274A081C111C221C07F016F800237A1C81
:1001C000FF32136027E01423FF33FB181A781E490F
:1001D000131C9B009B181B01CA187B1CFF331B6858
:1001E000D31808331B791C1CB423FA18194B101CA4
:1001F000191C221C06F0F8FF0C23FA18B423FB1874
:10020000101C191C07F03CF87B1CFF331B680133E2
:100210007A1CFF3213601423FF33FB181A780A4943
:100220002820131C9B009B181B01CB181B18DB7884
:100230001A1C7B1CFF331B689A42C4DC0023FC227F
:10024000BA18136031E0C0460C270020F4FEFFFF0F
:10025000C0870200D08702001423FF33FB181A78EE
:10026000D0492820131C9B009B181B01CA18FC2393
:10027000FB181B68D3181B181B791C1CB423FA1815
:10028000C94B101C191C221C06F0AEFF0C23FA18D7
:10029000B423FB18101C191C06F0F2FFFC23FB18FA
:1002A0001B680133FC22BA1813601423FF33FB18B8
:1002B0001A78BC494820131C9B009B181B01CB18C3
:1002C0001B18DB781A1CFC23FB181B689A42C3DC42
:1002D0000C23FA18B54B101C191C06F0D1FFB44AB8
:1002E0000C23FB180020111C1A1CFCF78FF80C23A0
:1002F000FB18181C06F0E3FF031CDBB20C22BA1833
:10030000101C191C00F024FEEB23FB181B78012B9A
:1003100052D11423FF33FB181A78A2492820131C4A
:100320009B009B181B01CB181B18DB78002B43D0BC
:100330001423FF33FB181A789A494820131C9B009A
:100340009B181B01CB181B18DB78002B34D0994B62
:100350008C2252009446BC4463441A1C9623101C01
:1003600000211A1CFAF754FF1423FF33FB181B78E3
:100370000C22B918904A081C111C1A1C06F034FFF4
:100380000C23FA18894B101C191C06F079FF884AB7
:100390000C23FB180020111C1A1CFCF737F80C2347
:1003A000FB18181C06F08BFF031CDBB20C22BA18DA
:1003B000101C191C00F0CCFDEB23FB181B78022B42
:1003C00000D0C0E01423FF33FB181A7875492820A9
:1003D000131C9B009B181B01CB181B18DB78002BF0
:1003E00000D1B0E01423FF33FB181A786D49482080
:1003F000131C9B009B181B01CB181B18DB78002BD0
:1004000000D1A0E06B4B8C2252009446BC44634464
:100410001A1C9623101C00211A1CFAF7F9FEA823B7
:10042000FB1800221A6000225A6000221A8114234D
:10043000FF33FB181A78A723FB18101C191CFFF7B1
:100440000BFC1423FF33FB181A7856494820131C61
:100450009B009B181B01CB181B18DA78EA23FB18AA
:10046000043A1A701423FF33FB181A78EA23FB1896
:100470001C78A723FB181B78181C0C23F9184F4B6A
:100480000090081C191C231C06F0AEFE0423F82261
:10049000BA18136028E01423FF33FB181A78414977
:1004A0002820131C9B009B181B01CA18F823FB185B
:1004B0001B68D3181B181B791C1CA823FA183A4B6D
:1004C000101C191C221C06F08FFE0C23FA18A823FE
:1004D000FB18101C191C06F0D3FEF823FB181B6830
:1004E0000133F822BA1813601423FF33FB181A786B
:1004F0002C494820131C9B009B181B01CB181B1870
:10050000DB781A1CF823FB181B689A42C3DC0C2307
:10051000FA18264B101C191C06F0B2FE244A0C23B4
:10052000FB180020111C1A1CFBF770FF0C23FB1892
:10053000181C06F0C4FE031CDBB20C22BA18101CF7
:10054000191C00F005FDC823FA18C023FB1802206F
:10055000111C1A1CFFF738FB031C8A225200BA1820
:1005600013608A235B00FB181B68002B0DD0C82387
:10057000FA18C023FB180320111C1A1CFFF724FBD8
:10058000031C8A225200BA1813608A235B00FB18EE
:100590001B68002B00D09EE00023F422BA181360E1
:1005A0008DE0C0460C270020D0870200D8870200CB
:1005B000DC870200F4FEFFFFEC870200F8870200F0
:1005C000C023FB181A68F423FB181B685B00013377
:1005D000D3181B789AB2A423FB181A80A423FB1803
:1005E0001B881B029AB2A423FB181A80C023FB1895
:1005F0001A68F423FB181B685B00D3181B789AB2A7
:10060000A423FB181B8813439AB2A423FB181A8057
:10061000A423FB181B881A1C8C4B0020191CFBF709
:10062000F5FEA423FB181B88894A934240D1FFF7AB
:10063000F9F8031C8A225200BA1813608A235B005F
:10064000FB181B68002B09D0824A8A235B00FB1829
:100650001B680020111C1A1CFBF7D8FE7E4B1A7871
:1006600002218A431A707C4B00225A60F023FB1847
:100670001B68191D784A794B081C111C1A1CFFF7BE
:10068000D5F8031C8A225200BA1813608A235B0033
:10069000FB181B68002B0AD0714A8A235B00FB18E9
:1006A0001B680020111C1A1CFBF7B0FE13E012E0BF
:1006B000F423FB181B680133F422BA181360C0231B
:1006C000FB189B885B089BB21A1CF423FB181B6861
:1006D0009A4200D974E7C046B4E0F023FB181B68C7
:1006E0001B79022B07D15F4B0020191CFBF78EFEF4
:1006F00000F088FB0BE0F023FB181B681B79032B31
:1007000005D1594B0020191CFBF780FE9AE099E0B7
:10071000564B0020191CFBF779FEF023FB181B68D1
:100720001B88534A101C191C002203F0DBFB031C1E
:100730008A225200BA1813608A235B00FB181B68D8
:10074000E422BA181360E423FB181B68002B05D0C1
:10075000E423FB181B68181CFAF764FDF023FB1850
:100760001B681B88434A101C191C002202F046FB20
:10077000031C8A225200BA1813608A235B00FB18FC
:100780001B68E022BA181360E023FB181B68002BDB
:1007900006D0E023FB181B68181CFAF743FD51E054
:1007A00050E0354B0020191CFBF730FEF023FB18FE
:1007B0001B681A88F023FB181B680433101C191CD3
:1007C000FFF724F8031C8A225200BA1813608A2308
:1007D0005B00FB181B68DC22BA181360DC23FB18D3
:1007E0001B68002B06D0DC23FB181B68181CFAF7CB
:1007F00019FD27E026E0214B0020191CFBF706FE1F
:100800001F4B1A881F4B101C01211A1CFFF702F8FE
:10081000031C8A225200BA1813608A235B00FB185B
:100820001B68D822BA181360D823FB181B68002B4A
:1008300006D0D823FB181B68181CFAF7F3FC01E05C
:1008400000E0C046BD4646B0B0BDC04610880200BC
:100850001A18000020880200EC260020F484020010
:10086000488802007888020094880200BC88020050
:10087000D4260020E0260020DC8802000C8902003B
:1008800006270020141F002080B582B000AF7860DA
:100890007B68023B012B0AD8074B1B78002B05D045
:1008A000054B00221A7000F0ADFA01E000E0C046EE
:1008B000BD4602B080BDC0460827002080B582B08A
:1008C00000AF78607B68181C05F02EF80C4A7B6836
:1008D000101C191C03F000F90A4A7B68101C191C33
:1008E00003F0D2FA084A7B68101C191C02F0F4F9D4
:1008F0007B68181CFFF750FABD4602B080BDC046A9
:1009000028250020D4260020E026002080B582B0D3
:1009100000AF78607B68181CFEF744F97B68181CF0
:10092000FFF7B2FFBD4602B080BDC04680B590B0B3
:1009300000AF1823FA18374B111C1A1C0423081C8B
:10094000111C1A1C06F047FC1823FA18324B101C15
:10095000191C4822002306F029F9031CFB63FB6BDA
:10096000BB63BB6B002B03D0BB6B181CFAF75AFCA4
:100970003B1D012000211A1C06F0A6F9031C7B6315
:100980007B6B3B633B6B002B03D03B6B181CFAF774
:1009900049FC224BFB62FB6A181C06F0EBF9031CB6
:1009A0007B637B6BBB62BB6A002B03D0BB6A181CEA
:1009B000FAF738FC3B1D181C06F008FA031C7B6391
:1009C0007B6B7B627B6A002B03D07B6A181CFAF777
:1009D00029FC134B181C06F031F9031C7B637B6B5D
:1009E0003B623B6A002B03D03B6A181CFAF71AFCE7
:1009F0000C4B181C06F036F9031C7B637B6BFB6108
:100A0000FB69002B03D0FB69181CFAF70BFCBD46F1
:100A100010B080BD34890200B42A0020E01C002000
:100A2000BD0802000D09020080B58AB000AF021CAB
:100A3000FB1D1A701423FB18FA1D12781A70FEF7AA
:100A400027FA031C7B627B6A3B623B6A002B03D064
:100A50003B6A181CFAF7E6FB1423FB18181C04F079
:100A600067FC031C7B627B6AFB61FB69002B03D084
:100A7000FB69181CFAF7D6FB0823FB180533181C72
:100A800000210522FAF7C4FB0823FB182A4A1A6042
:100A90000823FB1802221A710823FB185A79012136
:100AA0000A435A710823FB185A7902210A435A71E2
:100AB0000823FB185A7904218A435A710823FB182A
:100AC0005A7908218A435A710823FB185A797021F0
