:020000021000EC
:10B0000000800020ED1C02002D1D02002F1D0200FB
:10B010000000000000000000000000000000000030
:10B02000000000000000000000000000311D0200D0
:10B030000000000000000000331D0200351D02006A
:10B04000371D0200371D0200EDC20100371D02004E
:10B05000371D02000000000045C00100371D02003E
:10B06000371D0200371D0200371D0200371D020088
:10B07000371D0200371D0200371D0200371D020078
:10B08000371D0200C1B40100371D0200371D020048
:10B090009DB50100371D0200C51B0200371D0200CF
:10B0A000371D0200371D02000000000000000000F4
:10B0B0000000000000000000000000000000000090
:10B0C00010B5064C2378002B07D1054B002B02D07E
:10B0D000044800E000BF0123237010BD1C1F0020A6
:10B0E00000000000E82A020008B5084B002B03D03E
:10B0F0000748084900E000BF07480368002B00D15B
:10B1000008BD064B002BFBD09847F9E70000000074
:10B11000E82A0200201F0020181F00200000000065
:10B12000164B002B00D1144B9D46402292029A1AD6
:10B13000924600218B460F461348144A121A00F01B
:10B1400067F80F4B002B00D098470E4B002B00D018
:10B1500098470020002104000D000D48002802D06F
:10B160000C4800E000BF00F02DF82000290003F09B
:10B1700065FD00F011F8C0460000080000800020C6
:10B1800000000000000000001C1F00200C32002006
:10B190000000000000000000084B10B5041C002B4C
:10B1A00002D0002100E000BF054B1868836A002B25
:10B1B00000D09847201C00F033F8C0460000000083
:10B1C000982002000E4B70B500251E1C0D4CE41A91
:10B1D000A410A54204D0AB00F35898470135F8E716
:10B1E00006F04CFF084B00251E1C084CE41AA41066
:10B1F000A54204D0AB00F35898470135F8E770BD7D
:10B20000101F0020101F0020101F0020141F0020FE
:10B21000031C8218934202D019700133FAE7704779
:10B22000FEE7C046F8B54D465F4656464446F0B484
:10B23000224B1978994600292AD0214B002598469F
:10B24000204B214F01269A4603E00135EDB28D4295
:10B250001ED243461B68321C9C46EC006444207896
:10B260003B6882401342F0D093433B6000F0E0FE25
:10B27000331C22785146934009680B40011C9140D1
:10B280008B420BD04B4601351978EDB28D42E0D39D
:10B290003CBC90469946A246AB46F8BD61686378CF
:10B2A0008B460029EED0591E4C424C41211A4B428C
:10B2B0004B41101CD9B2D847E4E7C046401F0020DC
:10B2C0003C1F0020641F0020681F0020F8B5124DAD
:10B2D000071C281C00F08EFC002807D10124BC406C
:10B2E0000E4E3368234202D0A3433360F8BD381CAE
:10B2F00000F09EFE0A4A136800280BD02343136017
:10B300003368281C1C43074B00221968346000F086
:10B31000F5FBEBE7A343F2E7441F0020681F002082
:10B32000641F0020381F0020F0B54F464646C0B4C9
:10B33000141C071C83B00E1C0720042A04D803B079
:10B340000CBC90469946F0BD00F066FD00282FD059
:10B350001A4B1B4A1F601B4B751E1E701A4BEDB219
:10B360001C6000231360194A1360002E1AD0184B7A
:10B3700001AC994603230026984600E01D1C424676
:10B38000EB00FB182270A670E6709A78187862704D
:10B39000211C4A4600F04AFD0028D0D16B1EDBB2CA
:10B3A000002DEBD100210B4A0B4800F08DFBC6E7C6
:10B3B00000F0FEFC0028CBD0C1E7C0463C1F0020B7
:10B3C000641F0020401F0020381F0020681F00203D
:10B3D000CDB2010025B201009C20020070B5094DDC
:10B3E0002B78002B0BD00024074E3268E300985CCA
:10B3F000012100F0C9FD2B780134A342F5D80020CB
:10B4000070BDC046401F00203C1F0020002300B537
:10B4100085B001AA9060002103481380536000F0BA
:10B4200005F805B000BDC04601400000BFF34F8FD6
:10B43000034A044BDA60BFF34F8FC046FDE7C046B6
:10B440000400FA0500ED00E080218023184A8902FB
:10B45000D1508022D221174B520289005A504039D4
:10B460005A5001222F205A600138C046C046C046BB
:10B47000C046C046C046C046C046C046C046C0469C
:10B48000C046F1D19A6000230B4A2F201360013887
:10B49000C046C046C046C046C046C046C046C0467C
:10B4A000C046C046C046C046F1D1044A137070473A
:10B4B00000E100E0001001406C1F00208C1F002004
:10B4C000A021F0B5002347462B4A490080B45350D1
:10B4D0000431535004315350043153504C395350BC
:10B4E00004315350254B1B68002B35D024490026CE
:10B4F00052582449244F0C68141B00222402240AA9
:10B50000904602E0002D18D02B1C1A68A24214D8D5
:10B51000A41AB6181A7CDD69002AF3D0424699694C
:10B520001A745A693B68002B19D0101C98470028E0
:10B53000E8D0FFF76BFF002DE6D1144B14491A78C1
:10B540000B789A420ED0134A9B009E508021802394
:10B55000114A49035B00D15004BC9046F0BD081C61
:10B560009047CFE70132D3B2022B01D00B70EAE74C
:10B5700000230B70E7E7C04600100140701F002059
:10B58000040500006C1F0020741F0020801F002095
:10B59000811F0020841F002000E100E0F0B55F461D
:10B5A00056464D464446F0B4B54BB64A1B68B649BC
:10B5B00089B0019309781378994200D1B3E101333E
:10B5C000DBB2022B00D100231370B04A9B009B58C2
:10B5D000AB4A9946019B4B441B021B0A1360012393
:10B5E0000493AB4B00241B689B46AA4BD8461B78A0
:10B5F0001A1C0293A84B944607931B680393A04B15
:10B600001B680693A54B1B7805935B466646013E77
:10B61000F2B29446FF2A4FD06246D000039A924677
:10B62000504401784578A942F0D04A0052188778F2
:10B6300001314668C9B27F1AB2467E1EB741D200B8
:10B640007F42524439401778022F0AD0032FEAD1A3
:10B65000002BE8D01C74DB69002BFBD145789846A1
:10B66000E1E75668002B25D09E421AD01F1C00E04F
:10B67000171CFA69002AD6D09642F9D1321C3D1C1B
:10B68000BE4200D1EBE01768D269EA61002A06D019
:10B6900013689A465744176045784346C3E7457890
:10B6A000C1E7DE691A1C002E00D1DDE0B046331C74
:10B6B000151CE8E70023B6E74146754A181C1160DF
:10B6C0006F4A0699039311606946744A097D1170A7
:10B6D000049A002A00D02AE15B461B1A5A1E9341A5
:10B6E0000025DBB20493079B00271B68039E06938B
:10B6F000634B1B689C46664B1B689A46674B1B78DE
:10B700000593674B019301239846029B013BDBB2F3
:10B710000293FF2B00D18FE0069ADB0093469B44F7
:10B72000002D27D06968AB68281CED696246019C32
:10B730008A1A1202120AA24250D8D3184246036053
:10B74000476087600274C761002E56D03168341C90
:10B75000994204D35FE01168994263D2141CE269F4
:10B760005B1A002AF7D10360331CC261E0611E1C22
:10B77000002DD7D15B465A461B7852789A42C4D0E6
:10B78000594649685A0089465946D2180133DBB2F6
:10B790000B708978D2004A4499424AD01178506897
:10B7A000331C0129E3D1037C99464946331C002907
:10B7B000DDD191684160D36883601469C4605269C7
:10B7C0008261059A002AB1D04A4600214260624651
:10B7D000019C8A1A1202120AA242AED96246511A7A
:10B7E0000902090A99420CD242465B1A036047607B
:10B7F00087600274C761002EA8D1031C82461E1CFC
:10B80000B6E743460760476087600374C761002E50
:10B81000F3D000233168CB1A3360031CC661824623
:10B820001E1CA5E7C91A11600360C261331CE061E8
:10B830009DE75B461D70B1E75246154B1A60039BAE
:10B84000B34231D1049B002B2ED10023134A137035
:10B8500009B03CBC90469946A246AB46F0BDDE69B5
:10B860003A1C002E00D021E701250E4B01369D60C9
:10B870000023059600269846151C069603E7C04649
:10B880006C1F0020801F0020811F0020841F0020CB
:10B89000701F0020781F00207C1F0020821F0020C6
:10B8A000FEFF7F0000100140002E62D0474B484948
:10B8B0003568CC58474B484E1B683078E21A120264
:10B8C000120A0332904600285ED04246AA4200D2B5
:10B8D0002A1CA820D21812023D49130AC0003B4D71
:10B8E0000B504A591B1B121B1202120A1B02033275
:10B8F0001B0A9A42A9D94B590B502F200138C04638
:10B90000C046C046C046C046C046C046C046C04607
:10B91000C046C046C046F1D1802180232F4A89020B
:10B920005B00D15091E700239946049359E64746BE
:10B930000025002100244846002B13D01A688242BB
:10B940001AD8DE68801A89181C60DF69002E07D0BB
:10B95000DD611D1C019A9E608A181202120A5A604B
:10B960003B1EEBD11E4B1F60002303930133049356
:10B97000B9E6FFF769FD68E7121A1A60039301231D
:10B98000174904930F60AEE68020D1274002BF0024
:10B99000C851403FC851C02280271048BF02520002
:10B9A0008750076001272F200F600138C046C0462E
:10B9B000C046C046C046C046C046C046C046C04657
:10B9C000C046C046F1D137707FE7C046040500008D
:10B9D000001001406C1F00208C1F002000E100E0DF
:10B9E000701F0020F8B54F464646C0B40326351CEC
:10B9F00080460F1C141C994615400720002D03D0CB
:10BA00000CBC90469946F8BD002A44D0FFF71CFDB7
:10BA10004A46224B80201A60221C214B18321E708D
:10BA2000204B62601C607B00DB19DB00D218E260F7
:10BA3000D318C022636125706570A7702572657286
:10BA4000A77225746574A774C524FF21164B4003A3
:10BA50001D60164B52001D70154BA4001D70154B38
:10BA600098501A598A433F390A431A51A122186043
:10BA700040461149D2008850C42080001C580F4A0B
:10BA80002240C024240222431A500D4B0020CA58E1
:10BA90000C4B1A60B4E7034B1A60B1E7741F002027
:10BAA000781F00207C1F0020701F0020801F0020B6
:10BAB000811F002000E100E000100140FF00FFFFB7
:10BAC000040500006C1F002010B50B4B1B68002BF9
:10BAD0000BD0002A07D0002805D0036808201C7C62
:10BAE000002C04D010BD0720FCE70820FAE75974A9
:10BAF0005A610020F6E7C0467C1F0020F0B547469B
:10BB000080B4374B1C68002C08D0002806D00723CF
:10BB1000042905D8181C04BC9046F0BD0823F9E799
:10BB20004369002BFAD00025437CA846012B2FD077
:10BB3000EFF30583DB05DB0D1025002B2CD16419F9
:10BB40006378A5785E1CF6B2AD1B6F1EBD416D42D9
:10BB50002E402578B5421DD05D00EB186568DB00EE
:10BB6000ED180423002DD5D0033B2B7068601D4BCE
:10BB70001D48C358E960AB60434680212B61802398
:10BB80006A611A4A5B0049036670D1500023C1E71D
:10BB90008846CDE70423BDE7103BDEB275B2002D29
:10BBA00013DBAD08114EC035AD00AD59032633404F
:10BBB000DB00DD402B069B0FDBB20025012BBED046
:10BBC0000835032BBBD00835B9E70F23084D3340A8
:10BBD000AC46083B9B089B0063445D680323E6E793
:10BBE0007C1F0020040500000010014000E100E07F
:10BBF00018ED00E030B52E4A031C12680820002A18
:10BC00002ED0002B2CD05969002929D0002119747D
:10BC1000EFF30581C905C90D1025002923D1551958
:10BC20006A78A978541CE4B2091B481E8141494234
:10BC30000C402978A14214D051008A186968D200BA
:10BC40008C4662440420002A0AD0022153601170FD
:10BC5000802380210020174A49035B006C70D1507B
:10BC600030BD0420FCE71039CCB260B2002813DBF1
:10BC70008008104CC0308000005903242140C900C6
:10BC8000C8400106890FC9B200250129C7D008356F
:10BC90000329C4D00835C2E70F2107482140844654
:10BCA000083989088900614448680321E6E7C046ED
:10BCB0007C1F002000E100E018ED00E070B5104DA1
:10BCC00082B02B780024002B02D0201C02B070BD63
:10BCD00001268023009600200A490B4ADB0003F06E
:10BCE0008BF9002801D00824EFE7009400200749D1
:10BCF000074A102303F0E6F90028F4D12E70E4E798
:10BD0000A0230020A0200200A01F0020A8200200E5
:10BD1000901F00200EB400B582B003AB02CB01AA85
:10BD2000019303F02BFB02B008BC03B01847C046D8
:10BD3000F0B5002820DBFF271B4B03229C463B1C51
:10BD40008408C026C0B20240D2009340A4006444DC
:10BD5000B600A5599D438B013B409340191C2943D4
:10BD6000A1511F2318401E3B8340C022181C0E4BBC
:10BD7000520098501860F0BDFF260C4A03249446E8
:10BD8000321C0F23C0B20440E400A2400340083B31
:10BD90009B089B006344DD6995438A013240A240C1
:10BDA000111C2943D961DCE700E100E000ED00E06F
:10BDB00038B54425164C0820635D002B00D038BDF3
:10BDC0004022FF21013BA3540132A1540132A3546C
:10BDD000236201326362A362E36223636363A3634A
:10BDE000E3630238FC39A35423606360A360E3601B
:10BDF00023616361A361E361FFF79AFF8021C1239F
:10BE0000044A9B000906D150012300206355D6E760
:10BE1000A4230020006000404423034AD05C431E5A
:10BE20009841C0B27047C046A4230020F0B54746F1
:10BE300080B4524C0825231820331E787F2E03D857
:10BE4000281C04BC9046F0BDCD78AC46002D36D001
:10BE50002568013500D187E0042300269846731C2D
:10BE60009D006759013733D0B31C984525D99D00F3
:10BE7000675901372CD0F31C98451ED99D0067598E
:10BE8000013725D0331D984517D99D0067590137D3
:10BE90001ED0731D984510D99D006759013717D0E2
:10BEA000B31D984509D99D006759013710D0073651
:10BEB000B04502D9E369013308D00425C0E72569FC
:10BEC000013555D0082304269846C8E707231C25CA
:10BED000625162462718DEB220373E70002A02D136
:10BEE000E3183C3318708B78002B15D1031CA02568
:10BEF0004A78C133FF3392009B00ED055A51CB784D
:10BF0000002B15D176B2A4193C340B7822789B0112
:10BF100013432370002593E7A022D2059446E02521
:10BF2000022783006344ED005A59BA435A51E6E7A9
:10BF3000A22476B2124BB600F318E4000A781D5919
:10BF40001049000229401951F82149010840061CF6
:10BF5000C0211004021C301C89021D590A401043E4
:10BF60002843185100256BE7002622601E70BAE7AF
:10BF7000042522611D702E1C2B1CB1E7A423002078
:10BF800000600040FFE0FCFFF0B5264D2C18203487
:10BF9000227853B2032B18DDEB183C331B789B0936
:10BFA000032B32D0012B39D0C025AD02A023DB05F5
:10BFB0009C46E02380006044DB00C4581A492140BD
:10BFC000C150C2582A43C250F0BD032AFCD81748BA
:10BFD000A227844601269A006244FF00D0593043CC
:10BFE000D0511A1C604600274032920092B217507E
:10BFF0000029E9D00022A25692005259002AE3D02B
:10C00000C1229E4092008650DEE7A223A022DB00E0
:10C01000D205D258012383401A42C5D18025AD02F2
:10C02000C4E7C046A4230020FFFFFCFF00600040DF
:10C03000A223A022DB00D205D358C340181C012341
:10C0400018407047F0B544465F4656464D46F0B43A
:10C050009C4A87B013680024012B00D1AEE09A4BB4
:10C060001A68012A00D1B7E0984B1A68012A00D15A
:10C07000C2E0974B1A68012A00D1CDE00022954B0F
:10C0800002921A68012A00D1D8E023070BD0E307F7
:10C0900000D5DFE0A30700D5EBE0630700D5F6E0AD
:10C0A000230700D502E1002C06DB07B03CBC90461C
:10C0B0009946A246AB46F0BD002301270493C03346
:10C0C00099460126844D7F4200230393E023DB0041
:10C0D00000249846231C4033E95C4BB201332CD03A
:10C0E000C9B24B46081C98433B1CC3401E4224D097
:10C0F0008B0901932B1820331B785BB29B00EB5804
:10C100009C46002B35D0331C83409A46019B032B61
:10C1100035D0A023DB059B46434682005A44D358C2
:10C120000592C022920213401B0C191C53469346E1
:10C13000029A1A4212D1032926D00134042CC9D103
:10C14000039B002BB1D0A223A022DB00D205D35841
:10C15000029A9A42A9D0049F0293B5E70229ECD132
:10C16000019B032B16D06346002BE6D00199E047D4
:10C17000E3E7019B032BE0D1331C83409A465246F0
:10C18000049B13430493C4E7019B032BEBD180234F
:10C190009B029B4643460599CB589A4652464F4BC5
:10C1A000134042468B508B585A461A43131C424642
:10C1B0008B50039B0133DBB20393D4E7C121484882
:10C1C000890041580B4200D149E73F4B14601A687F
:10C1D0000134012A00D047E7C12241499200895821
:10C1E00002220A4200D13FE700211960374B144375
:10C1F0001A68012A00D03CE7C122394992008958C7
:10C2000004220A4200D134E700211960304B144364
:10C210001A68012A00D031E7C122314992008958B9
:10C2200008220A4200D129E70021144300221960A4
:10C23000284B02921A68012A00D026E700221A60D1
:10C2400080231B061C43A022A223D205DB00D35867
:10C2500002931AE7A223224ADB00D058D1581E4D80
:10C26000C00489032B68C00E890F9847A30700D428
:10C2700013E71C4B1A4A184DD058D158C0048903F3
:10C280006B68C00E890F9847630700D408E7A323A3
:10C29000134ADB00D058D1580F4DC0048903AB6856
:10C2A000C00E890F9847230700D4FCE60C4A0E4BBA
:10C2B000094DD058D158C0048903C00E890FEB68CE
:10C2C0009847F0E6006100400461004008610040CA
:10C2D0000C6100407C610040A4230020FFFFFCFFB4
:10C2E00000600040140500001C050000C12210B5CC
:10C2F000604B92009A5884B092054DD55E4A116801
:10C30000002949D0002111608121C22289009200B8
:10C3100099505A4B9A7E002A02D10121584A116045
:10C32000022269460A7090215248C9004258425080
:10C3300069460392DA7D68460A72DA6819680192E2
:10C340000022DA751A765B6898474E4A1368002B0C
:10C3500010D04A4B988A997D81424FD900211160B3
:10C360009A8A9968895C9A8A013292B29A82464B7B
:10C37000404AD150454B1A68002A0BD000221A605F
:10C380003E4B9A7E002A02D001213A4A1160DA7DA2
:10C39000002A42D104B010BDC123364A9B00D358B5
:10C3A0005B07D2D53A490B68002BCED0334BD87DF2
:10C3B00000283FD10860A321C90052585A7ED97D78
:10C3C0009142C2D11A7E002A41D19A7E002A02D11E
:10C3D00001212B4A11608120C2222649800092004F
:10C3E0008850002268460121DA755A7E0170027277
:10C3F000DA68196801925B689847A6E70020106028
:10C400000029B7D06A46107011729A689875196839
:10C4100001925B6868469847ACE7002268460121B4
:10C42000DA755A7E01700272DA68196801925B68E7
:10C430009847AFE700200860A320C000597E12583B
:10C44000D86842545A7E0132D2B25A76B6E7DA75CB
:10C450001A69D968DA6000226C46587E1A765A76D4
:10C460000132207201912270196868465B68984712
:10C470006BE7C0460020004024210040EC23002050
:10C48000042000401C2100401C0500004421004005
:10C490000821004029DF704728DF704730B583B09E
:10C4A000002806D0112806D108230F4A11680B4333
:10C4B000136003B030BD021C0C4801788B005B1880
:10C4C0009B00C518281CE9686B694C006418297921
:10C4D000074DA4002D680C300095064D6459A04707
:10C4E0000422054B1A70E4E7EC2400200824002005
:10C4F000F8240020DC240020F1240020F0B55F4661
:10C500004D4644465646F0B45E4F85B03C785E4D8D
:10C51000012C00D188E0002C00D16DE0022C16D057
:10C52000032C0DD1594B1868FFF7B6FF021E07D038
:10C53000112800D080E00823554A11680B4313608E
:10C5400005B03CBC90469946A246AB46F0BD504B68
:10C5500099461B6803932B789E00F3189B00EE18F6
:10C560003369984680235B05196940460904090C24
:10C570009B4605F0E1FB454B824618605B46196916
:10C580004346581EF3880904C018090C05F0D4FB73
:10C5900082454CD00323039C9C434B461C603D4B7F
:10C5A0001B68002B02D10233234262D000223A4B97
:10C5B0001A703A4B5869431C54D080235B051969A3
:10C5C0000904090C05F0B8FB031C80225205106910
:10C5D00011690004013B000C09045843090C05F0E3
:10C5E000ABFBFFF759FF021EAAD0112824D1082364
:10C5F0001C434B461C60A3E7294B1C60294B1C6065
:10C600006B78002B9CD02B789A00D3189B00ED18E8
:10C61000EA88254B1A602B79032B27D0042B25D0D1
:10C62000012B00D08CE73B7000F000FC88E7012371
:10C63000039A9A431443B0E72B789800C0188000FF
:10C640002E18301C184DF3682D685C00E418317901
:10C6500073690095154DA4000C306459A04704235C
:10C660003B706DE780235B055B69AEE700F020F867
:10C6700066E7094A50461370FFF70EFFFFF70EFFFB
:10C680005EE7C046F1240020082400200425002095
:10C69000EC24002000250020F024002000100010D1
:10C6A000FC240020D4240020F8240020DC240020D6
:10C6B000F0B55F4656464D464446F0B45B4B5C4889
:10C6C0001A78802791008A1892009B18DD681E69ED
:10C6D0006A00521992008218148950895268604386
:10C6E00080469044DA881B89141C9946514B924627
:10C6F0009B4600235A467F05396983B009044C44A0
:10C700001360090C301CA41905F09CFB002924D1EE
:10C710003B699BB29A4537D044456CD0022D33D04B
:10C72000301C3969484489B205F08CFB424B8908BA
:10C7300019603969201C0904090C05F083FB0029E4
:10C7400032D102223D4B1A70FFF7D8FE03B03CBC39
:10C7500090469946A246AB46F0BD022D14D0301C3F
:10C76000396948440904090C05F06CFB324B89080F
:10C77000196039694445E4D00904090C201C05F00E
:10C7800061FB0029DDD00FE080235B051969301CB7
:10C790000904090C05F0D0FA0322294B1860274B35
:10C7A0001A70FFF7ABFED1E780256D0529692B696B
:10C7B0006A4699464346D380D08889B205F0BCFAD0
:10C7C0006A464B46A6B2D380071CD188301C05F0C0
:10C7D000B3FABFB280B287421DD02C692969301CE0
:10C7E00089B205F02FFB5B462404240C89B2641A3D
:10C7F000A4081C60A5E74B46002BC5D0022DC3D072
:10C80000301C3969484489B205F01CFB0A4B890881
:10C8100019603B6995E7434624041B041A0C240C59
:10C82000131B5A469B0813608BE7C0460824002060
:10C83000DC240020D824002000250020F124002042
:10C8400004250020F8B546464F46C0B41D4D08AC3F
:10C8500024886E78A44604240A2E2DD02C78A04675
:10C86000A419092C00DD0A3C14277C432C196261B1
:10C87000221C20710C32B94681C981C2E380634613
:10C8800023810024104B01361A786E70A24213D116
:10C8900042464F465743ED190C4AE98811602A7900
:10C8A000032A07D0042A05D0012A05D11A70FFF700
:10C8B00025FE01E0FFF7FCFE201C0CBC90469946CB
:10C8C000F8BDC04608240020F1240020F8240020F0
:10C8D000082170B50C1C244A82B013681C4009D092
:10C8E0008B431360214B224A1B789B009B5898472F
:10C8F00002B070BD1F4D2B789800C3189B00EE1836
:10C90000317904292AD0F268736950008218301CEA
:10C91000194E920036680C300096184E9659002237
:10C92000B04701202A7893009B189B00EB181C71DC
:10C93000DC80D8601C615C611C816B780132013B3A
:10C94000D2B26B700A2A06D02A7000220C4B1A70E1
:10C95000FFF7D4FDCCE700232B70F6E70122084B4C
:10C960001A70FFF7CBFDC3E7EC240020F024002071
:10C97000B020020008240020F8240020DC2400203D
:10C98000F124002030B5244B83B05869431C3ED0BD
:10C9900080235B0519690904090C05F0CDF9041C15
:10C9A00080235B051869196900041A69000C631E6D
:10C9B00058431A4B09041B68090C92B29208594358
:10C9C000FFF768FD021E06D0112806D10823144A7D
:10C9D00011680B43136003B030BD12490B78980007
:10C9E000C01880000D18281CEB6829795C00E41839
:10C9F0006B690D4DA4002D680C3000950B4D6459EA
:10CA0000A04704220A4B1A70FFF778FDE3E7802362
:10CA10005B055C69C4E7C0460010001004250020D7
:10CA2000EC24002008240020F8240020DC2400202E
:10CA3000F1240020802230B55205146921492404D4
:10CA4000230C0C6883B0013C5C431F4B5869431CAA
:10CA500035D011690904090C05F06EF980235B05D6
:10CA600019691A4B09040138090C41431A68201C42
:10CA7000FFF710FD021E06D0112806D10823144A24
:10CA800011680B43136003B030BD12490B78980056
:10CA9000C01880000D18281CEB6829795C00E41888
:10CAA0006B690D4DA4002D680C3000950B4D645939
:10CAB000A04704220A4B1A70FFF720FDE3E75069F4
:10CAC000CCE7C046042500200010001000250020FF
:10CAD000EC24002008240020F8240020DC2400207E
:10CAE000F1240020082330B51E4D83B02C6823426A
:10CAF00014D1A30702D501231C432C6002221A4B38
:10CB00001A701A4B1868FFF7C7FC021E04D01128D0
:10CB10000DD108231C432C6003B030BD9C43124B45
:10CB2000134A1B782C609B009B589847F4E71149E7
:10CB30000B789800C01880000D18281CEB68297924
:10CB40005C00E4186B690C4DA4002D680C30009556
:10CB50000A4D6459A0470422094B1A70FFF7CEFC16
:10CB6000DAE7C046EC240020F02400200425002051
:10CB7000B020020008240020F8240020DC2400203B
:10CB8000F1240020F0B58027274C7F0523783969F0
:10CB90009A00D3189B00E3181A89DD881B69AD1829
:10CBA000ED18090483B0090C281C05F04BF91F4B44
:10CBB0000E1C5869431C35D039690904090C05F06D
:10CBC000BBF880235B05196901380904090C41434E
:10CBD000174B89191A68281CFFF75CFC021E06D047
:10CBE000112806D10823134A11680B43136003B0C0
:10CBF000F0BD23789800C01880002618301C0E4C19
:10CC0000F36824685D003179ED18736900940B4C6A
:10CC1000AD000C302C59A0470422094B1A70FFF7C5
:10CC20006DFCE4E77869CCE70824002000100010D0
:10CC3000D8240020EC240020F8240020DC2400204C
:10CC4000F124002030B5154B83B01868FFF724FCA1
:10CC5000021E06D0112806D10823114A11680B4381
:10CC6000136003B030BD0F490B789800C0188000E6
:10CC70000D18281CEB6829795C00E4186B690A4DD3
:10CC8000A4002D680C300095084D6459A04704227B
:10CC9000074B1A70FFF732FCE3E7C046042500207B
:10CCA000EC24002008240020F8240020DC240020AC
:10CCB000F1240020082370B52A4D82B02C6823424D
:10CCC00009D09C43284B294A1B782C609B009B5819
:10CCD000984702B070BD0122234B1A70244B58694B
:10CCE000431C3BD080235B0519690904090C05F03E
:10CCF00023F8061C80235B051869196900041A696A
:10CD0000000C731E58431B4B09041B68090C92B29C
:10CD100092085943FFF7BEFB021EDAD0112803D157
:10CD200008231C432C60D4E713490B789800C018E3
:10CD300080000D18281CEB6829795C00E4186B69E9
:10CD40000E4DA4002D680C3000950D4D6459A04780
:10CD500004220C4B1A70FFF7D1FBBAE780235B0566
:10CD60005E69C7E7EC240020F0240020B020020018
:10CD7000001000100425002008240020F8240020C2
:10CD8000DC240020F124002030B5224B83B0586908
:10CD9000431C3AD080235B0519690904090C04F08F
:10CDA000CBFF031C80225205106911690004013B6E
:10CDB000000C09045843090C04F0BEFFFFF76CFB9C
:10CDC000021E06D0112806D10823134A11680B430E
:10CDD000136003B030BD11490B789800C018800073
:10CDE0000D18281CEB6829795C00E4186B690C4D60
:10CDF000A4002D680C3000950A4D6459A047042208
:10CE0000094B1A70FFF77AFBE3E780235B055B6948
:10CE1000C8E7C04600100010EC24002008240020C1
:10CE2000F8240020DC240020F1240020F0B5802725
:10CE3000404D7F052C783969A60033199B00EB180B
:10CE4000DA8889B283B08A4218D8196918898C4661
:10CE5000920860445969FFF71DFB021E06D0112895
:10CE60002DD10823344A11680B4313603419A400F0
:10CE70002C19E288314B1A6003B0F0BD196938698A
:10CE80008C460004000C121A18893C6959696044E8
:10CE900080188918A2B29208FFF7FCFA021E06D089
:10CEA000112827D10823244A11680B4313608023DB
:10CEB0005B051B69214A1B041B0C1360DCE72B7804
:10CEC0009800C01880002918CB68081C5F00FF1864
:10CED0000B79BF009C464B6919490C3009680091D9
:10CEE00018497F586146B8470422174B1A70FFF75C
:10CEF00005FBBBE72B789800C01880002E18301C6B
:10CF00000F4DF3682D685C003179E4187369009562
:10CF10000C4DA4000C306459A04704220A4B1A702F
:10CF2000FFF7ECFA80235B051B69044A1B041B0C0A
:10CF30001360A1E708240020EC240020D424002062
:10CF4000F8240020DC240020F12400200823F0B580
:10CF50004D4644465F4656461A1CF0B4774D85B0A0
:10CF60002C68224091465FD1754F3E78B300039301
:10CF70009B199B00FB181A69511EDA881B898A18B5
:10CF8000D318029380235B059B4619696D4B1B6880
:10CF90009846002B57D16C4B1B689A4680235B0543
:10CFA000196902980904090C04F0C6FE824500D2F2
:10CFB00085E0434600D17AE0002B00D079E0039B66
:10CFC0009C466644B600BC192179042900D1AFE023
:10CFD000201CE3680C305A00D21863695B4C920045
:10CFE000246800945A4C14590022A047414601205D
:10CFF0003A7893009B189B00FB181971D860414642
:10D000004046D9801861586118817B780132013B14
:10D01000D2B27B700A2A00D17BE03A7000224D4BDD
:10D020001A70FFF76BFA07E09C434B4B4B4A1B7897
:10D030002C609B009B58984705B03CBC9046994695
:10D04000A246AB46F0BD404B09041B68090C029890
:10D050009A4604F071FE5045A0D14A46404B1A60F2
:10D0600001234A4623432B603B4B1A703D4B5869C2
:10D07000431C51D05B4619690904090C04F05CFE9D
:10D08000031C80225205106911690004013B000C49
:10D0900009045843090C04F04FFEFFF7FDF9021E86
:10D0A000CAD011283BD109231C432C60C4E7002BB4
:10D0B00005D00322284B1A70FFF764FDBCE700225D
:10D0C000274B50461A60244B02321A70FFF7E4F9DE
:10D0D000021EB1D0112818D03B789900CB189B00C4
:10D0E000FD18E9684C006418281C29796B69174DF4
:10D0F000A4002D680C300095154D6459A0470422FA
:10D10000144B1A70FFF7FAF996E708231C432C60BA
:10D1100092E700233B7081E75B465B69B1E73B78B0
:10D120009800C01880003D18EB685C00E418DBE74D
:10D130000122084B1A70FFF7E1F97DE7EC2400208B
:10D1400008240020D824002004250020F8240020F2
:10D15000DC240020F1240020F0240020B020020074
:10D160000025002000100010F0B54E4657464546F9
:10D170000823E0B48C4E82B03468234200D093E0A0
:10D180008A4B1A68571C1F60894B1D68002D50D1AF
:10D19000884B802299461B7852059D00ED18AB0004
:10D1A000984608234D469A464544AA4453469B68F0
:10D1B0001169581EEB880904C0182B89090CC01886
:10D1C00004F0BAFD874200D282E07B4B00D17BE0C5
:10D1D0001F68002F00D19CE001231A1C224000D0C0
:10D1E0008DE023433360754B1A70754B5869431CAF
:10D1F00000D1BEE080235B0519690904090C04F025
:10D200009BFD031C80225205106911690004013B3B
:10D21000000C09045843090C04F08EFDFFF73CF99B
:10D22000021E49D0112800D0A7E009231C43346016
:10D2300042E00421614B197080235B051F693F04A4
:10D240003F0C57435E4A5069421C3BD019690904A0
:10D25000090C04F071FD80235B051969013809048C
:10D26000090C41432A1C381CFFF714F9021E23D075
:10D2700011284AD04F4801788B005B189B00C518D5
:10D28000281CE9684C006418A40029796B694D4D8D
:10D290000C302D6800954C4D6459A04704224B4B2F
:10D2A0001A70FFF72BF907E09C43444B484A1B7860
:10D2B00034609B009B58984702B01CBC904699462E
:10D2C000A246F0BD5869C6E71B68002B00D083E773
:10D2D00002223A4B381C1A70FFF7DEF8021EEBD020
:10D2E000112812D04B461B789900CB1849469B0059
:10D2F000CD18E968281C4C006418A400C5E7032277
:10D300002E4B1A70FFF73EFCD6E708231C4334600F
:10D31000D2E7297904293DD053464046294C5B6821
:10D3200024685A00D2186B690094274C9200484434
:10D330000C3014590022A0474B4601201A78494668
:10D3400093009B189B004B441F71DF80D8601F61C6
:10D350005F611F814B465B780132013BD2B24B705B
:10D360000A2A1DD00A700022184B1A70FFF7C6F85F
:10D37000A2E780235B055B6944E74B461B78980076
:10D38000C0184B4680001D18EB68281C5C00E41890
:10D39000A4007AE701220D4B1A70FFF7AFF88BE774
:10D3A00000230B70DFE7C046EC240020042500209A
:10D3B0000025002008240020D8240020F02400208C
:10D3C00000100010F8240020DC240020F1240020AC
:10D3D000B020020070B5274C82B023789800C018A6
:10D3E00080002518281CEB6829795A00D2186B692F
:10D3F000214D92002E680C300096204E9659002246
:10D40000B04700210126227893009B189B00E31867
:10D410001971D980DE60196159611981637801320F
:10D42000013BDBB2D2B263700A2A0BD0227000211A
:10D43000134E14483160144E01703160002B05D139
:10D4400002B070BD002222700022F0E793009A180B
:10D450009200A418E3882B602379032B07D0042BB8
:10D4600005D0012BECD10370FFF748F8E8E7FFF790
:10D470001FF9E5E708240020F8240020DC24002020
:10D48000FC240020F1240020D4240020F0B54746DD
:10D4900080B4654D04262C7882B0231CB3430ED093
:10D4A000022810D003280AD10821604A13681942C3
:10D4B00058D0022C4FD0032C48D0012C46D002B0BB
:10D4C00004BC9046F0BD022C45D0032C59D0012C51
:10D4D000F5D10821554A1368194237D1544F55499F
:10D4E0003B780E689A00D3189B00FA18D1888E1BDF
:10D4F000B6B2D680002E6ED1D1681379480041189B
:10D500009846101C53694C4A890012680C300092EE
:10D510004A4A8A58414694460022E0473A789300A6
:10D520009B189B00FB181E71DE80DC601E615E6133
:10D530001E817B780132013BD2B27B700A2A66D011
:10D540003A7000232B70FEF7D9FFB8E78B431360C6
:10D55000FEF7D4FFB3E73A4B3A4A1B789B009B583F
:10D560009847ACE7384A136801331360032B35D072
:10D57000022CEDD1324B354A1B789B009B589847C3
:10D580009DE70821294A13681942DFD1304B284E04
:10D590001A683478571C1F6080235B051969A30043
:10D5A00098461B199B00F3181A690904501EDA8863
:10D5B0001B898018C018090C04F0BEFB8742C7D332
:10D5C0002CD0231C43449B00F3181B79042B20D040
:10D5D000FFF700FF73E7FFF729FC70E714480278B4
:10D5E00093009B189B00C418201CE26863695100DB
:10D5F0008A182179104C920024680C3000940F4C4A
:10D6000014590D22A0472E70FEF778FF57E73E70A1
:10D6100097E701232B70FEF771FF50E70D4B1B6856
:10D62000002BCED194E7C046F1240020EC2400204A
:10D6300008240020D4240020F8240020DC2400202A
:10D64000F0240020C4200200FC240020B0200200AE
:10D6500004250020D824002010B500202C2400220E
:10D660000121464B18551434185502341A5302340C
:10D670001A531034185502341A530234D9601876EC
:10D68000196259639964D9651A705A701A71DA80EF
:10D690001A615A611A815A835A629A629A83DA85A8
:10D6A0009A63DA631A86DA641A651A665A661A5336
:10D6B0001034185502341A5302341A5310341855C2
:10D6C00002341A530634195104341A5104341A51CD
:10D6D0000C3C1A531034185502341A53063419519D
:10D6E00004341A5104341A510C3C1A53103418558E
:10D6F00002341A530634195104341A5104341A519D
:10D700000C3C1A5310341855BA201A5206301950CE
:10D710001967C3315A5004315A500C395A525A675A
:10D720009A67174B1A80174B5869431C22D08023E5
:10D730005B0519690904090C04F0FEFA80235B05F6
:10D740001B6902381B041B0C58430F4B0021186047
:10D7500000230E4A002013600D4A13601381538189
:10D760000C4A11700C4A13600C4A136004220C4BD3
:10D770001A6010BD80235B055869DFE7082400208C
:10D78000E824002000100010F424002004250020CC
:10D79000DC240020F1240020FC240020D4240020DC
:10D7A000EC240020F0B557464E464546E0B4344BD5
:10D7B0001A680823520705D4181C1CBC90469946C9
:10D7C000A246F0BD002857D0002955D00368002B91
:10D7D00052D080277F053A69868892B20723964205
:10D7E000EAD80F2EE8D9C288002AE5D0254B72432B
:10D7F00099461B68041C9846234B424458690D1CEB
:10D800009246431C3AD039690904090C04F094FA91
:10D8100080225205136901381B041B0C584307234F
:10D820008245C9D8B107C7D1184F033B3E88012EA6
:10D83000C2D043466B600C232E60454673431448A8
:10D840000136C1184D6025681D50A5880D81E088FE
:10D8500048816843136911699BB21469C018013883
:10D8600089B2A4B204F0F8FA231C4A464343434465
:10D8700013603E8000239FE70E239DE77869C7E78A
:10D88000EC240020F424002000100010E8240020E4
:10D89000DC24002030B5114B1C680823640701D438
:10D8A000181C30BD002806D0002A04D00368002BC5
:10D8B00003D00723F4E70E23F2E7094C2568002D77
:10D8C000F7D025894068694309186089646868430E
:10D8D00000198142EDD213605160E1E7EC24002091
:10D8E000DC240020F0B5474680B41E4C051C24689B
:10D8F00082B00820640703D402B004BC9046F0BD97
:10D9000000292CD0002D2AD02C680138002CF3D10E
:10D91000154C2668002EEFD06E686789B0462689C0
:10D920007743B4466668BC19A045E5D2002AE3D027
:10D930009445E1D3D418A445DEDB09308C07DBD154
:10D9400003242342D8D146462642D5D1181C131CA5
:10D9500000900A1C0120291CFEF774FFCCE70E2062
:10D96000CAE7C046EC240020DC240020F0B547467E
:10D9700080B41E4C051C246882B00820640703D4C0
:10D9800002B004BC9046F0BD00292CD0002D2AD056
:10D990002C680138002CF3D1154C2668002EEFD0EE
:10D9A0006E686789B04626897743B4466668BC19B5
:10D9B000A045E5D2002AE3D09445E1D3D418A4458C
:10D9C000DEDB09308C07DBD103242342D8D1464665
:10D9D0002642D5D1181C131C00900A1C0420291CB7
:10D9E000FEF730FFCCE70E20CAE7C046EC2400204B
:10D9F000DC240020F0B54F464646C0B4254C83B029
:10DA0000256808246D0705D4201C03B00CBC904683
:10DA10009946F0BD002906D0002804D00C68002CDF
:10DA200003D00724F0E70E24EEE71B4D2E68002EEE
:10DA3000F7D04E682F89B4466E897E43B1466E6832
:10DA4000B0464E464644B445EBD2002AE9D0974250
:10DA5000E7D3D618B742E4DB860701D01024D3E71A
:10DA600003263342FAD167463E40F7D188466344E5
:10DA7000191C171C814604F0F0FA42460C23126868
:10DA8000009753434046ED580221321C4B46A847AD
:10DA9000BAE7C046EC240020DC240020F0B54F4655
:10DAA0004646C0B4204A83B012680824530705D400
:10DAB000201C03B00CBC90469946F0BD002830D025
:10DAC0000368013C002BF3D1184B1A68002AEFD0F1
:10DAD0001D895E895A686E434768B618B742E7D217
:10DAE0000934BB07E4D188468146291CB81A04F0E2
:10DAF000A9F9093C0029DBD14046291C04F0A2F910
:10DB000089B20029D4D14346002BD1D04744BE422C
:10DB1000CED30022032000924946FEF793FE041C58
:10DB2000C6E70E24C4E7C046EC240020DC24002015
:10DB3000074B1A680823520701D4181C70470028A5
:10DB400004D0044B5B7803600023F6E70E23F4E770
:10DB5000EC24002008240020A02210B5064BD2059A
:10DB6000D15880231B041C1CA1208C430B4003496B
:10DB7000C0001450535010BD040500000C050000F7
:10DB8000F8B54F464646041CC0B4112809D01228E7
:10DB900039D0132839D0142839D00CBC9046994676
:10DBA000F8BD0025012911D000291FD00229F4D188
:10DBB0006B005D191F4B5D196E78002EEDD01E4B6A
:10DBC0001B68002BE9D0301C9847E6E7194B6F0023
:10DBD000984642467B19D65C43445B78002B18D1AB
:10DBE0007F194744BA78154B5A55E6E71448FEF7B3
:10DBF00001F8104A6B005B19D318104A9B78565DE8
:10DC00009E42CAD1D9E70125CCE70225CAE7032500
:10DC1000C8E70C4B0A481B689900C9180A4B490011
:10DC20001A1C9946FDF76AFF0028D9D14B461C7093
:10DC3000D6E7C046842500203C250020342500205E
:10DC400040250020382500202C25002008B5037829
:10DC5000112B06D0122B12D0132B12D0142B12D052
:10DC600008BD00235A00D318084AD3185878002852
:10DC7000F6D0074B1B68002BF2D09847F0E7012342
:10DC8000F0E70223EEE7113BECE7C04684250020D5
:10DC90003C250020F8B5C74B1B68DB0700D4F8BD56
:10DCA000C54A1478172CFAD8C449A300CB589F460C
:10DCB000A022C34BD205D1588023DB031C1CA1201A
:10DCC0008C430B40BF49C00014505350BE4B002240
:10DCD0001B68BE489900C918FDF710FFDFE7A023B5
:10DCE000F021B84ADB05490499500021043A9950C3
:10DCF000D5E7A022B24BD205D1588023DB031C1CF0
:10DD0000A1208C430B40AF49C00014505350AE4B80
:10DD100000221968AD48FDF7F1FEC0E7AC4BA12029
:10DD20001968E0235B048B43A0210026F025C90578
:10DD3000C000A44C0B50A24B0E51CB586D046B404D
:10DD40008025AD032B4000D120E10D5003230E515F
:10DD5000082113709C4B00221B689C485943FDF717
:10DD6000CDFE9CE79A4BA1201968E0235B048B430E
:10DD7000A0210026F025C905C000924C0B50904B05
:10DD80000E51CB586D046B408025AD032B4000D164
:10DD900004E10D5004230E512821DAE7A023A1222B
:10DDA000E021DB05D20049048024995000218548F8
:10DDB000A40319501C50995071E7864D281CFDF79B
:10DDC00019FF11231C1B00D1C7E0002800D0C4E0BC
:10DDD00080237F4E1B043360012C10D0C830642197
:10DDE000604303F0A9FF784B00221B684343281CC3
:10DDF000191CFDF783FEF02332685B041340A02258
:10DE00007049D2055350A1230021DB00D15046E7D1
:10DE10006F4BA1211A68F0235B049343A022C90031
:10DE2000D20553500021674BD15038E7684BA120F1
:10DE30001968E0235B048B43A0210027F026C90565
:10DE4000C000604D0B505E4B4F51CB587604734071
:10DE50008026B603334000D18EE00E504F51022C85
:10DE600000D1A0E02821147074E7A023A122C021D2
:10DE7000DB05D2004904C024995000215148E40335
:10DE800019501C5099500AE7A023A122D021DB058C
:10DE9000D20049048024995000214A48E4031950D3
:10DEA0001C509950FBE6A023F021A122DB05490478
:10DEB000D20099500021434A9950F0E6E022444BA9
:10DEC00052041B68A1219A43A023C900DB058024CA
:10DED0005A5000223B48A4031A501C505A50DEE608
:10DEE0003B4BA1201968E0235B048B43A021002653
:10DEF000F025C905C000334C0B50314B0E51CB58A7
:10DF00006D046B408025AD032B403CD00D500E516D
:10DF1000052313702C4B002219682C484900FDF78B
:10DF2000EDFDBCE62A4BA1201968E0235B048B437E
:10DF3000A0210026F025C905C000224C0B50204B23
:10DF40000E51CB586D046B408025AD032B4022D081
:10DF50000D500E5106231370D9E6F0231C4A5B04C2
:10DF60001168A1200B40A021C000C9050B5000235F
:10DF700014480B50136092E64E510B50022C15D0F2
:10DF800004211470E6E60D510B50C1E70D510B5002
:10DF900002210323DDE60D510B50DBE70D510B5041
:10DFA00004210423D5E612211470D3E60221147053
:10DFB000D0E6C0463025002060250020D820020091
:10DFC000040500000C05000038250020082500206D
:10DFD0002825002064250020002303280DD8A22333
:10DFE000A022DB00D205D258054B8000C058012387
:10DFF000834093435A1E9341DBB200200B7070475D
:10E000009C21020070B5DB4B041C1B680020DB0761
:10E0100000D470BD172CFCD8D74AA300D3589F4614
:10E02000A022D64BD205D1588023DB031C1CA12093
:10E030008C430B40D249C00014505350D14B0022A6
:10E040001B68D1489900C918FDF758FDE1E7A022E7
:10E05000CA4BD205D1588023DB031C1CA1208C4362
:10E060000B40C749C00014505350C64B00221968DA
:10E07000C548FDF743FDCCE7C44D281CFDF7BAFDAC
:10E0800011231C1B00D14CE1002800D049E1802362
:10E09000BF4E1B043360012C10D0C8306421604394
:10E0A00003F04AFEB74B00221B684343281C191C8F
:10E0B000FDF724FDF02332685B041340A022B04931
:10E0C000D2055350A1230021DB00D150A1E7A023AA
:10E0D000F021A122DB054904D20099500021A84A71
:10E0E000002099501222AB4B1A7092E7A023A12274
:10E0F000E021DB05D2004904802499500021A0488A
:10E10000A40319501C5099501322A24B00201A70DE
:10E110007FE7A023F0219A4ADB05490499500021AA
:10E12000043A99509B4B00201C7072E7984BA12138
:10E130001A68F0235B049343A022C900D205535010
:10E1400000238F4900205350924A137061E7904B8F
:10E15000A1211A68E0235B049343A0220026F02546
:10E16000D205C90086485350844B1650D3586D04CD
:10E170006B408025AD032B4000D1E9E0555016508F
:10E18000022C00D1F1E02821824B1C707D4B002233
:10E190001B687D485943FDF7B1FC3AE7A023F02105
:10E1A000774ADB05490499500021043A99500C2222
:10E1B000784B00201A702CE7A023A122D021DB0588
:10E1C000D20049048024995000216D48E40319507D
:10E1D0001C50995014226F4B00201A7019E76C4B99
:10E1E000A1211A68E0235B049343A0220025F024B8
:10E1F000D205C90062485350604B1550D35864048F
:10E2000063408024A403234000D199E0545015506A
:10E21000082103221AE05E4BA1211A68E0235B0467
:10E220009343A0220025F024D205C900544853503E
:10E23000524B1550D358640463408024A4032340F8
:10E2400000D18BE05450282115500422514B1A70F4
:10E250009CE7E0224E4B52041B68A1219A43A02365
:10E26000C900DB0580245A5000224548A4031A50F7
:10E270001C505A50474B07321A700020C9E6A023A1
:10E28000A122C021DB05D2004904C02499500021FD
:10E290003B48E40319501C50995015223D4B002077
:10E2A0001A70B6E63A4BA1211A68E0235B04934347
:10E2B000A0220025F024D205C900314853502F4B2D
:10E2C0001550D358640463408024A40323403CD0F9
:10E2D0005450155005222F4B2B481A70294B002201
:10E2E00019684900FDF70AFC93E6294BA1211A6839
:10E2F000E0235B049343A0220025F024D205C9004B
:10E300001F4853501D4B1550D3586404634080245C
:10E31000A403234026D05450155006221D4B1A70DA
:10E32000A3E6F0231A4A5B041168A1240B40A02144
:10E33000E400C9050B510023114C0B51136068E632
:10E34000145053500221032280E714505350C1E768
:10E3500015505350022C0AD0042115E71450535085
:10E36000042172E714505350D7E712210CE7022121
:10E370000AE7C046302500203821020004050000CD
:10E380000C05000038250020082500206425002009
:10E390002825002060250020234B10B51960234B51
:10E3A000041C1860224B1A60830712D50D22214BE2
:10E3B00021481A700132DA7001329A7101325A72B0
:10E3C0004A080421FCF7B0FF002820D0E30703D45B
:10E3D0001CE0C3070ED50020A023F022A1210024B9
:10E3E000DB055204C9005A5014495C500C315A5094
:10E3F00000280BD112480021124AFDF765FB0028C6
:10E4000004D111480121114AFDF75EFB10BDFCF754
:10E41000E5FF0028DAD10E4800210E4AFDF754FB33
:10E42000E307E5D5D8E7C046382500203025002091
:10E430003C25002084250020B42102000C050000AA
:10E44000AC21020095DC0100B021020059DB010083
:10E45000982102004DDC0100031C0720032B00D98A
:10E460007047012A13D0012917D0002908D00229AA
:10E4700019D15800C3180D48C3185A700020EFE78F
:10E480005800C3180948C3189A700020E8E7002212
:10E490000129E8D11A1C0D32D2B258000349C31821
:10E4A0005A540020DCE70720DAE7C0468425002024
:10E4B000E0231D4ADB00D2581C4B1A400023C10741
:10E4C00001D5C0239B021343E0221749D2008B5091
:10E4D000174B9A58154B1A400023810701D5C023CA
:10E4E0009B021343E0221249D2008B50114B9A58E1
:10E4F0000E4B1A400023410701D5C0239B02134352
:10E50000E0220C49D2008B500B4B9A58074B1A4013
:10E510000023010701D5C0239B021343E0220649D3
:10E52000D20000208B50704744000050FFFFFCFFDA
:10E53000480000504C0000505000005008B5032027
:10E54000FFF7B6FF031C0020002B02D0062B00D0E3
:10E55000181C08BD10B50388102B08D0112B05D14D
:10E56000294A1368013B1360002B07D010BD264CCD
:10E570002368002B11D001332360F7E7002002212C
:10E580000122FFF769FF00282BD0072829D01F4B55
:10E590001B68002BEAD09847E8E700200021012201
:10E5A000FFF75AFF002808D0072806D0174B1B6832
:10E5B000002B00D098472368DDE7012002210722C5
:10E5C000FFF74AFF002801D00728EFD100200221E1
:10E5D0000422FFF741FF0028EDD00728E6D1236889
:10E5E000C9E7012002210722FFF736FF002801D0EA
:10E5F0000728CCD1002000210A22FFF72DFF002898
:10E60000B4D00728C3D1B1E794250020902500207D
:10E6100010B5244B82B00C1E186018D06B46002039
:10E62000991DFFF7D9FC002801D002B010BD6B4640
:10E630000130D91DFFF7D0FC0028F6D16B46DB79FD
:10E64000002B29D16B469B79002B28D12370164BC8
:10E650001B68002B01D00020E7E7002002210122E7
:10E66000FFF7FAFE002801D00728DED101200221A1
:10E670000722FFF7F1FE002801D00728D5D100209E
:10E6800000210A22FFF7E8FE0028E4D0C31F5A1E2B
:10E6900093415B421840C8E702232370D7E70B235E
:10E6A0002370D4E790250020942500203CDF70479C
:10E6B00048DF704775DF704776DF70478ADF704745
:10E6C0008BDF70478CDF704710B5041C0448211C99
:10E6D00002F032F90348211C01F0B2F810BDC04627
:10E6E000F0280020E425002000B597B001A8FFF72E
:10E6F0001FFA00282CD1019B002B04D00122194BBA
:10E700001A7017B000BD082202A90B7306AB029362
:10E7100015480EAB0A718B6002F016FE00281DD161
:10E72000FC231248027813400370A0230381503B5E
:10E730004381002343608381FFF7C0FF00280AD193
:10E740000120FFF75FFC0028DBD0FCF75FFED8E775
:10E75000FCF75CFECFE7FCF759FEF1E7FCF756FE4D
:10E76000DEE7C04640270020E1250020F8250020F4
:10E7700010B5041C023CFEF789FE012C03D8054BA2
:10E780001A78002A00D110BD00221A70FFF7ACFFE2
:10E79000F9E7C04640270020F0B54E4645465746AB
:10E7A000E0B4061C02F038FE5D48311C01F09AFB13
:10E7B0005C4D311C281C02F02DF95B4C311C201CD7
:10E7C00001F0ACF8301CFFF7C5FE33881B2B47D097
:10E7D00033D91D2B0DD01F2B06D1311CB088083129
:10E7E000FFF768FF002838D11CBC90469946A24626
:10E7F000F0BD341C307C1134C008F5D0717CB77C7E
:10E800000D1C022F00D187E0002304E0E2185278AB
:10E81000E55C022A31D001355B198342F6D3002230
:10E82000032F05D17AE0A3185B78A15C032B6ED08F
:10E830004D1C52198242F6D3D6E7102BD4D1B188A1
:10E84000281C002202F0BEF9002813D1B188201C38
:10E85000002201F059F90028C6D0FCF7D7FDC3E724
:10E86000337A022B44D0032BBED100202F49FDF771
:10E8700051FAB9E7FCF7CAFDE8E70233013DE418B5
:10E88000ADB26B089846AFD0294B00259A46294B6C
:10E89000994603E0013502344545A5D267782378CF
:10E8A0003F021F43002051463A1CFDF733FA4F4503
:10E8B000F0D1FFF705FF021E21D10020FFF7A2FBD8
:10E8C000002821D10222301C00241B4908300B787B
:10E8D0004C609343194A0B70FFF7F4FE184B021E6D
:10E8E0001C7000D180E700201649FDF713FA7BE782
:10E8F00000201549FDF70EFAFFF7F6FE74E7002039
:10E900001249FDF707FAD8E7FCF780FDDAE7023293
:10E910004D1EA418ADB2B4E70223AFE70222F7E719
:10E9200044270020F0280020E4250020B022020027
:10E930002C2202000D180000F825002024220200DD
:10E94000E025002064220200942202003C22020002
:10E9500070B50B78113BDBB2122B2DD8161C574A21
:10E960009B00D3580C1C051C9F4600205449FDF702
:10E97000D1F90720FFF746FB002800D092E063683A
:10E98000504C1A88504B201C1A80291C042203F07A
:10E9900064FB201C02F03AFC002800D07FE04B4AC8
:10E9A00013780133DBB21370002B01D1FFF79CFE0B
:10E9B00000204749FDF7AEF9002070BD0020454911
:10E9C000FDF7A8F9002E70D100204349FDF7A2F908
:10E9D000F2E700204149FDF79DF9D6224048002189
:10E9E0005200FCF715FC0020FFF70CFB002853D168
:10E9F000364C2378012B5CD0013B00203949237031
:10EA0000FDF788F9D8E7427837490020FDF782F909
:10EA10002C4802F0FBFB002801D0FCF7F7FC6A78D9
:10EA200000203249FDF776F9C6E700203049FDF7AE
:10EA300071F900202F49FDF76DF9BDE700202E493F
:10EA4000FDF768F963682648198801F009FA00287B
:10EA500001D0FCF7DBFC00202849FDF75BF9ABE7B0
:10EA600000202749FDF756F9002E02D0301CFCF794
:10EA7000CDFC00202349FDF74DF99DE700202249F8
:10EA8000FDF748F9002E02D0301CFCF7BFFC002037
:10EA90001E49FDF73FF98FE7FCF7B8FCA8E7FCF744
:10EAA000B5FC7CE7FCF7B2FC69E7301CFCF7AEFC78
:10EAB0008AE7FFF719FE23789EE7C046D4210200BB
:10EAC000D8220200F425002042270020F025002053
:10EAD000F8220200002502002C2502001823020063
:10EAE000442700203C230200602302008C23020004
:10EAF000B8230200E42302001024020034240200A0
:10EB0000582402007C240200A8240200D42402001D
:10EB100008B507281ED00A280ED0042800D008BD4A
:10EB2000114B13211888FFF7C7FD0823021C9A43D5
:10EB3000F5D0FCF76BFCF2E70020FFF763FA002842
:10EB40000FD1FFF7FBFC002808D1FFF7AFFD00282D
:10EB5000E5D0EEE70122054B1A70E0E7FCF756FC22
:10EB6000F3E7FCF753FCECE742270020E025002008
:10EB700010B50B780C1C012B0CD0022B09D18A8804
:10EB800000200A49FDF7C6F8A28800200849FDF7D1
:10EB9000C1F810BD01F0BCFF002801D0FCF736FC25
:10EBA00000200449FDF7B6F8F3E7C0467C250200D3
:10EBB000A42502005825020038B50B78051C0C1C52
:10EBC000012B27D0002B0CD0022B09D100200A7971
:10EBD0001449FDF79FF8227900201349FDF79AF8B0
:10EBE00038BD00201149FDF795F800201049FDF7C8
:10EBF00091F8281C00F048FF00280FD100200D4993
:10EC0000FDF788F8281C00F0F5FE0028E8D0FCF796
:10EC1000FDFBE5E70A7900200749DAE7FCF7F6FB98
:10EC2000ECE7C046702602005C260200B825020010
:10EC3000E0250200042602003426020030B5002040
:10EC400087B003215B4A0023FCF7CCFE002801D0EB
:10EC5000FCF7DCFB03205849584AFFF79DFB0028CE
:10EC600001D0FCF7D3FB01AC0020211CFFF7D0FC46
:10EC7000002801D0FCF7CAFB2578023D6B425D41BC
:10EC8000EDB2FDF71BF8002801D0FCF7BFFB002018
:10EC90004B49FDF73FF84B490422684603F0DDF984
:10ECA000684649494822002302F034FF002801D079
:10ECB000FCF7ACFB01200021221C02F09BFF002886
:10ECC00001D0FCF7A3FB414802F0ACFF002801D0C3
:10ECD000FCF79CFB201C02F0CBFF002801D0FCF7C6
:10ECE00095FB3B4802F05AFF002801D0FCF78EFB51
:10ECF000384802F05DFF002801D0FCF787FB6B4627
:10ED00001D70FEF7A9FC002801D0FCF77FFB6846C8
:10ED100002F0B4F9002801D0FCF778FB09200021AB
:10ED200005226844FCF774FA2B4B0120019302235F
:10ED300002218322237163790343DBB20B43134027
:10ED4000302213437F22134063710723A3710933D9
:10ED5000E371637A1843014361722048211C02F079
:10ED600027FA002801D0FCF751FB1D4800F0F8FFFE
:10ED7000002801D0FCF74AFB1A4B1B48211C0193C9
:10ED800001F02CFE002801D0FCF740FB174B18487F
:10ED9000211C019300F0A6FD002801D0FCF736FBF2
:10EDA000FFF7A2FCFFF784FC0028FBD0FCF72EFB4A
:10EDB000F8E7C04608260020CD0C000011EB01004A
:10EDC000982602002022020098250020E01C002046
:10EDD00099E7010071E7010051E90100E1250020F8
:10EDE000C9E6010071EB0100F0280020B9EB010039
:10EDF000E4250020F0B55F46444656464D46F0B443
:10EE0000774B83B098461B78041C8B46171C002B4D
:10EE100021D14146022240460A614A61714A836219
:10EE20008A6171498264714AC1618021C264102281
:10EE3000C9004362C362836502654365C3650162BD
:10EE40006B49073003F012F940466A4903F00EF9A6
:10EE5000202342469371EFF31083012181F3108840
:10EE6000019363001E19F6004644F26A012A00D19C
:10EE70006DE0002A3DD0022A2ED1002301349A46AB
:10EE800063001C19E300756A99461DE0013C336A72
:10EE9000641BBC4200D93C1C5B1B9C4200D91C1C5F
:10EEA00043464B44586859464019221C03F0D5F894
:10EEB000336A2D19EB1A5A1E93415B421D40A2443E
:10EEC000A3443F1B756209D0B46AAC42DED8336AF2
:10EED000E418013C641BDCE700239A46019B83F3A2
:10EEE0001088504603B03CBC90469946A246AB46BB
:10EEF000F0BD321C2032B16A5268914254D90139B6
:10EF00008A1A00218A469742E8D8202292461B1985
:10EF1000DB0043449A44524601341D6A566863003C
:10EF20001C19AD1BE400AF424CD3444463685946FE
:10EF300098192A1C03F091F8291C7E1B606859441B
:10EF4000321C03F08AF85346BA465E60C6E7B26ADE
:10EF5000706A824223D9013A366A121A9246BA423C
:10EF600000D9BA461D19ED0045440134203563002F
:10EF70006F681C19E400F61B4444B24519D363685A
:10EF80005946D819321C03F068F85346311C9F1BB0
:10EF9000606859443A1C03F060F86F609EE7366A77
:10EFA000911901390A1AD9E7306A091801398A1A00
:10EFB000A7E760685946C0195246574403F04DF818
:10EFC0006F608BE7231C43445868594680193A1CEC
:10EFD00003F043F85346BE195E60BA467EE7C0466A
:10EFE0008C310020B82602000C290020FC280020CB
:10EFF000C4260200C8260200F0B5474680B42B4D57
:10F000001E1C2B7882B0041C8846171C002B29D0AC
:10F010002B69A34246D9EFF31083012181F31088B5
:10F0200000220193002C0CD11419089BE4002C1928
:10F03000E362019B83F31088002002B004BC904679
:10F04000F0BD631C5A00D31842460021DB005A5120
:10F05000EB1862005F601319DB00EB1899621E6207
:10F060005962E1E702222A616A61114A1149AA61E3
:10F07000AA64114AE9618021EA641022C900AB62E6
:10F08000EB626B62EB65AB6529626B652A650B49C8
:10F09000E81D02F0EBFF281C094902F0E7FF2023DE
:10F0A000AB71B5E701204042C7E7C0468C31002074
:10F0B000B82602000C290020FC280020C4260200EB
:10F0C000C8260200F0B5474680B4284D1E1C2B7898
:10F0D00082B0041C8846171C002B24D06B69A34205
:10F0E00041D9EFF31083012181F3108800220193AD
:10F0F000002C0CD11419089BE4002C19E365019B2A
:10F1000083F31088002002B004BC9046F0BD414655
:10F1100062001319DB00EB1899640021DF64996524
:10F120001E655965E6E702222A616A61104A1149A3
:10F13000AA61AA64104AE9618021EA641022C90028
:10F14000AB62EB626B62EB65AB6529626B652A654E
:10F150000A49E81D02F08AFF281C094902F086FFCF
:10F160002023AB71BAE701204042CCE78C3100206C
:10F17000B82602000C290020FC280020C42602002A
:10F18000C8260200F0B55F464D4656464446F0B4E8
:10F1900083B01D1C0C9B061C8946171C9B46914284
:10F1A00000D2DBE0081C0124391C02F0C5FD01344B
:10F1B0008742F9D90094AC4200D2009501230D9A00
:10F1C0001A40019203D15B46002B00D08CE0F3681B
:10F1D0009A46002B7BDBB36898464B460124B14628
:10F1E0001E1C012D03D9013D7C43012DFBD8301C91
:10F1F000211C02F0A1FD8742F6D9331C4E469946E8
:10F200003B1C5D4D474698460AE05346002B00DA0A
:10F210009BE0201C414602F08FFD041E00D194E0CB
:10F220004846211C02F088FD231C4A464343D31A5A
:10F23000994673687A1C295C9A420BD83368D95571
:10F24000F368171C9A4601239C46E2445346F36038
:10F250007368B2609F42D8D13A1C30693168FFF7B9
:10F26000C9FDB768B84239D00123B8465B42F360A4
:10F27000019B002B2BD05B46002B28D0009B202429
:10F2800000259B4523D942465F46984606E0F36831
:10F29000002B1CDB002F1AD0474518D97368511C6E
:10F2A000013F994207D833689C540A1CF368B16047
:10F2B0000133F36073689A42E9D130693168FFF72E
:10F2C00099FDB368984242D001235B42F36003B0DA
:10F2D0003CBC90469946A246AB46F0BD0023B360C5
:10F2E000F36800279A4690E70D9B20249B0731D4B2
:10F2F000009B9B4500D86AE75A46AA46BB46B368BE
:10F30000271C009D0C92141C06E0F268002ADEDB2C
:10F31000002C25D0AC4229D97268591C013C91427D
:10F3200007D83268D754F36872680133F3600B1C56
:10F33000B1609A42E9D130693168FFF75BFDB3688B
:10F340009842C1D10023B360DFE7B84690E7B560CB
:10F3500000229CE7002DCBD11034C9E7012429E716
:10F360005F4655469846A346924636E75F46554661
:10F37000A34692462FE7C046D0260200F0B5564677
:10F3800044465F464D46F0B49DB00CAB0793402316
:10F39000089300239B4609930A93043392469846A8
:10F3A0000C1C5E4604900B9023780134002B00D196
:10F3B0008CE0252B5CD1221C137800270220082129
:10F3C000141C2B2B0BD02B2B0DD92D2B4CD0302BD1
:10F3D0000ED1074301321378141C2B2BF3D1434673
:10F3E00001321F43F7E7232B02D10F430132F2E72B
:10F3F0001A1C303A0025092A00D9BAE0AA0055198A
:10F4000001346D00ED182378303D1A1C303A092A7A
:10F41000F4D9002291462E2B02D180E023780134CA
:10F420001A1C41468A43682AF8D0642B00D1F6E0C2
:10F4300055D9732B00D1B0E000D886E0752B00D0F1
:10F4400099E0534651461B6807A81A1D0A601968BF
:10F450000A22009501974B46FFF794FE0A9E01345D
:10F46000002EA1DAB34622E0012301321F43B2E7A6
:10F470000999089A481C904221D8079A53540A9B2C
:10F48000089A5E1C099002930A969042E8D10B9B61
:10F490000293079B0298191C0393FFF7ABFC099B8F
:10F4A0000293984200D14BE101235B429B465846B0
:10F4B0001DB03CBC90469946A246AB46F0BD8A4280
:10F4C000E5D023780134002B00D072E7B346002E3C
:10F4D000EDDD099A002A00D036E19344E7E7582B86
:10F4E0004CD0632B00D18AE0252BB8D1099808991C
:10F4F000421C8A4200D81AE1021C8A42AFD10B9BFF
:10F500000293079B0298191C0393FFF773FC099B56
:10F51000029398426FD100230A9E09939FE7637874
:10F52000611C1A1C303A0C1C092A00D978E74A469B
:10F5300091008A1801345200D2182378303A191CED
:10F5400030390929F4D991466AE7702B00D086E753
:10F55000534651461B6807A81A1D0A6019680823FC
:10F5600000930023102201930833FFF70BFE0A9E3D
:10F5700075E700254DE7782B00D070E753465146DC
:10F580001B6807A81A1D0A601968102200950197C8
:10F590004B46FFF7F7FD0A9E61E7534651461B684D
:10F5A0001A1D0A601D680CE00798C1540A9B099255
:10F5B0005E1C089B0A9602939A420FD0002E00DA36
:10F5C0004DE729780135002900D148E7099B0898C3
:10F5D0005A1C8242E8D98342F3D11A1C0B9B029336
:10F5E000079B0298191C0393FFF704FC099B0293E5
:10F5F000984200D183E0012676420A962FE75346CF
:10F6000051461B681A1D0A6009991868089B4A1C14
:10F610009A427CD90A1C9A4200D020E76FE75346F1
:10F6200051461B681A1D0A601B68DA179818029366
:10F63000012350409B4609280ADDA3461C1C0A21D1
:10F6400002F00AFC01340928F9DC231C5C469B46C5
:10F65000CB4558D3002D06D0029B002B02DB43463E
:10F660003B4200D0013DBB075AD401233B4232D17B
:10F67000002D30D05D452ED9301C099A5E4606E03B
:10F68000002800DAD5E0002D23D0B54221D9089B0F
:10F69000511C013D994209D82020079B98540A1C0F
:10F6A0000A9B0991581C0393089B0A909A42E7D140
:10F6B0000B9B0393079B0398191C0593FFF79AFB79
:10F6C000099B0393984296D100230A98099300223C
:10F6D000D6E7B346061C029B002B3EDB43463B426B
:10F6E00059D103233B40022B6ED00095019707A808
:10F6F00002990A224B46FFF745FD0A9EAFE600231A
:10F700000A9E09935AE7CB46002DACD0A4E7079B8D
:10F7100058540A9B09925E1C02930A96089B7AE74A
:10F720004B46002BD7D001233B42D4D1A0E7079909
:10F730000B540A9B09925E1C02930A960899DCE618
:10F7400000230A9E09938BE604980CA9FFF752FB4D
:10F750000A9B099A9B469344A9E65B420293099B44
:10F76000089A591C914203D8079A03922D221AE055
:10F770009342B6D10B9B0393079B0398191C0593E7
:10F78000FFF738FB099B0393984200D033E700232F
:10F790000A9E099311E0099B089A591C9142E7D8E7
:10F7A000079A03922B220398C2540A9B089A5E1C64
:10F7B000099103930A969142DCD0002E00DA4EE6BE
:10F7C00003233B40022B90D14B46002B8DD1002DC3
:10F7D0002DD0AB4589D2099A06E0002E00DA3EE62C
:10F7E000002D24D05D4580D9089B511C013D9942D4
:10F7F00009D83020079B98540A1C0A9B09915E1C6B
:10F800000393089B0A969A42E7D10B9B0393079BAD
:10F810000398191C0593FFF7EDFA099B039398428F
:10F8200000D0E8E600230A9E09930022D5E70025D0
:10F830005BE7061C13E6C04696DF704798DF70470B
:10F84000F0B50A7883B0002A05D14B68224C1B0220
:10F850001B0AA34201D003B0F0BD6B461A706A4682
:10F860004B8853800F7A002F10D01C4ECB89B342A7
:10F8700021D00A1C01231A3205E014881D1C0C3209
:10F880000133B44218D0DCB2A742F6D80288144B38
:10F89000041C9A420AD04388002B07D18388002B8E
:10F8A00004D1023001A9042202F0D7FBA368201C76
:10F8B00069469847CFE700256A466B005D19AD00A1
:10F8C00049190B8B041C9380CB8AD3800288044B8C
:10F8D0009A42E0D1EAE7C0460F180100192A000059
:10F8E000FFFF000000B5031C83B00E20002B10D0DA
:10F8F00000290ED0012201A88270074A028001224D
:10F9000052421A8000225A809A800A689A6000F057
:10F910003FFA03B000BDC0460F18000030B583B0F9
:10F92000002811D000290FD00B88362B38D00DD9E4
:10F93000382B18D0392B07D102888B88934203D1FA
:10F940008C898288944243D003B030BD112BFBD107
:10F9500002888B889A42F7D101235B4203800023FF
:10F9600043808380F0E702888B889A42ECD11E4D59
:10F970001E4B2C681B689C42E6D0A3001C4A1B1936
:10F980009B00D118887800281CD0985A0831FFF7BE
:10F9900055FF0028D8D1072301341C402C60D3E741
:10F9A00002888B889342CFD18C8982889442DED1A1
:10F9B0006A465380022313708B7C694613718368F7
:10F9C0009847D4E7985A89880022FFF735FFE0E787
:10F9D0000A8A012AB8D16C46638022708B7C694602
:10F9E000237183689847AFE7102D00200C2D00206D
:10F9F000142D0020F8B5031E35D001881E4A0820BA
:10FA0000914200D1F8BD07251C4A5C8813681C4E42
:10FA1000581C284010609A00D2189200B3185C81DC
:10FA20000224DC811C1D1C6100240027154D9C81D3
:10FA300001341C721C719C702C685F71B15284423D
:10FA400017D0A3001B199B00F1188A78985B002A35
:10FA50000BD00831FFF7F2FE00280AD1072301344A
:10FA60001C402C60CEE70E20CCE78988FFF7E4FE2F
:10FA7000F2E70020C6E7C046FFFF00000C2D002083
:10FA8000142D0020102D002038B5031E2CD0018825
:10FA9000194A0820914200D138BD0724174802684E
:10FAA000511C214094000160A21815489D889200C5
:10FAB0008418A5801B88134D83520023A3702C68E3
:10FAC000A14217D0A3001B199B00C1188A78185AAD
:10FAD000002A0BD00831FFF7B1FE00280AD1072316
:10FAE00001341C402C60D7E70E20D5E78988FFF74A
:10FAF000A3FEF2E70020CFE7FFFF00000C2D00205F
:10FB0000142D0020102D002008B5002809D00180F8
:10FB1000002A08D0111C0230042202F09EFA0020B4
:10FB200008BD0E20FCE70020FAE7C04690DF7047D2
:10FB300092DF704793DF7047F0B557464E46454613
:10FB4000D3238946A621E0B446255B009446C25CD7
:10FB5000FF31445C554363001B1942199B005B193C
:10FB60001779C318661C82B00A339246BE423AD057
:10FB70007E1E8846BC422ED2A6421BD001341A8972
:10FB800063001B199B005B19C118098A01328A4264
:10FB90001AD001AC4B1E2280638049460023604688
:10FBA0000B70211CFFF7C6FF02B01CBC90469946A3
:10FBB000A246F0BD52461B891289934210D001AC77
:10FBC000013323806280E8E7C3180A334246E4B277
:10FBD0008454A742D0D801234A4600201370E3E79B
:10FBE0000023741CF2E71B8912899342E7D1F2E7E4
:10FBF000F0B556464D4644465F46D422F0B4520016
:10FC0000835C524E0133DBB28354326895B0041CDE
:10FC10000D1C93420ED3A8230022FF33C2544C4B39
:10FC200003321A70598015B03CBC90469946A246E2
:10FC3000AB46F0BD00239B46A6235A46FF33C25471
:10FC40000133C15C9A460131C9B2C154613BFF3BEB
:10FC50001F1C99463F4B4F439846C71989004144A2
:10FC60000422381C02F0F9F95B463A883B71002007
:10FC700039492B1CFCF74EF8281C01213A1CFFF7D0
:10FC800055FF0028CFD0A8235A46FF33E2545346ED
:10FC90003268E35C002A25D049465943641841463E
:10FCA000A3788978994222D0012A1BD941468979C3
:10FCB000994245D0022A15D04146897A994239D0D5
:10FCC000032A0FD04146897B99422DD0042A09D0BE
:10FCD0004146897C994221D0052A03D04246927D33
:10FCE0009A4215D003221A4B1A705D809BE7414659
:10FCF0000E8821888E42D7D1184B19680029F1D07F
:10FD0000012201AB02905D801A70181C8847E9E758
:10FD100043469A8A23889A42E4D1EDE741460E8A07
:10FD200021888E42D8D1E7E741468E8921888E42CC
:10FD3000CCD1E1E741460E8921888E42C0D1DBE774
:10FD400041468E8821888E42B4D1D5E7B82F002055
:10FD5000B82D00209C2F0020E0260200B42D0020AA
:10FD600000280BD000230121054A1360054A1170B9
:10FD7000054A1360054B1860002070470E20FCE711
:10FD8000B82F0020B42F0020982F0020B42D002081
:10FD900070B5011E05D02E4B08201B78002B02D118
:10FDA00070BD0E20FCE72B4D2C68002C4CD02A4B4C
:10FDB0008A78987890422ED0012C47D99879904231
:10FDC0001FD0022C14D0987A904238D0032C0FD038
:10FDD000987B90422ED0042C0AD0987C904224D05C
:10FDE000052C05D0987D90421AD00420052CD7D838
:10FDF000A00018180422013402F02FF92C60002012
:10FE0000CEE79E8808888642DBD1144A002012681B
:10FE1000002AC5D1E9E71E8808888642CCD1F4E7DC
:10FE2000988A0A889042E0D1EFE71E8A08888642C5
:10FE3000D6D1EAE79E8908888642CCD1E5E71E89BB
:10FE400008888642C2D1E0E7034BD1E70124CFE71F
:10FE5000B42F0020B82F00209C2F0020B42D0020AC
:10FE600070B5041C0D1C00282FD0194B08201B78DE
:10FE7000002B00D170BD174B1B68002BFAD0A826B1
:10FE8000FF36A35D0930002BF4D1D5225200A152D8
:10FE9000114A12491360D4225200A354023AA354C7
:10FEA000A33AFF3A201C02F0D8F8228800200C491F
:10FEB0002B1CFBF72FFF281C0121221CFFF736FE0D
:10FEC0000028D7D10123A355D4E70E20D2E7C0469E
:10FED000B42F0020B82F0020982F00209C2F002046
:10FEE000E0260200F0B55F4656464D464446F0B463
:10FEF00097B0002818D0002916D0944B1B78002BFF
:10FF000012D00B880C1C051C302B00D18DE000D8C2
:10FF10007CE0322B0FD0332B06D1D5235B008A88AF
:10FF2000C35A9A4200D1FBE017B03CBC90469946B8
:10FF3000A246AB46F0BDD5235B008A88C35A9A42DD
:10FF4000F2D1D3235B00C35C9846CB88002B00D151
:10FF500022E2A6230026FF33EE5402ABA288281C1F
:10FF6000D91CFFF7E9FD002800D080E302ABDB7865
:10FF7000002BD9D0434646277B4300205A5B744967
:10FF8000A388FBF7C7FEA3889C46D3235B00E85CED
:10FF9000704B1E689846002E00D1EAE23A1C42439C
:10FFA0006D4BAA1897789978B94201D100F05AFCA4
:10FFB000012E00D8DDE29979B94201D100F072FC3E
:10FFC000022E00D1D5E2997AB94201D100F062FC4B
:10FFD000032E00D1CDE2997BB94201D100F052FC51
:10FFE000042E00D1C5E2997CB94201D100F042FC57
:10FFF000052E00D1BDE2997D89466146B94501D102
:020000022000DC
:1000000000F0F1FB281CFFF7F3FD8DE7112B00D06A
:100010008AE7D5235B00C25A8B889A4200D083E7D7
:10002000A8230022FF33C2547EE7D522D3275200F3
:100030008988825A7F00C35D914200D074E7E288CC
:10004000002A00D01DE146325343C6184349002020
:1000500090463288FBF75EFE211C04220E31301CD4
:1000600001F0FBFF211C0422B01D123101F0F5FF4D
:10007000A622FF32AA5CA088EB5D002A00D07AE2BB
:1000800042465A43AA18D28846277B4303AE3280A1
:10009000EB181B89311C7380FFF74AFD002800D143
:1000A00042E7A8230022FF33EA54A388294A9C464A
:1000B000D32311685B00EB5C002900D191E35F431F
:1000C000254BED19AA789F78974200D17CE301294E
:1000D00000D886E39F79974200D165E3022900D1D9
:1000E0007FE39F7A974200D157E3032900D178E359
:1000F0009F7B974200D149E3042900D171E39F7CA3
:10010000974200D12EE3052900D16AE39F7D614625
:10011000974200D15FE30322114B1A70598003E725
:10012000D3235B00C35C9C46A623FF33C75CCB880C
:10013000002B22D18E89002E1FD00A480B8A8342C1
:1001400000D125E20A1C0023163213E0B42F002050
:100150006C270200B82F00209C2F002030270200BF
:10016000B82D0020022900000632911F0988814223
:1001700000D10EE20133B342F6D3002399464A463A
:1001800002ABDA70664646235E43AE199846337971
:1001900001379F4200D0D6E1012302AAD3703288F2
:1001A000A38800207549FBF7B5FDA3889C46D3239F
:1001B0005B00E85C724B1E689846002E00D1D8E1C7
:1001C000462242436F4BAA1897789978B94200D1DA
:1001D00068E2012E00D8CCE19979B94200D16FE2F2
:1001E000022E00D1C5E1997AB94200D161E2032E15
:1001F00000D1BEE1997BB94200D14CE2042E00D17E
:10020000B7E1997CB94200D13EE2052E00D1B0E1C0
:10021000997D89466146B94500D0F3E69F8A1388E7
:100220009F4200D0EEE6584B61461B680193002BBD
:1002300000D1E7E6554B9A461B689946052B00D935
:10024000E0E69B004B441B019B46514F0093BB448F
:100250005B465980462141430433181C46226918E5
:1002600001F0FBFE0023009ABB545B46019ADA645E
:100270004B465246013313609E4200D167E2A1888B
:10028000C0E646225343914642491A5A0020FBF7E2
:1002900041FDA388E85D9C46394B1E689846002EB8
:1002A00000D166E14B464343EA18364B977899787C
:1002B000B94200D191E1012E00D85AE19979B942B1
:1002C00000D183E1022E00D153E1997AB94200D1E5
:1002D00075E1032E00D14CE1997BB94200D167E171
:1002E000042E00D145E1997CB94200D17CE1052E74
:1002F00000D13EE1997D89466146B94500D081E64D
:100300009F8A13889F4200D07CE61F4B61461B6882
:100310000193002B00D175E61C4B9A461B68994649
:10032000052B00D96EE69B004B441B019B46184FE2
:100330000093BB445B465980462141430433181C5B
:100340004622691801F089FE0223009ABB545B46DD
:10035000019ADA644B46524601331360B3428ED1A0
:100360000026FB6C381C984743461B680136503703
:100370009E42F6D300235246136080E7C82702004E
:10038000B82F00209C2F0020B42D0020982F002093
:10039000B82D00204C270200462743465F43C7196B
:1003A0003E790A7BB218052A00DDDFE0D2B2131CC9
:1003B0003A71B3426AD94622414651438946730095
:1003C0009B199B004B449A46AA445046211C3C3A38
:1003D0000A300E3101F041FE534600229A829246C5
:1003E0003A79731C934200D3BEE05A00D3189B00A5
:1003F0004B449B46AB445846211C0A220A30183114
:1004000001F02BFE5B4652469A823A79B31C934226
:1004100000D3A9E05A00D3189B004B449B46AB4441
:100420005846211C0A220A30223101F016FE5B4692
:1004300052469A823A79F31C934200D394E05A00D0
:10044000D3189B004B449B46AB445846211C0A22C0
:100450000A302C3101F001FE5B4652469A823A790D
:10046000331D934200D37FE05A00D3189B004B44C6
:100470009946A9444846211C0A220A30363101F027
:10048000ECFD52464B469A823A790536013E73009E
:100490009B199E004621434659437318EB1838892F
:1004A0005B8A984200D854E5052A00D151E5A6237D
:1004B000FF33EA54A088002A00D008E1FB8803AE8D
:1004C00033803B89311C7380FFF732FB002800D159
:1004D0002AE5A8230022FF33EA54A3889946D323B0
:1004E0005B00EA5CB44B1968002926D046235343CD
:1004F000ED18B24BAA789F78974200D10AE2012901
:100500001BD99F79974200D1FDE1022915D09F7A2E
:10051000974200D1F0E103290FD09F7B974200D191
:10052000E3E1042909D09F7C974200D1D6E1052957
:1005300003D0997D914200D1BCE10322A04B1A70F7
:100540004A465A80F0E4A623FF33EF5402ABA28858
:10055000281CD91CFFF7F0FA00284CD102ABDB783D
:10056000002B00D1E0E41AE61E1C8FE705230522CC
:100570001EE7614646E5013AD2B251008A1841466B
:10058000594392005218AA18528A013292B27BE55E
:1005900000235A00D3185B00E318D9897B00DB19CC
:1005A0009A00604646234343D318EB189982E4E54A
:1005B000998989461188894500D091E6A5E619896F
:1005C00089461188894500D083E69EE69988894648
:1005D0001188894500D075E697E619888946118803
:1005E000894500D067E690E6198A894611888945D1
:1005F00000D07CE689E6A8234A46FF33EA546E4AD7
:10060000013B1268A688EB5C002A00D19DE04146C0
:1006100059430B1CED18694BA9789F788F4200D184
:100620008CE0012A00D890E09F798F4200D17EE0D3
:10063000022A00D189E09F7A8F4200D170E0032A1C
:1006400000D182E09F7B8F4264D0042A00D17CE0FD
:100650009F7C8F4258D0052A00D176E09F7D321CC6
:100660008F423FD00321564B19705A805CE4A82377
:10067000FF33EE54013BE95C4F4BA6881A68002A11
:1006800063D046234B43C5E7198A894611888945BB
:1006900000D0BAE5C7E5998989461188894500D017
:1006A000ACE5C0E5198889461188894500D090E5F8
:1006B000B9E5198989461188894500D097E5B2E5E1
:1006C000998889461188894500D089E5ABE5013ACA
:1006D000D2B253009A189200511869184B8A01330C
:1006E0009BB2ECE6998A2B889942BBD1354B321CE0
:1006F00019680029B6D0012203AB1A705E800490FD
:10070000181C8847A288ADE71F8ABC462F88BC45C5
:10071000A1D1EBE79F89BC462F88BC4595D1E5E781
:100720001F89BC462F88BC4500D088E7DEE79F883C
:10073000BC462F88BC4500D07AE7D7E71F88BC4667
:100740002F88BC4500D06CE7D0E7321C8AE7002632
:10075000FB6C381C984743461B68013650379E4255
:10076000F6D307E61F8AB8462F88B84500D0CAE4FA
:10077000144B61461A68002A00D1CCE40123718031
:1007800070603370301C9047A188C4E49F89B846DC
:100790002F88B84500D0AFE4EAE71F89B8462F8814
:1007A000B84500D0A1E4E3E79F88B8462F88B84554
:1007B00000D093E4DCE7C046B82F00209C2F002037
:1007C000B82D0020B42D00201F88B8462F88B845CA
:1007D00000D07CE4CCE79A8A2B889A4200D09AE435
:1007E000C6E7614697E49F8A13889F4201D0FFF7CE
:1007F00009FC4C4B61461B680093002B01D1FFF7AD
:1008000001FC494B9A461B689946052B01D9FFF715
:10081000F9FB9B004B441A019346444F0192BB44A1
:100820005B465980462141430433181C462269180F
:1008300001F013FC0023019ABB545A46009BD36479
:100840004B46524601331360B34200D017E50026F1
:10085000FB6C381C984743461B68013650379E4254
:10086000F6D387E5198889461188894501D0FFF7B5
:100870009FFBBEE7198A89461188894501D0FFF799
:10088000B7FBB6E7998989461188894501D0FFF7FA
:10089000A7FBAEE7198989461188894501D0FFF782
:1008A00097FBA6E7998889461188894501D0FFF70B
:1008B00087FB9EE79A8A2B889A4200D03DE6194B27
:1008C0001B68002B00D138E64A4672800122706016
:1008D0003270301C9847A38899462EE61F8AB84686
:1008E0002F88B84500D022E6E9E79F89B8462F88CF
:1008F000B84500D015E6E2E71F89B8462F88B8450D
:1009000000D008E6DBE79F88B8462F88B84500D0BE
:10091000FBE5D4E71F88B8462F88B84500D0EEE540
:10092000CDE7C046B42D0020982F0020B82D002020
:1009300096DF704798DF704770B50B7882B0002B58
:1009400005D14B681A02214B120A9A4201D002B01B
:1009500070BD01236A4613704B8853800E7A002EB7
:1009600010D01B4DCB89AB4225D00A1C00231A3274
:1009700005E00C32141C0C3C2488AC421CD0013322
:10098000B342F6D3041C13490020FBF7C3F92288B5
:10099000114B9A420AD06388002B07D1A388002B01
:1009A00004D1A01C01A9042201F057FBA368201C5C
:1009B00069469847CBE700235A00D3186A469B0044
:1009C000C9180B8B9380CB8AD380DBE70D1801000D
:1009D000372A000024280200FFFF000000B5031C96
:1009E00083B00E20002B10D000290ED0012201A8C8
:1009F0008270074A02800A689A60012252421A8075
:100A000000225A809A80FFF7C3F903B000BDC046A8
:100A10000D18000030B583B000280AD0002908D096
:100A20000B880C1C051C382B19D0392B03D0112B2B
:100A30000AD003B030BD8A88038893422DD00020AD
:100A40002C49FBF767F9F4E702888B889A42F0D1CA
:100A500001235B420380002343808380E9E702880F
:100A60008B889A42E5D1244C244A23681268934229
:100A7000DFD09900CB18224A9B00D1188878002833
:100A80002AD1985A89880022FFF752FF002828D0DF
:100A900000201C49FBF73EF9CBE78A8983881A4975
:100AA0000020FBF737F9A289AB889A42C1D1022313
:100AB0006A4613702B885380A37CDB0707D4E37C42
:100AC0006A46281C93806946AB689847B1E7237D46
